{
  "_format": "hh-sol-artifact-1",
  "contractName": "PlfDNFT",
  "sourceName": "contracts/PlfDNFT.sol",
  "abi": [
    {
      "inputs": [],
      "stateMutability": "nonpayable",
      "type": "constructor"
    },
    {
      "anonymous": false,
      "inputs": [
        {
          "indexed": true,
          "internalType": "address",
          "name": "owner",
          "type": "address"
        },
        {
          "indexed": true,
          "internalType": "address",
          "name": "approved",
          "type": "address"
        },
        {
          "indexed": true,
          "internalType": "uint256",
          "name": "tokenId",
          "type": "uint256"
        }
      ],
      "name": "Approval",
      "type": "event"
    },
    {
      "anonymous": false,
      "inputs": [
        {
          "indexed": true,
          "internalType": "address",
          "name": "owner",
          "type": "address"
        },
        {
          "indexed": true,
          "internalType": "address",
          "name": "operator",
          "type": "address"
        },
        {
          "indexed": false,
          "internalType": "bool",
          "name": "approved",
          "type": "bool"
        }
      ],
      "name": "ApprovalForAll",
      "type": "event"
    },
    {
      "anonymous": false,
      "inputs": [
        {
          "indexed": false,
          "internalType": "uint256",
          "name": "_fromTokenId",
          "type": "uint256"
        },
        {
          "indexed": false,
          "internalType": "uint256",
          "name": "_toTokenId",
          "type": "uint256"
        }
      ],
      "name": "BatchMetadataUpdate",
      "type": "event"
    },
    {
      "anonymous": false,
      "inputs": [
        {
          "indexed": false,
          "internalType": "uint256",
          "name": "_tokenId",
          "type": "uint256"
        }
      ],
      "name": "MetadataUpdate",
      "type": "event"
    },
    {
      "anonymous": false,
      "inputs": [
        {
          "indexed": true,
          "internalType": "address",
          "name": "from",
          "type": "address"
        },
        {
          "indexed": true,
          "internalType": "address",
          "name": "to",
          "type": "address"
        },
        {
          "indexed": true,
          "internalType": "uint256",
          "name": "tokenId",
          "type": "uint256"
        }
      ],
      "name": "Transfer",
      "type": "event"
    },
    {
      "inputs": [
        {
          "internalType": "address",
          "name": "to",
          "type": "address"
        },
        {
          "internalType": "uint256",
          "name": "tokenId",
          "type": "uint256"
        }
      ],
      "name": "approve",
      "outputs": [],
      "stateMutability": "nonpayable",
      "type": "function"
    },
    {
      "inputs": [
        {
          "internalType": "address",
          "name": "owner",
          "type": "address"
        }
      ],
      "name": "balanceOf",
      "outputs": [
        {
          "internalType": "uint256",
          "name": "",
          "type": "uint256"
        }
      ],
      "stateMutability": "view",
      "type": "function"
    },
    {
      "inputs": [
        {
          "internalType": "uint256",
          "name": "tokenId",
          "type": "uint256"
        }
      ],
      "name": "getApproved",
      "outputs": [
        {
          "internalType": "address",
          "name": "",
          "type": "address"
        }
      ],
      "stateMutability": "view",
      "type": "function"
    },
    {
      "inputs": [
        {
          "internalType": "address",
          "name": "owner",
          "type": "address"
        },
        {
          "internalType": "address",
          "name": "operator",
          "type": "address"
        }
      ],
      "name": "isApprovedForAll",
      "outputs": [
        {
          "internalType": "bool",
          "name": "",
          "type": "bool"
        }
      ],
      "stateMutability": "view",
      "type": "function"
    },
    {
      "inputs": [],
      "name": "name",
      "outputs": [
        {
          "internalType": "string",
          "name": "",
          "type": "string"
        }
      ],
      "stateMutability": "view",
      "type": "function"
    },
    {
      "inputs": [
        {
          "internalType": "uint256",
          "name": "tokenId",
          "type": "uint256"
        }
      ],
      "name": "ownerOf",
      "outputs": [
        {
          "internalType": "address",
          "name": "",
          "type": "address"
        }
      ],
      "stateMutability": "view",
      "type": "function"
    },
    {
      "inputs": [
        {
          "internalType": "address",
          "name": "to",
          "type": "address"
        },
        {
          "internalType": "string",
          "name": "uri",
          "type": "string"
        }
      ],
      "name": "safeMint",
      "outputs": [],
      "stateMutability": "nonpayable",
      "type": "function"
    },
    {
      "inputs": [
        {
          "internalType": "address",
          "name": "from",
          "type": "address"
        },
        {
          "internalType": "address",
          "name": "to",
          "type": "address"
        },
        {
          "internalType": "uint256",
          "name": "tokenId",
          "type": "uint256"
        }
      ],
      "name": "safeTransferFrom",
      "outputs": [],
      "stateMutability": "nonpayable",
      "type": "function"
    },
    {
      "inputs": [
        {
          "internalType": "address",
          "name": "from",
          "type": "address"
        },
        {
          "internalType": "address",
          "name": "to",
          "type": "address"
        },
        {
          "internalType": "uint256",
          "name": "tokenId",
          "type": "uint256"
        },
        {
          "internalType": "bytes",
          "name": "data",
          "type": "bytes"
        }
      ],
      "name": "safeTransferFrom",
      "outputs": [],
      "stateMutability": "nonpayable",
      "type": "function"
    },
    {
      "inputs": [
        {
          "internalType": "address",
          "name": "operator",
          "type": "address"
        },
        {
          "internalType": "bool",
          "name": "approved",
          "type": "bool"
        }
      ],
      "name": "setApprovalForAll",
      "outputs": [],
      "stateMutability": "nonpayable",
      "type": "function"
    },
    {
      "inputs": [
        {
          "internalType": "bytes4",
          "name": "interfaceId",
          "type": "bytes4"
        }
      ],
      "name": "supportsInterface",
      "outputs": [
        {
          "internalType": "bool",
          "name": "",
          "type": "bool"
        }
      ],
      "stateMutability": "view",
      "type": "function"
    },
    {
      "inputs": [],
      "name": "symbol",
      "outputs": [
        {
          "internalType": "string",
          "name": "",
          "type": "string"
        }
      ],
      "stateMutability": "view",
      "type": "function"
    },
    {
      "inputs": [
        {
          "internalType": "uint256",
          "name": "tokenId",
          "type": "uint256"
        }
      ],
      "name": "tokenURI",
      "outputs": [
        {
          "internalType": "string",
          "name": "",
          "type": "string"
        }
      ],
      "stateMutability": "view",
      "type": "function"
    },
    {
      "inputs": [
        {
          "internalType": "address",
          "name": "from",
          "type": "address"
        },
        {
          "internalType": "address",
          "name": "to",
          "type": "address"
        },
        {
          "internalType": "uint256",
          "name": "tokenId",
          "type": "uint256"
        }
      ],
      "name": "transferFrom",
      "outputs": [],
      "stateMutability": "nonpayable",
      "type": "function"
    },
    {
      "inputs": [
        {
          "internalType": "uint256",
          "name": "tokenId",
          "type": "uint256"
        },
        {
          "internalType": "string",
          "name": "uri",
          "type": "string"
        }
      ],
      "name": "updateTokenUri",
      "outputs": [],
      "stateMutability": "nonpayable",
      "type": "function"
    }
  ],
  "bytecode": "0x60806040523480156200001157600080fd5b506040518060400160405280600781526020017f4747546f6b656e000000000000000000000000000000000000000000000000008152506040518060400160405280600381526020017f47544b000000000000000000000000000000000000000000000000000000000081525081600090816200008f919062000324565b508060019081620000a1919062000324565b5050506200040b565b600081519050919050565b7f4e487b7100000000000000000000000000000000000000000000000000000000600052604160045260246000fd5b7f4e487b7100000000000000000000000000000000000000000000000000000000600052602260045260246000fd5b600060028204905060018216806200012c57607f821691505b602082108103620001425762000141620000e4565b5b50919050565b60008190508160005260206000209050919050565b60006020601f8301049050919050565b600082821b905092915050565b600060088302620001ac7fffffffffffffffffffffffffffffffffffffffffffffffffffffffffffffffff826200016d565b620001b886836200016d565b95508019841693508086168417925050509392505050565b6000819050919050565b6000819050919050565b600062000205620001ff620001f984620001d0565b620001da565b620001d0565b9050919050565b6000819050919050565b6200022183620001e4565b6200023962000230826200020c565b8484546200017a565b825550505050565b600090565b6200025062000241565b6200025d81848462000216565b505050565b5b8181101562000285576200027960008262000246565b60018101905062000263565b5050565b601f821115620002d4576200029e8162000148565b620002a9846200015d565b81016020851015620002b9578190505b620002d1620002c8856200015d565b83018262000262565b50505b505050565b600082821c905092915050565b6000620002f960001984600802620002d9565b1980831691505092915050565b6000620003148383620002e6565b9150826002028217905092915050565b6200032f82620000aa565b67ffffffffffffffff8111156200034b576200034a620000b5565b5b62000357825462000113565b6200036482828562000289565b600060209050601f8311600181146200039c576000841562000387578287015190505b62000393858262000306565b86555062000403565b601f198416620003ac8662000148565b60005b82811015620003d657848901518255600182019150602085019450602081019050620003af565b86831015620003f65784890151620003f2601f891682620002e6565b8355505b6001600288020188555050505b505050505050565b612e16806200041b6000396000f3fe608060405234801561001057600080fd5b50600436106100f55760003560e01c806370a0823111610097578063c87b56dd11610066578063c87b56dd14610282578063d204c45e146102b2578063d31af484146102ce578063e985e9c5146102ea576100f5565b806370a08231146101fc57806395d89b411461022c578063a22cb4651461024a578063b88d4fde14610266576100f5565b8063095ea7b3116100d3578063095ea7b31461017857806323b872dd1461019457806342842e0e146101b05780636352211e146101cc576100f5565b806301ffc9a7146100fa57806306fdde031461012a578063081812fc14610148575b600080fd5b610114600480360381019061010f9190611bb2565b61031a565b6040516101219190611bfa565b60405180910390f35b61013261032c565b60405161013f9190611ca5565b60405180910390f35b610162600480360381019061015d9190611cfd565b6103be565b60405161016f9190611d6b565b60405180910390f35b610192600480360381019061018d9190611db2565b610404565b005b6101ae60048036038101906101a99190611df2565b61051b565b005b6101ca60048036038101906101c59190611df2565b61057b565b005b6101e660048036038101906101e19190611cfd565b61059b565b6040516101f39190611d6b565b60405180910390f35b61021660048036038101906102119190611e45565b610621565b6040516102239190611e81565b60405180910390f35b6102346106d8565b6040516102419190611ca5565b60405180910390f35b610264600480360381019061025f9190611ec8565b61076a565b005b610280600480360381019061027b919061203d565b610780565b005b61029c60048036038101906102979190611cfd565b6107e2565b6040516102a99190611ca5565b60405180910390f35b6102cc60048036038101906102c79190612161565b6107f4565b005b6102e860048036038101906102e391906121bd565b610867565b005b61030460048036038101906102ff9190612219565b610897565b6040516103119190611bfa565b60405180910390f35b60006103258261092b565b9050919050565b60606000805461033b90612288565b80601f016020809104026020016040519081016040528092919081815260200182805461036790612288565b80156103b45780601f10610389576101008083540402835291602001916103b4565b820191906000526020600020905b81548152906001019060200180831161039757829003601f168201915b5050505050905090565b60006103c98261098c565b6004600083815260200190815260200160002060009054906101000a900473ffffffffffffffffffffffffffffffffffffffff169050919050565b600061040f8261059b565b90508073ffffffffffffffffffffffffffffffffffffffff168373ffffffffffffffffffffffffffffffffffffffff160361047f576040517f08c379a00000000000000000000000000000000000000000000000000000000081526004016104769061232b565b60405180910390fd5b8073ffffffffffffffffffffffffffffffffffffffff1661049e6109d7565b73ffffffffffffffffffffffffffffffffffffffff1614806104cd57506104cc816104c76109d7565b610897565b5b61050c576040517f08c379a0000000000000000000000000000000000000000000000000000000008152600401610503906123bd565b60405180910390fd5b61051683836109df565b505050565b61052c6105266109d7565b82610a98565b61056b576040517f08c379a00000000000000000000000000000000000000000000000000000000081526004016105629061244f565b60405180910390fd5b610576838383610b2d565b505050565b61059683838360405180602001604052806000815250610780565b505050565b6000806105a783610e26565b9050600073ffffffffffffffffffffffffffffffffffffffff168173ffffffffffffffffffffffffffffffffffffffff1603610618576040517f08c379a000000000000000000000000000000000000000000000000000000000815260040161060f906124bb565b60405180910390fd5b80915050919050565b60008073ffffffffffffffffffffffffffffffffffffffff168273ffffffffffffffffffffffffffffffffffffffff1603610691576040517f08c379a00000000000000000000000000000000000000000000000000000000081526004016106889061254d565b60405180910390fd5b600360008373ffffffffffffffffffffffffffffffffffffffff1673ffffffffffffffffffffffffffffffffffffffff168152602001908152602001600020549050919050565b6060600180546106e790612288565b80601f016020809104026020016040519081016040528092919081815260200182805461071390612288565b80156107605780601f1061073557610100808354040283529160200191610760565b820191906000526020600020905b81548152906001019060200180831161074357829003601f168201915b5050505050905090565b61077c6107756109d7565b8383610e63565b5050565b61079161078b6109d7565b83610a98565b6107d0576040517f08c379a00000000000000000000000000000000000000000000000000000000081526004016107c79061244f565b60405180910390fd5b6107dc84848484610fcf565b50505050565b60606107ed8261102b565b9050919050565b6000600760008154809291906108099061259c565b919050559050610819838261113d565b610823818361115b565b6108626040518060400160405280601381526020017f4d696e74656420746f6b656e2069643a20257300000000000000000000000000815250826111ff565b505050565b610871828261115b565b610893604051806060016040528060218152602001612dc060219139836111ff565b5050565b6000600560008473ffffffffffffffffffffffffffffffffffffffff1673ffffffffffffffffffffffffffffffffffffffff16815260200190815260200160002060008373ffffffffffffffffffffffffffffffffffffffff1673ffffffffffffffffffffffffffffffffffffffff16815260200190815260200160002060009054906101000a900460ff16905092915050565b6000634906490660e01b7bffffffffffffffffffffffffffffffffffffffffffffffffffffffff1916827bffffffffffffffffffffffffffffffffffffffffffffffffffffffff1916148061098557506109848261129b565b5b9050919050565b6109958161137d565b6109d4576040517f08c379a00000000000000000000000000000000000000000000000000000000081526004016109cb906124bb565b60405180910390fd5b50565b600033905090565b816004600083815260200190815260200160002060006101000a81548173ffffffffffffffffffffffffffffffffffffffff021916908373ffffffffffffffffffffffffffffffffffffffff160217905550808273ffffffffffffffffffffffffffffffffffffffff16610a528361059b565b73ffffffffffffffffffffffffffffffffffffffff167f8c5be1e5ebec7d5bd14f71427d1e84f3dd0314c0f7b2291e5b200ac8c7c3b92560405160405180910390a45050565b600080610aa48361059b565b90508073ffffffffffffffffffffffffffffffffffffffff168473ffffffffffffffffffffffffffffffffffffffff161480610ae65750610ae58185610897565b5b80610b2457508373ffffffffffffffffffffffffffffffffffffffff16610b0c846103be565b73ffffffffffffffffffffffffffffffffffffffff16145b91505092915050565b8273ffffffffffffffffffffffffffffffffffffffff16610b4d8261059b565b73ffffffffffffffffffffffffffffffffffffffff1614610ba3576040517f08c379a0000000000000000000000000000000000000000000000000000000008152600401610b9a90612656565b60405180910390fd5b600073ffffffffffffffffffffffffffffffffffffffff168273ffffffffffffffffffffffffffffffffffffffff1603610c12576040517f08c379a0000000000000000000000000000000000000000000000000000000008152600401610c09906126e8565b60405180910390fd5b610c1f83838360016113be565b8273ffffffffffffffffffffffffffffffffffffffff16610c3f8261059b565b73ffffffffffffffffffffffffffffffffffffffff1614610c95576040517f08c379a0000000000000000000000000000000000000000000000000000000008152600401610c8c90612656565b60405180910390fd5b6004600082815260200190815260200160002060006101000a81549073ffffffffffffffffffffffffffffffffffffffff02191690556001600360008573ffffffffffffffffffffffffffffffffffffffff1673ffffffffffffffffffffffffffffffffffffffff168152602001908152602001600020600082825403925050819055506001600360008473ffffffffffffffffffffffffffffffffffffffff1673ffffffffffffffffffffffffffffffffffffffff16815260200190815260200160002060008282540192505081905550816002600083815260200190815260200160002060006101000a81548173ffffffffffffffffffffffffffffffffffffffff021916908373ffffffffffffffffffffffffffffffffffffffff160217905550808273ffffffffffffffffffffffffffffffffffffffff168473ffffffffffffffffffffffffffffffffffffffff167fddf252ad1be2c89b69c2b068fc378daa952ba7f163c4a11628f55a4df523b3ef60405160405180910390a4610e2183838360016113c4565b505050565b60006002600083815260200190815260200160002060009054906101000a900473ffffffffffffffffffffffffffffffffffffffff169050919050565b8173ffffffffffffffffffffffffffffffffffffffff168373ffffffffffffffffffffffffffffffffffffffff1603610ed1576040517f08c379a0000000000000000000000000000000000000000000000000000000008152600401610ec890612754565b60405180910390fd5b80600560008573ffffffffffffffffffffffffffffffffffffffff1673ffffffffffffffffffffffffffffffffffffffff16815260200190815260200160002060008473ffffffffffffffffffffffffffffffffffffffff1673ffffffffffffffffffffffffffffffffffffffff16815260200190815260200160002060006101000a81548160ff0219169083151502179055508173ffffffffffffffffffffffffffffffffffffffff168373ffffffffffffffffffffffffffffffffffffffff167f17307eab39ab6107e8899845ad3d59bd9653f200f220920489ca2b5937696c3183604051610fc29190611bfa565b60405180910390a3505050565b610fda848484610b2d565b610fe6848484846113ca565b611025576040517f08c379a000000000000000000000000000000000000000000000000000000000815260040161101c906127e6565b60405180910390fd5b50505050565b60606110368261098c565b600060066000848152602001908152602001600020805461105690612288565b80601f016020809104026020016040519081016040528092919081815260200182805461108290612288565b80156110cf5780601f106110a4576101008083540402835291602001916110cf565b820191906000526020600020905b8154815290600101906020018083116110b257829003601f168201915b5050505050905060006110e0611551565b905060008151036110f5578192505050611138565b60008251111561112a578082604051602001611112929190612842565b60405160208183030381529060405292505050611138565b61113384611568565b925050505b919050565b6111578282604051806020016040528060008152506115d0565b5050565b6111648261137d565b6111a3576040517f08c379a000000000000000000000000000000000000000000000000000000000815260040161119a906128d8565b60405180910390fd5b806006600084815260200190815260200160002090816111c39190612aa4565b507ff8e1a15aba9398e019f0b49df1a4fde98ee17ae345cb5f6b5e2c27f5033e8ce7826040516111f39190611e81565b60405180910390a15050565b6112978282604051602401611215929190612b76565b6040516020818303038152906040527fb60e72cc000000000000000000000000000000000000000000000000000000007bffffffffffffffffffffffffffffffffffffffffffffffffffffffff19166020820180517bffffffffffffffffffffffffffffffffffffffffffffffffffffffff838183161783525050505061162b565b5050565b60007f80ac58cd000000000000000000000000000000000000000000000000000000007bffffffffffffffffffffffffffffffffffffffffffffffffffffffff1916827bffffffffffffffffffffffffffffffffffffffffffffffffffffffff1916148061136657507f5b5e139f000000000000000000000000000000000000000000000000000000007bffffffffffffffffffffffffffffffffffffffffffffffffffffffff1916827bffffffffffffffffffffffffffffffffffffffffffffffffffffffff1916145b80611376575061137582611645565b5b9050919050565b60008073ffffffffffffffffffffffffffffffffffffffff1661139f83610e26565b73ffffffffffffffffffffffffffffffffffffffff1614159050919050565b50505050565b50505050565b60006113eb8473ffffffffffffffffffffffffffffffffffffffff166116af565b15611544578373ffffffffffffffffffffffffffffffffffffffff1663150b7a026114146109d7565b8786866040518563ffffffff1660e01b81526004016114369493929190612bfb565b6020604051808303816000875af192505050801561147257506040513d601f19601f8201168201806040525081019061146f9190612c5c565b60015b6114f4573d80600081146114a2576040519150601f19603f3d011682016040523d82523d6000602084013e6114a7565b606091505b5060008151036114ec576040517f08c379a00000000000000000000000000000000000000000000000000000000081526004016114e3906127e6565b60405180910390fd5b805181602001fd5b63150b7a0260e01b7bffffffffffffffffffffffffffffffffffffffffffffffffffffffff1916817bffffffffffffffffffffffffffffffffffffffffffffffffffffffff191614915050611549565b600190505b949350505050565b606060405180602001604052806000815250905090565b60606115738261098c565b600061157d611551565b9050600081511161159d57604051806020016040528060008152506115c8565b806115a7846116d2565b6040516020016115b8929190612842565b6040516020818303038152906040525b915050919050565b6115da83836117a0565b6115e760008484846113ca565b611626576040517f08c379a000000000000000000000000000000000000000000000000000000000815260040161161d906127e6565b60405180910390fd5b505050565b6116428161163a6119bd6119de565b63ffffffff16565b50565b60007f01ffc9a7000000000000000000000000000000000000000000000000000000007bffffffffffffffffffffffffffffffffffffffffffffffffffffffff1916827bffffffffffffffffffffffffffffffffffffffffffffffffffffffff1916149050919050565b6000808273ffffffffffffffffffffffffffffffffffffffff163b119050919050565b6060600060016116e1846119e9565b01905060008167ffffffffffffffff811115611700576116ff611f12565b5b6040519080825280601f01601f1916602001820160405280156117325781602001600182028036833780820191505090505b509050600082602001820190505b600115611795578080600190039150507f3031323334353637383961626364656600000000000000000000000000000000600a86061a8153600a858161178957611788612c89565b5b04945060008503611740575b819350505050919050565b600073ffffffffffffffffffffffffffffffffffffffff168273ffffffffffffffffffffffffffffffffffffffff160361180f576040517f08c379a000000000000000000000000000000000000000000000000000000000815260040161180690612d04565b60405180910390fd5b6118188161137d565b15611858576040517f08c379a000000000000000000000000000000000000000000000000000000000815260040161184f90612d70565b60405180910390fd5b6118666000838360016113be565b61186f8161137d565b156118af576040517f08c379a00000000000000000000000000000000000000000000000000000000081526004016118a690612d70565b60405180910390fd5b6001600360008473ffffffffffffffffffffffffffffffffffffffff1673ffffffffffffffffffffffffffffffffffffffff16815260200190815260200160002060008282540192505081905550816002600083815260200190815260200160002060006101000a81548173ffffffffffffffffffffffffffffffffffffffff021916908373ffffffffffffffffffffffffffffffffffffffff160217905550808273ffffffffffffffffffffffffffffffffffffffff16600073ffffffffffffffffffffffffffffffffffffffff167fddf252ad1be2c89b69c2b068fc378daa952ba7f163c4a11628f55a4df523b3ef60405160405180910390a46119b96000838360016113c4565b5050565b60006a636f6e736f6c652e6c6f679050600080835160208501845afa505050565b611b3c819050919050565b600080600090507a184f03e93ff9f4daa797ed6e38ed64bf6a1f0100000000000000008310611a47577a184f03e93ff9f4daa797ed6e38ed64bf6a1f0100000000000000008381611a3d57611a3c612c89565b5b0492506040810190505b6d04ee2d6d415b85acef81000000008310611a84576d04ee2d6d415b85acef81000000008381611a7a57611a79612c89565b5b0492506020810190505b662386f26fc100008310611ab357662386f26fc100008381611aa957611aa8612c89565b5b0492506010810190505b6305f5e1008310611adc576305f5e1008381611ad257611ad1612c89565b5b0492506008810190505b6127108310611b01576127108381611af757611af6612c89565b5b0492506004810190505b60648310611b245760648381611b1a57611b19612c89565b5b0492506002810190505b600a8310611b33576001810190505b80915050919050565b611b44612d90565b565b6000604051905090565b600080fd5b600080fd5b60007fffffffff0000000000000000000000000000000000000000000000000000000082169050919050565b611b8f81611b5a565b8114611b9a57600080fd5b50565b600081359050611bac81611b86565b92915050565b600060208284031215611bc857611bc7611b50565b5b6000611bd684828501611b9d565b91505092915050565b60008115159050919050565b611bf481611bdf565b82525050565b6000602082019050611c0f6000830184611beb565b92915050565b600081519050919050565b600082825260208201905092915050565b60005b83811015611c4f578082015181840152602081019050611c34565b60008484015250505050565b6000601f19601f8301169050919050565b6000611c7782611c15565b611c818185611c20565b9350611c91818560208601611c31565b611c9a81611c5b565b840191505092915050565b60006020820190508181036000830152611cbf8184611c6c565b905092915050565b6000819050919050565b611cda81611cc7565b8114611ce557600080fd5b50565b600081359050611cf781611cd1565b92915050565b600060208284031215611d1357611d12611b50565b5b6000611d2184828501611ce8565b91505092915050565b600073ffffffffffffffffffffffffffffffffffffffff82169050919050565b6000611d5582611d2a565b9050919050565b611d6581611d4a565b82525050565b6000602082019050611d806000830184611d5c565b92915050565b611d8f81611d4a565b8114611d9a57600080fd5b50565b600081359050611dac81611d86565b92915050565b60008060408385031215611dc957611dc8611b50565b5b6000611dd785828601611d9d565b9250506020611de885828601611ce8565b9150509250929050565b600080600060608486031215611e0b57611e0a611b50565b5b6000611e1986828701611d9d565b9350506020611e2a86828701611d9d565b9250506040611e3b86828701611ce8565b9150509250925092565b600060208284031215611e5b57611e5a611b50565b5b6000611e6984828501611d9d565b91505092915050565b611e7b81611cc7565b82525050565b6000602082019050611e966000830184611e72565b92915050565b611ea581611bdf565b8114611eb057600080fd5b50565b600081359050611ec281611e9c565b92915050565b60008060408385031215611edf57611ede611b50565b5b6000611eed85828601611d9d565b9250506020611efe85828601611eb3565b9150509250929050565b600080fd5b600080fd5b7f4e487b7100000000000000000000000000000000000000000000000000000000600052604160045260246000fd5b611f4a82611c5b565b810181811067ffffffffffffffff82111715611f6957611f68611f12565b5b80604052505050565b6000611f7c611b46565b9050611f888282611f41565b919050565b600067ffffffffffffffff821115611fa857611fa7611f12565b5b611fb182611c5b565b9050602081019050919050565b82818337600083830152505050565b6000611fe0611fdb84611f8d565b611f72565b905082815260208101848484011115611ffc57611ffb611f0d565b5b612007848285611fbe565b509392505050565b600082601f83011261202457612023611f08565b5b8135612034848260208601611fcd565b91505092915050565b6000806000806080858703121561205757612056611b50565b5b600061206587828801611d9d565b945050602061207687828801611d9d565b935050604061208787828801611ce8565b925050606085013567ffffffffffffffff8111156120a8576120a7611b55565b5b6120b48782880161200f565b91505092959194509250565b600067ffffffffffffffff8211156120db576120da611f12565b5b6120e482611c5b565b9050602081019050919050565b60006121046120ff846120c0565b611f72565b9050828152602081018484840111156121205761211f611f0d565b5b61212b848285611fbe565b509392505050565b600082601f83011261214857612147611f08565b5b81356121588482602086016120f1565b91505092915050565b6000806040838503121561217857612177611b50565b5b600061218685828601611d9d565b925050602083013567ffffffffffffffff8111156121a7576121a6611b55565b5b6121b385828601612133565b9150509250929050565b600080604083850312156121d4576121d3611b50565b5b60006121e285828601611ce8565b925050602083013567ffffffffffffffff81111561220357612202611b55565b5b61220f85828601612133565b9150509250929050565b600080604083850312156122305761222f611b50565b5b600061223e85828601611d9d565b925050602061224f85828601611d9d565b9150509250929050565b7f4e487b7100000000000000000000000000000000000000000000000000000000600052602260045260246000fd5b600060028204905060018216806122a057607f821691505b6020821081036122b3576122b2612259565b5b50919050565b7f4552433732313a20617070726f76616c20746f2063757272656e74206f776e6560008201527f7200000000000000000000000000000000000000000000000000000000000000602082015250565b6000612315602183611c20565b9150612320826122b9565b604082019050919050565b6000602082019050818103600083015261234481612308565b9050919050565b7f4552433732313a20617070726f76652063616c6c6572206973206e6f7420746f60008201527f6b656e206f776e6572206f7220617070726f76656420666f7220616c6c000000602082015250565b60006123a7603d83611c20565b91506123b28261234b565b604082019050919050565b600060208201905081810360008301526123d68161239a565b9050919050565b7f4552433732313a2063616c6c6572206973206e6f7420746f6b656e206f776e6560008201527f72206f7220617070726f76656400000000000000000000000000000000000000602082015250565b6000612439602d83611c20565b9150612444826123dd565b604082019050919050565b600060208201905081810360008301526124688161242c565b9050919050565b7f4552433732313a20696e76616c696420746f6b656e2049440000000000000000600082015250565b60006124a5601883611c20565b91506124b08261246f565b602082019050919050565b600060208201905081810360008301526124d481612498565b9050919050565b7f4552433732313a2061646472657373207a65726f206973206e6f74206120766160008201527f6c6964206f776e65720000000000000000000000000000000000000000000000602082015250565b6000612537602983611c20565b9150612542826124db565b604082019050919050565b600060208201905081810360008301526125668161252a565b9050919050565b7f4e487b7100000000000000000000000000000000000000000000000000000000600052601160045260246000fd5b60006125a782611cc7565b91507fffffffffffffffffffffffffffffffffffffffffffffffffffffffffffffffff82036125d9576125d861256d565b5b600182019050919050565b7f4552433732313a207472616e736665722066726f6d20696e636f72726563742060008201527f6f776e6572000000000000000000000000000000000000000000000000000000602082015250565b6000612640602583611c20565b915061264b826125e4565b604082019050919050565b6000602082019050818103600083015261266f81612633565b9050919050565b7f4552433732313a207472616e7366657220746f20746865207a65726f2061646460008201527f7265737300000000000000000000000000000000000000000000000000000000602082015250565b60006126d2602483611c20565b91506126dd82612676565b604082019050919050565b60006020820190508181036000830152612701816126c5565b9050919050565b7f4552433732313a20617070726f766520746f2063616c6c657200000000000000600082015250565b600061273e601983611c20565b915061274982612708565b602082019050919050565b6000602082019050818103600083015261276d81612731565b9050919050565b7f4552433732313a207472616e7366657220746f206e6f6e20455243373231526560008201527f63656976657220696d706c656d656e7465720000000000000000000000000000602082015250565b60006127d0603283611c20565b91506127db82612774565b604082019050919050565b600060208201905081810360008301526127ff816127c3565b9050919050565b600081905092915050565b600061281c82611c15565b6128268185612806565b9350612836818560208601611c31565b80840191505092915050565b600061284e8285612811565b915061285a8284612811565b91508190509392505050565b7f45524337323155524953746f726167653a2055524920736574206f66206e6f6e60008201527f6578697374656e7420746f6b656e000000000000000000000000000000000000602082015250565b60006128c2602e83611c20565b91506128cd82612866565b604082019050919050565b600060208201905081810360008301526128f1816128b5565b9050919050565b60008190508160005260206000209050919050565b60006020601f8301049050919050565b600082821b905092915050565b60006008830261295a7fffffffffffffffffffffffffffffffffffffffffffffffffffffffffffffffff8261291d565b612964868361291d565b95508019841693508086168417925050509392505050565b6000819050919050565b60006129a161299c61299784611cc7565b61297c565b611cc7565b9050919050565b6000819050919050565b6129bb83612986565b6129cf6129c7826129a8565b84845461292a565b825550505050565b600090565b6129e46129d7565b6129ef8184846129b2565b505050565b5b81811015612a1357612a086000826129dc565b6001810190506129f5565b5050565b601f821115612a5857612a29816128f8565b612a328461290d565b81016020851015612a41578190505b612a55612a4d8561290d565b8301826129f4565b50505b505050565b600082821c905092915050565b6000612a7b60001984600802612a5d565b1980831691505092915050565b6000612a948383612a6a565b9150826002028217905092915050565b612aad82611c15565b67ffffffffffffffff811115612ac657612ac5611f12565b5b612ad08254612288565b612adb828285612a17565b600060209050601f831160018114612b0e5760008415612afc578287015190505b612b068582612a88565b865550612b6e565b601f198416612b1c866128f8565b60005b82811015612b4457848901518255600182019150602085019450602081019050612b1f565b86831015612b615784890151612b5d601f891682612a6a565b8355505b6001600288020188555050505b505050505050565b60006040820190508181036000830152612b908185611c6c565b9050612b9f6020830184611e72565b9392505050565b600081519050919050565b600082825260208201905092915050565b6000612bcd82612ba6565b612bd78185612bb1565b9350612be7818560208601611c31565b612bf081611c5b565b840191505092915050565b6000608082019050612c106000830187611d5c565b612c1d6020830186611d5c565b612c2a6040830185611e72565b8181036060830152612c3c8184612bc2565b905095945050505050565b600081519050612c5681611b86565b92915050565b600060208284031215612c7257612c71611b50565b5b6000612c8084828501612c47565b91505092915050565b7f4e487b7100000000000000000000000000000000000000000000000000000000600052601260045260246000fd5b7f4552433732313a206d696e7420746f20746865207a65726f2061646472657373600082015250565b6000612cee602083611c20565b9150612cf982612cb8565b602082019050919050565b60006020820190508181036000830152612d1d81612ce1565b9050919050565b7f4552433732313a20746f6b656e20616c7265616479206d696e74656400000000600082015250565b6000612d5a601c83611c20565b9150612d6582612d24565b602082019050919050565b60006020820190508181036000830152612d8981612d4d565b9050919050565b7f4e487b7100000000000000000000000000000000000000000000000000000000600052605160045260246000fdfe546f6b656e55726920757064617465642e2e2e20746f6b656e2069642023202573a2646970667358221220e5fa385ffe420498e2da6fc8be98cc5e9ab9f9afe68b441c8d1db55f37d82c5564736f6c63430008130033",
  "linkReferences": {},
  "deployedLinkReferences": {}
}