{
  "_format": "hh-sol-artifact-1",
  "contractName": "PlfDNFT",
  "sourceName": "contracts/PlfDNFT.sol",
  "abi": [
    {
      "inputs": [],
      "stateMutability": "nonpayable",
      "type": "constructor"
    },
    {
      "anonymous": false,
      "inputs": [
        {
          "indexed": true,
          "internalType": "address",
          "name": "owner",
          "type": "address"
        },
        {
          "indexed": true,
          "internalType": "address",
          "name": "approved",
          "type": "address"
        },
        {
          "indexed": true,
          "internalType": "uint256",
          "name": "tokenId",
          "type": "uint256"
        }
      ],
      "name": "Approval",
      "type": "event"
    },
    {
      "anonymous": false,
      "inputs": [
        {
          "indexed": true,
          "internalType": "address",
          "name": "owner",
          "type": "address"
        },
        {
          "indexed": true,
          "internalType": "address",
          "name": "operator",
          "type": "address"
        },
        {
          "indexed": false,
          "internalType": "bool",
          "name": "approved",
          "type": "bool"
        }
      ],
      "name": "ApprovalForAll",
      "type": "event"
    },
    {
      "anonymous": false,
      "inputs": [
        {
          "indexed": false,
          "internalType": "uint256",
          "name": "_fromTokenId",
          "type": "uint256"
        },
        {
          "indexed": false,
          "internalType": "uint256",
          "name": "_toTokenId",
          "type": "uint256"
        }
      ],
      "name": "BatchMetadataUpdate",
      "type": "event"
    },
    {
      "anonymous": false,
      "inputs": [
        {
          "indexed": false,
          "internalType": "uint256",
          "name": "_tokenId",
          "type": "uint256"
        }
      ],
      "name": "MetadataUpdate",
      "type": "event"
    },
    {
      "anonymous": false,
      "inputs": [
        {
          "indexed": true,
          "internalType": "address",
          "name": "from",
          "type": "address"
        },
        {
          "indexed": true,
          "internalType": "address",
          "name": "to",
          "type": "address"
        },
        {
          "indexed": true,
          "internalType": "uint256",
          "name": "tokenId",
          "type": "uint256"
        }
      ],
      "name": "Transfer",
      "type": "event"
    },
    {
      "inputs": [
        {
          "internalType": "address",
          "name": "to",
          "type": "address"
        },
        {
          "internalType": "uint256",
          "name": "tokenId",
          "type": "uint256"
        }
      ],
      "name": "approve",
      "outputs": [],
      "stateMutability": "nonpayable",
      "type": "function"
    },
    {
      "inputs": [
        {
          "internalType": "address",
          "name": "owner",
          "type": "address"
        }
      ],
      "name": "balanceOf",
      "outputs": [
        {
          "internalType": "uint256",
          "name": "",
          "type": "uint256"
        }
      ],
      "stateMutability": "view",
      "type": "function"
    },
    {
      "inputs": [
        {
          "internalType": "uint256",
          "name": "tokenId",
          "type": "uint256"
        }
      ],
      "name": "getApproved",
      "outputs": [
        {
          "internalType": "address",
          "name": "",
          "type": "address"
        }
      ],
      "stateMutability": "view",
      "type": "function"
    },
    {
      "inputs": [
        {
          "internalType": "address",
          "name": "owner",
          "type": "address"
        },
        {
          "internalType": "address",
          "name": "operator",
          "type": "address"
        }
      ],
      "name": "isApprovedForAll",
      "outputs": [
        {
          "internalType": "bool",
          "name": "",
          "type": "bool"
        }
      ],
      "stateMutability": "view",
      "type": "function"
    },
    {
      "inputs": [
        {
          "internalType": "bytes[]",
          "name": "data",
          "type": "bytes[]"
        }
      ],
      "name": "multicall",
      "outputs": [
        {
          "internalType": "bytes[]",
          "name": "results",
          "type": "bytes[]"
        }
      ],
      "stateMutability": "nonpayable",
      "type": "function"
    },
    {
      "inputs": [],
      "name": "name",
      "outputs": [
        {
          "internalType": "string",
          "name": "",
          "type": "string"
        }
      ],
      "stateMutability": "view",
      "type": "function"
    },
    {
      "inputs": [
        {
          "internalType": "uint256",
          "name": "tokenId",
          "type": "uint256"
        }
      ],
      "name": "ownerOf",
      "outputs": [
        {
          "internalType": "address",
          "name": "",
          "type": "address"
        }
      ],
      "stateMutability": "view",
      "type": "function"
    },
    {
      "inputs": [
        {
          "internalType": "address",
          "name": "to",
          "type": "address"
        },
        {
          "internalType": "string",
          "name": "uri",
          "type": "string"
        }
      ],
      "name": "safeMint",
      "outputs": [],
      "stateMutability": "nonpayable",
      "type": "function"
    },
    {
      "inputs": [
        {
          "internalType": "address",
          "name": "from",
          "type": "address"
        },
        {
          "internalType": "address",
          "name": "to",
          "type": "address"
        },
        {
          "internalType": "uint256",
          "name": "tokenId",
          "type": "uint256"
        }
      ],
      "name": "safeTransferFrom",
      "outputs": [],
      "stateMutability": "nonpayable",
      "type": "function"
    },
    {
      "inputs": [
        {
          "internalType": "address",
          "name": "from",
          "type": "address"
        },
        {
          "internalType": "address",
          "name": "to",
          "type": "address"
        },
        {
          "internalType": "uint256",
          "name": "tokenId",
          "type": "uint256"
        },
        {
          "internalType": "bytes",
          "name": "data",
          "type": "bytes"
        }
      ],
      "name": "safeTransferFrom",
      "outputs": [],
      "stateMutability": "nonpayable",
      "type": "function"
    },
    {
      "inputs": [
        {
          "internalType": "address",
          "name": "operator",
          "type": "address"
        },
        {
          "internalType": "bool",
          "name": "approved",
          "type": "bool"
        }
      ],
      "name": "setApprovalForAll",
      "outputs": [],
      "stateMutability": "nonpayable",
      "type": "function"
    },
    {
      "inputs": [
        {
          "internalType": "bytes4",
          "name": "interfaceId",
          "type": "bytes4"
        }
      ],
      "name": "supportsInterface",
      "outputs": [
        {
          "internalType": "bool",
          "name": "",
          "type": "bool"
        }
      ],
      "stateMutability": "view",
      "type": "function"
    },
    {
      "inputs": [],
      "name": "symbol",
      "outputs": [
        {
          "internalType": "string",
          "name": "",
          "type": "string"
        }
      ],
      "stateMutability": "view",
      "type": "function"
    },
    {
      "inputs": [
        {
          "internalType": "uint256",
          "name": "tokenId",
          "type": "uint256"
        }
      ],
      "name": "tokenURI",
      "outputs": [
        {
          "internalType": "string",
          "name": "",
          "type": "string"
        }
      ],
      "stateMutability": "view",
      "type": "function"
    },
    {
      "inputs": [
        {
          "internalType": "address",
          "name": "from",
          "type": "address"
        },
        {
          "internalType": "address",
          "name": "to",
          "type": "address"
        },
        {
          "internalType": "uint256",
          "name": "tokenId",
          "type": "uint256"
        }
      ],
      "name": "transferFrom",
      "outputs": [],
      "stateMutability": "nonpayable",
      "type": "function"
    },
    {
      "inputs": [
        {
          "internalType": "uint256",
          "name": "tokenId",
          "type": "uint256"
        },
        {
          "internalType": "string",
          "name": "uri",
          "type": "string"
        }
      ],
      "name": "updateTokenUri",
      "outputs": [],
      "stateMutability": "nonpayable",
      "type": "function"
    }
  ],
  "bytecode": "0x60806040523480156200001157600080fd5b506040518060400160405280600781526020017f4747546f6b656e000000000000000000000000000000000000000000000000008152506040518060400160405280600381526020017f47544b000000000000000000000000000000000000000000000000000000000081525081600090816200008f919062000324565b508060019081620000a1919062000324565b5050506200040b565b600081519050919050565b7f4e487b7100000000000000000000000000000000000000000000000000000000600052604160045260246000fd5b7f4e487b7100000000000000000000000000000000000000000000000000000000600052602260045260246000fd5b600060028204905060018216806200012c57607f821691505b602082108103620001425762000141620000e4565b5b50919050565b60008190508160005260206000209050919050565b60006020601f8301049050919050565b600082821b905092915050565b600060088302620001ac7fffffffffffffffffffffffffffffffffffffffffffffffffffffffffffffffff826200016d565b620001b886836200016d565b95508019841693508086168417925050509392505050565b6000819050919050565b6000819050919050565b600062000205620001ff620001f984620001d0565b620001da565b620001d0565b9050919050565b6000819050919050565b6200022183620001e4565b6200023962000230826200020c565b8484546200017a565b825550505050565b600090565b6200025062000241565b6200025d81848462000216565b505050565b5b8181101562000285576200027960008262000246565b60018101905062000263565b5050565b601f821115620002d4576200029e8162000148565b620002a9846200015d565b81016020851015620002b9578190505b620002d1620002c8856200015d565b83018262000262565b50505b505050565b600082821c905092915050565b6000620002f960001984600802620002d9565b1980831691505092915050565b6000620003148383620002e6565b9150826002028217905092915050565b6200032f82620000aa565b67ffffffffffffffff8111156200034b576200034a620000b5565b5b62000357825462000113565b6200036482828562000289565b600060209050601f8311600181146200039c576000841562000387578287015190505b62000393858262000306565b86555062000403565b601f198416620003ac8662000148565b60005b82811015620003d657848901518255600182019150602085019450602081019050620003af565b86831015620003f65784890151620003f2601f891682620002e6565b8355505b6001600288020188555050505b505050505050565b613437806200041b6000396000f3fe608060405234801561001057600080fd5b50600436106101005760003560e01c806395d89b4111610097578063c87b56dd11610066578063c87b56dd146102bd578063d204c45e146102ed578063d31af48414610309578063e985e9c51461032557610100565b806395d89b4114610237578063a22cb46514610255578063ac9650d814610271578063b88d4fde146102a157610100565b806323b872dd116100d357806323b872dd1461019f57806342842e0e146101bb5780636352211e146101d757806370a082311461020757610100565b806301ffc9a71461010557806306fdde0314610135578063081812fc14610153578063095ea7b314610183575b600080fd5b61011f600480360381019061011a9190611e71565b610355565b60405161012c9190611eb9565b60405180910390f35b61013d610367565b60405161014a9190611f64565b60405180910390f35b61016d60048036038101906101689190611fbc565b6103f9565b60405161017a919061202a565b60405180910390f35b61019d60048036038101906101989190612071565b61043f565b005b6101b960048036038101906101b491906120b1565b610556565b005b6101d560048036038101906101d091906120b1565b6105b6565b005b6101f160048036038101906101ec9190611fbc565b6105d6565b6040516101fe919061202a565b60405180910390f35b610221600480360381019061021c9190612104565b61065c565b60405161022e9190612140565b60405180910390f35b61023f610713565b60405161024c9190611f64565b60405180910390f35b61026f600480360381019061026a9190612187565b6107a5565b005b61028b6004803603810190610286919061222c565b6107bb565b6040516102989190612390565b60405180910390f35b6102bb60048036038101906102b691906124e2565b6108c7565b005b6102d760048036038101906102d29190611fbc565b610929565b6040516102e49190611f64565b60405180910390f35b61030760048036038101906103029190612606565b61093b565b005b610323600480360381019061031e9190612662565b6109ae565b005b61033f600480360381019061033a91906126be565b6109de565b60405161034c9190611eb9565b60405180910390f35b600061036082610a72565b9050919050565b6060600080546103769061272d565b80601f01602080910402602001604051908101604052809291908181526020018280546103a29061272d565b80156103ef5780601f106103c4576101008083540402835291602001916103ef565b820191906000526020600020905b8154815290600101906020018083116103d257829003601f168201915b5050505050905090565b600061040482610ad3565b6004600083815260200190815260200160002060009054906101000a900473ffffffffffffffffffffffffffffffffffffffff169050919050565b600061044a826105d6565b90508073ffffffffffffffffffffffffffffffffffffffff168373ffffffffffffffffffffffffffffffffffffffff16036104ba576040517f08c379a00000000000000000000000000000000000000000000000000000000081526004016104b1906127d0565b60405180910390fd5b8073ffffffffffffffffffffffffffffffffffffffff166104d9610b1e565b73ffffffffffffffffffffffffffffffffffffffff161480610508575061050781610502610b1e565b6109de565b5b610547576040517f08c379a000000000000000000000000000000000000000000000000000000000815260040161053e90612862565b60405180910390fd5b6105518383610b26565b505050565b610567610561610b1e565b82610bdf565b6105a6576040517f08c379a000000000000000000000000000000000000000000000000000000000815260040161059d906128f4565b60405180910390fd5b6105b1838383610c74565b505050565b6105d1838383604051806020016040528060008152506108c7565b505050565b6000806105e283610f6d565b9050600073ffffffffffffffffffffffffffffffffffffffff168173ffffffffffffffffffffffffffffffffffffffff1603610653576040517f08c379a000000000000000000000000000000000000000000000000000000000815260040161064a90612960565b60405180910390fd5b80915050919050565b60008073ffffffffffffffffffffffffffffffffffffffff168273ffffffffffffffffffffffffffffffffffffffff16036106cc576040517f08c379a00000000000000000000000000000000000000000000000000000000081526004016106c3906129f2565b60405180910390fd5b600360008373ffffffffffffffffffffffffffffffffffffffff1673ffffffffffffffffffffffffffffffffffffffff168152602001908152602001600020549050919050565b6060600180546107229061272d565b80601f016020809104026020016040519081016040528092919081815260200182805461074e9061272d565b801561079b5780601f106107705761010080835404028352916020019161079b565b820191906000526020600020905b81548152906001019060200180831161077e57829003601f168201915b5050505050905090565b6107b76107b0610b1e565b8383610faa565b5050565b60608282905067ffffffffffffffff8111156107da576107d96123b7565b5b60405190808252806020026020018201604052801561080d57816020015b60608152602001906001900390816107f85790505b50905060005b838390508110156108c05761088f3085858481811061083557610834612a12565b5b90506020028101906108479190612a50565b8080601f016020809104026020016040519081016040528093929190818152602001838380828437600081840152601f19601f82011690508083019250505050505050611116565b8282815181106108a2576108a1612a12565b5b602002602001018190525080806108b890612ae2565b915050610813565b5092915050565b6108d86108d2610b1e565b83610bdf565b610917576040517f08c379a000000000000000000000000000000000000000000000000000000000815260040161090e906128f4565b60405180910390fd5b61092384848484611143565b50505050565b60606109348261119f565b9050919050565b60006007600081548092919061095090612ae2565b91905055905061096083826112b1565b61096a81836112cf565b6109a96040518060400160405280601381526020017f4d696e74656420746f6b656e2069643a2025730000000000000000000000000081525082611373565b505050565b6109b882826112cf565b6109da6040518060600160405280602181526020016133ba6021913983611373565b5050565b6000600560008473ffffffffffffffffffffffffffffffffffffffff1673ffffffffffffffffffffffffffffffffffffffff16815260200190815260200160002060008373ffffffffffffffffffffffffffffffffffffffff1673ffffffffffffffffffffffffffffffffffffffff16815260200190815260200160002060009054906101000a900460ff16905092915050565b6000634906490660e01b7bffffffffffffffffffffffffffffffffffffffffffffffffffffffff1916827bffffffffffffffffffffffffffffffffffffffffffffffffffffffff19161480610acc5750610acb8261140f565b5b9050919050565b610adc816114f1565b610b1b576040517f08c379a0000000000000000000000000000000000000000000000000000000008152600401610b1290612960565b60405180910390fd5b50565b600033905090565b816004600083815260200190815260200160002060006101000a81548173ffffffffffffffffffffffffffffffffffffffff021916908373ffffffffffffffffffffffffffffffffffffffff160217905550808273ffffffffffffffffffffffffffffffffffffffff16610b99836105d6565b73ffffffffffffffffffffffffffffffffffffffff167f8c5be1e5ebec7d5bd14f71427d1e84f3dd0314c0f7b2291e5b200ac8c7c3b92560405160405180910390a45050565b600080610beb836105d6565b90508073ffffffffffffffffffffffffffffffffffffffff168473ffffffffffffffffffffffffffffffffffffffff161480610c2d5750610c2c81856109de565b5b80610c6b57508373ffffffffffffffffffffffffffffffffffffffff16610c53846103f9565b73ffffffffffffffffffffffffffffffffffffffff16145b91505092915050565b8273ffffffffffffffffffffffffffffffffffffffff16610c94826105d6565b73ffffffffffffffffffffffffffffffffffffffff1614610cea576040517f08c379a0000000000000000000000000000000000000000000000000000000008152600401610ce190612b9c565b60405180910390fd5b600073ffffffffffffffffffffffffffffffffffffffff168273ffffffffffffffffffffffffffffffffffffffff1603610d59576040517f08c379a0000000000000000000000000000000000000000000000000000000008152600401610d5090612c2e565b60405180910390fd5b610d668383836001611532565b8273ffffffffffffffffffffffffffffffffffffffff16610d86826105d6565b73ffffffffffffffffffffffffffffffffffffffff1614610ddc576040517f08c379a0000000000000000000000000000000000000000000000000000000008152600401610dd390612b9c565b60405180910390fd5b6004600082815260200190815260200160002060006101000a81549073ffffffffffffffffffffffffffffffffffffffff02191690556001600360008573ffffffffffffffffffffffffffffffffffffffff1673ffffffffffffffffffffffffffffffffffffffff168152602001908152602001600020600082825403925050819055506001600360008473ffffffffffffffffffffffffffffffffffffffff1673ffffffffffffffffffffffffffffffffffffffff16815260200190815260200160002060008282540192505081905550816002600083815260200190815260200160002060006101000a81548173ffffffffffffffffffffffffffffffffffffffff021916908373ffffffffffffffffffffffffffffffffffffffff160217905550808273ffffffffffffffffffffffffffffffffffffffff168473ffffffffffffffffffffffffffffffffffffffff167fddf252ad1be2c89b69c2b068fc378daa952ba7f163c4a11628f55a4df523b3ef60405160405180910390a4610f688383836001611538565b505050565b60006002600083815260200190815260200160002060009054906101000a900473ffffffffffffffffffffffffffffffffffffffff169050919050565b8173ffffffffffffffffffffffffffffffffffffffff168373ffffffffffffffffffffffffffffffffffffffff1603611018576040517f08c379a000000000000000000000000000000000000000000000000000000000815260040161100f90612c9a565b60405180910390fd5b80600560008573ffffffffffffffffffffffffffffffffffffffff1673ffffffffffffffffffffffffffffffffffffffff16815260200190815260200160002060008473ffffffffffffffffffffffffffffffffffffffff1673ffffffffffffffffffffffffffffffffffffffff16815260200190815260200160002060006101000a81548160ff0219169083151502179055508173ffffffffffffffffffffffffffffffffffffffff168373ffffffffffffffffffffffffffffffffffffffff167f17307eab39ab6107e8899845ad3d59bd9653f200f220920489ca2b5937696c31836040516111099190611eb9565b60405180910390a3505050565b606061113b83836040518060600160405280602781526020016133db6027913961153e565b905092915050565b61114e848484610c74565b61115a848484846115c4565b611199576040517f08c379a000000000000000000000000000000000000000000000000000000000815260040161119090612d2c565b60405180910390fd5b50505050565b60606111aa82610ad3565b60006006600084815260200190815260200160002080546111ca9061272d565b80601f01602080910402602001604051908101604052809291908181526020018280546111f69061272d565b80156112435780601f1061121857610100808354040283529160200191611243565b820191906000526020600020905b81548152906001019060200180831161122657829003601f168201915b50505050509050600061125461174b565b905060008151036112695781925050506112ac565b60008251111561129e578082604051602001611286929190612d88565b604051602081830303815290604052925050506112ac565b6112a784611762565b925050505b919050565b6112cb8282604051806020016040528060008152506117ca565b5050565b6112d8826114f1565b611317576040517f08c379a000000000000000000000000000000000000000000000000000000000815260040161130e90612e1e565b60405180910390fd5b806006600084815260200190815260200160002090816113379190612fea565b507ff8e1a15aba9398e019f0b49df1a4fde98ee17ae345cb5f6b5e2c27f5033e8ce7826040516113679190612140565b60405180910390a15050565b61140b82826040516024016113899291906130bc565b6040516020818303038152906040527fb60e72cc000000000000000000000000000000000000000000000000000000007bffffffffffffffffffffffffffffffffffffffffffffffffffffffff19166020820180517bffffffffffffffffffffffffffffffffffffffffffffffffffffffff8381831617835250505050611825565b5050565b60007f80ac58cd000000000000000000000000000000000000000000000000000000007bffffffffffffffffffffffffffffffffffffffffffffffffffffffff1916827bffffffffffffffffffffffffffffffffffffffffffffffffffffffff191614806114da57507f5b5e139f000000000000000000000000000000000000000000000000000000007bffffffffffffffffffffffffffffffffffffffffffffffffffffffff1916827bffffffffffffffffffffffffffffffffffffffffffffffffffffffff1916145b806114ea57506114e98261183f565b5b9050919050565b60008073ffffffffffffffffffffffffffffffffffffffff1661151383610f6d565b73ffffffffffffffffffffffffffffffffffffffff1614159050919050565b50505050565b50505050565b60606000808573ffffffffffffffffffffffffffffffffffffffff16856040516115689190613128565b600060405180830381855af49150503d80600081146115a3576040519150601f19603f3d011682016040523d82523d6000602084013e6115a8565b606091505b50915091506115b9868383876118a9565b925050509392505050565b60006115e58473ffffffffffffffffffffffffffffffffffffffff1661191e565b1561173e578373ffffffffffffffffffffffffffffffffffffffff1663150b7a0261160e610b1e565b8786866040518563ffffffff1660e01b81526004016116309493929190613189565b6020604051808303816000875af192505050801561166c57506040513d601f19601f8201168201806040525081019061166991906131ea565b60015b6116ee573d806000811461169c576040519150601f19603f3d011682016040523d82523d6000602084013e6116a1565b606091505b5060008151036116e6576040517f08c379a00000000000000000000000000000000000000000000000000000000081526004016116dd90612d2c565b60405180910390fd5b805181602001fd5b63150b7a0260e01b7bffffffffffffffffffffffffffffffffffffffffffffffffffffffff1916817bffffffffffffffffffffffffffffffffffffffffffffffffffffffff191614915050611743565b600190505b949350505050565b606060405180602001604052806000815250905090565b606061176d82610ad3565b600061177761174b565b9050600081511161179757604051806020016040528060008152506117c2565b806117a184611941565b6040516020016117b2929190612d88565b6040516020818303038152906040525b915050919050565b6117d48383611a0f565b6117e160008484846115c4565b611820576040517f08c379a000000000000000000000000000000000000000000000000000000000815260040161181790612d2c565b60405180910390fd5b505050565b61183c81611834611c2c611c4d565b63ffffffff16565b50565b60007f01ffc9a7000000000000000000000000000000000000000000000000000000007bffffffffffffffffffffffffffffffffffffffffffffffffffffffff1916827bffffffffffffffffffffffffffffffffffffffffffffffffffffffff1916149050919050565b6060831561190b576000835103611903576118c38561191e565b611902576040517f08c379a00000000000000000000000000000000000000000000000000000000081526004016118f990613263565b60405180910390fd5b5b829050611916565b6119158383611c58565b5b949350505050565b6000808273ffffffffffffffffffffffffffffffffffffffff163b119050919050565b60606000600161195084611ca8565b01905060008167ffffffffffffffff81111561196f5761196e6123b7565b5b6040519080825280601f01601f1916602001820160405280156119a15781602001600182028036833780820191505090505b509050600082602001820190505b600115611a04578080600190039150507f3031323334353637383961626364656600000000000000000000000000000000600a86061a8153600a85816119f8576119f7613283565b5b049450600085036119af575b819350505050919050565b600073ffffffffffffffffffffffffffffffffffffffff168273ffffffffffffffffffffffffffffffffffffffff1603611a7e576040517f08c379a0000000000000000000000000000000000000000000000000000000008152600401611a75906132fe565b60405180910390fd5b611a87816114f1565b15611ac7576040517f08c379a0000000000000000000000000000000000000000000000000000000008152600401611abe9061336a565b60405180910390fd5b611ad5600083836001611532565b611ade816114f1565b15611b1e576040517f08c379a0000000000000000000000000000000000000000000000000000000008152600401611b159061336a565b60405180910390fd5b6001600360008473ffffffffffffffffffffffffffffffffffffffff1673ffffffffffffffffffffffffffffffffffffffff16815260200190815260200160002060008282540192505081905550816002600083815260200190815260200160002060006101000a81548173ffffffffffffffffffffffffffffffffffffffff021916908373ffffffffffffffffffffffffffffffffffffffff160217905550808273ffffffffffffffffffffffffffffffffffffffff16600073ffffffffffffffffffffffffffffffffffffffff167fddf252ad1be2c89b69c2b068fc378daa952ba7f163c4a11628f55a4df523b3ef60405160405180910390a4611c28600083836001611538565b5050565b60006a636f6e736f6c652e6c6f679050600080835160208501845afa505050565b611dfb819050919050565b600082511115611c6b5781518083602001fd5b806040517f08c379a0000000000000000000000000000000000000000000000000000000008152600401611c9f9190611f64565b60405180910390fd5b600080600090507a184f03e93ff9f4daa797ed6e38ed64bf6a1f0100000000000000008310611d06577a184f03e93ff9f4daa797ed6e38ed64bf6a1f0100000000000000008381611cfc57611cfb613283565b5b0492506040810190505b6d04ee2d6d415b85acef81000000008310611d43576d04ee2d6d415b85acef81000000008381611d3957611d38613283565b5b0492506020810190505b662386f26fc100008310611d7257662386f26fc100008381611d6857611d67613283565b5b0492506010810190505b6305f5e1008310611d9b576305f5e1008381611d9157611d90613283565b5b0492506008810190505b6127108310611dc0576127108381611db657611db5613283565b5b0492506004810190505b60648310611de35760648381611dd957611dd8613283565b5b0492506002810190505b600a8310611df2576001810190505b80915050919050565b611e0361338a565b565b6000604051905090565b600080fd5b600080fd5b60007fffffffff0000000000000000000000000000000000000000000000000000000082169050919050565b611e4e81611e19565b8114611e5957600080fd5b50565b600081359050611e6b81611e45565b92915050565b600060208284031215611e8757611e86611e0f565b5b6000611e9584828501611e5c565b91505092915050565b60008115159050919050565b611eb381611e9e565b82525050565b6000602082019050611ece6000830184611eaa565b92915050565b600081519050919050565b600082825260208201905092915050565b60005b83811015611f0e578082015181840152602081019050611ef3565b60008484015250505050565b6000601f19601f8301169050919050565b6000611f3682611ed4565b611f408185611edf565b9350611f50818560208601611ef0565b611f5981611f1a565b840191505092915050565b60006020820190508181036000830152611f7e8184611f2b565b905092915050565b6000819050919050565b611f9981611f86565b8114611fa457600080fd5b50565b600081359050611fb681611f90565b92915050565b600060208284031215611fd257611fd1611e0f565b5b6000611fe084828501611fa7565b91505092915050565b600073ffffffffffffffffffffffffffffffffffffffff82169050919050565b600061201482611fe9565b9050919050565b61202481612009565b82525050565b600060208201905061203f600083018461201b565b92915050565b61204e81612009565b811461205957600080fd5b50565b60008135905061206b81612045565b92915050565b6000806040838503121561208857612087611e0f565b5b60006120968582860161205c565b92505060206120a785828601611fa7565b9150509250929050565b6000806000606084860312156120ca576120c9611e0f565b5b60006120d88682870161205c565b93505060206120e98682870161205c565b92505060406120fa86828701611fa7565b9150509250925092565b60006020828403121561211a57612119611e0f565b5b60006121288482850161205c565b91505092915050565b61213a81611f86565b82525050565b60006020820190506121556000830184612131565b92915050565b61216481611e9e565b811461216f57600080fd5b50565b6000813590506121818161215b565b92915050565b6000806040838503121561219e5761219d611e0f565b5b60006121ac8582860161205c565b92505060206121bd85828601612172565b9150509250929050565b600080fd5b600080fd5b600080fd5b60008083601f8401126121ec576121eb6121c7565b5b8235905067ffffffffffffffff811115612209576122086121cc565b5b602083019150836020820283011115612225576122246121d1565b5b9250929050565b6000806020838503121561224357612242611e0f565b5b600083013567ffffffffffffffff81111561226157612260611e14565b5b61226d858286016121d6565b92509250509250929050565b600081519050919050565b600082825260208201905092915050565b6000819050602082019050919050565b600081519050919050565b600082825260208201905092915050565b60006122cc826122a5565b6122d681856122b0565b93506122e6818560208601611ef0565b6122ef81611f1a565b840191505092915050565b600061230683836122c1565b905092915050565b6000602082019050919050565b600061232682612279565b6123308185612284565b93508360208202850161234285612295565b8060005b8581101561237e578484038952815161235f85826122fa565b945061236a8361230e565b925060208a01995050600181019050612346565b50829750879550505050505092915050565b600060208201905081810360008301526123aa818461231b565b905092915050565b600080fd5b7f4e487b7100000000000000000000000000000000000000000000000000000000600052604160045260246000fd5b6123ef82611f1a565b810181811067ffffffffffffffff8211171561240e5761240d6123b7565b5b80604052505050565b6000612421611e05565b905061242d82826123e6565b919050565b600067ffffffffffffffff82111561244d5761244c6123b7565b5b61245682611f1a565b9050602081019050919050565b82818337600083830152505050565b600061248561248084612432565b612417565b9050828152602081018484840111156124a1576124a06123b2565b5b6124ac848285612463565b509392505050565b600082601f8301126124c9576124c86121c7565b5b81356124d9848260208601612472565b91505092915050565b600080600080608085870312156124fc576124fb611e0f565b5b600061250a8782880161205c565b945050602061251b8782880161205c565b935050604061252c87828801611fa7565b925050606085013567ffffffffffffffff81111561254d5761254c611e14565b5b612559878288016124b4565b91505092959194509250565b600067ffffffffffffffff8211156125805761257f6123b7565b5b61258982611f1a565b9050602081019050919050565b60006125a96125a484612565565b612417565b9050828152602081018484840111156125c5576125c46123b2565b5b6125d0848285612463565b509392505050565b600082601f8301126125ed576125ec6121c7565b5b81356125fd848260208601612596565b91505092915050565b6000806040838503121561261d5761261c611e0f565b5b600061262b8582860161205c565b925050602083013567ffffffffffffffff81111561264c5761264b611e14565b5b612658858286016125d8565b9150509250929050565b6000806040838503121561267957612678611e0f565b5b600061268785828601611fa7565b925050602083013567ffffffffffffffff8111156126a8576126a7611e14565b5b6126b4858286016125d8565b9150509250929050565b600080604083850312156126d5576126d4611e0f565b5b60006126e38582860161205c565b92505060206126f48582860161205c565b9150509250929050565b7f4e487b7100000000000000000000000000000000000000000000000000000000600052602260045260246000fd5b6000600282049050600182168061274557607f821691505b602082108103612758576127576126fe565b5b50919050565b7f4552433732313a20617070726f76616c20746f2063757272656e74206f776e6560008201527f7200000000000000000000000000000000000000000000000000000000000000602082015250565b60006127ba602183611edf565b91506127c58261275e565b604082019050919050565b600060208201905081810360008301526127e9816127ad565b9050919050565b7f4552433732313a20617070726f76652063616c6c6572206973206e6f7420746f60008201527f6b656e206f776e6572206f7220617070726f76656420666f7220616c6c000000602082015250565b600061284c603d83611edf565b9150612857826127f0565b604082019050919050565b6000602082019050818103600083015261287b8161283f565b9050919050565b7f4552433732313a2063616c6c6572206973206e6f7420746f6b656e206f776e6560008201527f72206f7220617070726f76656400000000000000000000000000000000000000602082015250565b60006128de602d83611edf565b91506128e982612882565b604082019050919050565b6000602082019050818103600083015261290d816128d1565b9050919050565b7f4552433732313a20696e76616c696420746f6b656e2049440000000000000000600082015250565b600061294a601883611edf565b915061295582612914565b602082019050919050565b600060208201905081810360008301526129798161293d565b9050919050565b7f4552433732313a2061646472657373207a65726f206973206e6f74206120766160008201527f6c6964206f776e65720000000000000000000000000000000000000000000000602082015250565b60006129dc602983611edf565b91506129e782612980565b604082019050919050565b60006020820190508181036000830152612a0b816129cf565b9050919050565b7f4e487b7100000000000000000000000000000000000000000000000000000000600052603260045260246000fd5b600080fd5b600080fd5b600080fd5b60008083356001602003843603038112612a6d57612a6c612a41565b5b80840192508235915067ffffffffffffffff821115612a8f57612a8e612a46565b5b602083019250600182023603831315612aab57612aaa612a4b565b5b509250929050565b7f4e487b7100000000000000000000000000000000000000000000000000000000600052601160045260246000fd5b6000612aed82611f86565b91507fffffffffffffffffffffffffffffffffffffffffffffffffffffffffffffffff8203612b1f57612b1e612ab3565b5b600182019050919050565b7f4552433732313a207472616e736665722066726f6d20696e636f72726563742060008201527f6f776e6572000000000000000000000000000000000000000000000000000000602082015250565b6000612b86602583611edf565b9150612b9182612b2a565b604082019050919050565b60006020820190508181036000830152612bb581612b79565b9050919050565b7f4552433732313a207472616e7366657220746f20746865207a65726f2061646460008201527f7265737300000000000000000000000000000000000000000000000000000000602082015250565b6000612c18602483611edf565b9150612c2382612bbc565b604082019050919050565b60006020820190508181036000830152612c4781612c0b565b9050919050565b7f4552433732313a20617070726f766520746f2063616c6c657200000000000000600082015250565b6000612c84601983611edf565b9150612c8f82612c4e565b602082019050919050565b60006020820190508181036000830152612cb381612c77565b9050919050565b7f4552433732313a207472616e7366657220746f206e6f6e20455243373231526560008201527f63656976657220696d706c656d656e7465720000000000000000000000000000602082015250565b6000612d16603283611edf565b9150612d2182612cba565b604082019050919050565b60006020820190508181036000830152612d4581612d09565b9050919050565b600081905092915050565b6000612d6282611ed4565b612d6c8185612d4c565b9350612d7c818560208601611ef0565b80840191505092915050565b6000612d948285612d57565b9150612da08284612d57565b91508190509392505050565b7f45524337323155524953746f726167653a2055524920736574206f66206e6f6e60008201527f6578697374656e7420746f6b656e000000000000000000000000000000000000602082015250565b6000612e08602e83611edf565b9150612e1382612dac565b604082019050919050565b60006020820190508181036000830152612e3781612dfb565b9050919050565b60008190508160005260206000209050919050565b60006020601f8301049050919050565b600082821b905092915050565b600060088302612ea07fffffffffffffffffffffffffffffffffffffffffffffffffffffffffffffffff82612e63565b612eaa8683612e63565b95508019841693508086168417925050509392505050565b6000819050919050565b6000612ee7612ee2612edd84611f86565b612ec2565b611f86565b9050919050565b6000819050919050565b612f0183612ecc565b612f15612f0d82612eee565b848454612e70565b825550505050565b600090565b612f2a612f1d565b612f35818484612ef8565b505050565b5b81811015612f5957612f4e600082612f22565b600181019050612f3b565b5050565b601f821115612f9e57612f6f81612e3e565b612f7884612e53565b81016020851015612f87578190505b612f9b612f9385612e53565b830182612f3a565b50505b505050565b600082821c905092915050565b6000612fc160001984600802612fa3565b1980831691505092915050565b6000612fda8383612fb0565b9150826002028217905092915050565b612ff382611ed4565b67ffffffffffffffff81111561300c5761300b6123b7565b5b613016825461272d565b613021828285612f5d565b600060209050601f8311600181146130545760008415613042578287015190505b61304c8582612fce565b8655506130b4565b601f19841661306286612e3e565b60005b8281101561308a57848901518255600182019150602085019450602081019050613065565b868310156130a757848901516130a3601f891682612fb0565b8355505b6001600288020188555050505b505050505050565b600060408201905081810360008301526130d68185611f2b565b90506130e56020830184612131565b9392505050565b600081905092915050565b6000613102826122a5565b61310c81856130ec565b935061311c818560208601611ef0565b80840191505092915050565b600061313482846130f7565b915081905092915050565b600082825260208201905092915050565b600061315b826122a5565b613165818561313f565b9350613175818560208601611ef0565b61317e81611f1a565b840191505092915050565b600060808201905061319e600083018761201b565b6131ab602083018661201b565b6131b86040830185612131565b81810360608301526131ca8184613150565b905095945050505050565b6000815190506131e481611e45565b92915050565b600060208284031215613200576131ff611e0f565b5b600061320e848285016131d5565b91505092915050565b7f416464726573733a2063616c6c20746f206e6f6e2d636f6e7472616374000000600082015250565b600061324d601d83611edf565b915061325882613217565b602082019050919050565b6000602082019050818103600083015261327c81613240565b9050919050565b7f4e487b7100000000000000000000000000000000000000000000000000000000600052601260045260246000fd5b7f4552433732313a206d696e7420746f20746865207a65726f2061646472657373600082015250565b60006132e8602083611edf565b91506132f3826132b2565b602082019050919050565b60006020820190508181036000830152613317816132db565b9050919050565b7f4552433732313a20746f6b656e20616c7265616479206d696e74656400000000600082015250565b6000613354601c83611edf565b915061335f8261331e565b602082019050919050565b6000602082019050818103600083015261338381613347565b9050919050565b7f4e487b7100000000000000000000000000000000000000000000000000000000600052605160045260246000fdfe546f6b656e55726920757064617465642e2e2e20746f6b656e2069642023202573416464726573733a206c6f772d6c6576656c2064656c65676174652063616c6c206661696c6564a264697066735822122084e3b9267fa7a42f2fef4cb95e36f1375d30fa6b97b2709f4ea9b6f6e267179b64736f6c63430008130033",
  "linkReferences": {},
  "deployedLinkReferences": {}
}