{
  "_format": "hh-sol-artifact-1",
  "contractName": "CoffeePOAP",
  "sourceName": "contracts/CoffeePOAP.sol",
  "abi": [
    {
      "inputs": [
        {
          "internalType": "address",
          "name": "_initCouponAddress",
          "type": "address"
        }
      ],
      "stateMutability": "nonpayable",
      "type": "constructor"
    },
    {
      "inputs": [],
      "name": "OnlySimulatedBackend",
      "type": "error"
    },
    {
      "anonymous": false,
      "inputs": [
        {
          "indexed": true,
          "internalType": "address",
          "name": "owner",
          "type": "address"
        },
        {
          "indexed": true,
          "internalType": "address",
          "name": "approved",
          "type": "address"
        },
        {
          "indexed": true,
          "internalType": "uint256",
          "name": "tokenId",
          "type": "uint256"
        }
      ],
      "name": "Approval",
      "type": "event"
    },
    {
      "anonymous": false,
      "inputs": [
        {
          "indexed": true,
          "internalType": "address",
          "name": "owner",
          "type": "address"
        },
        {
          "indexed": true,
          "internalType": "address",
          "name": "operator",
          "type": "address"
        },
        {
          "indexed": false,
          "internalType": "bool",
          "name": "approved",
          "type": "bool"
        }
      ],
      "name": "ApprovalForAll",
      "type": "event"
    },
    {
      "anonymous": false,
      "inputs": [
        {
          "indexed": false,
          "internalType": "uint256",
          "name": "_fromTokenId",
          "type": "uint256"
        },
        {
          "indexed": false,
          "internalType": "uint256",
          "name": "_toTokenId",
          "type": "uint256"
        }
      ],
      "name": "BatchMetadataUpdate",
      "type": "event"
    },
    {
      "anonymous": false,
      "inputs": [
        {
          "indexed": false,
          "internalType": "uint256",
          "name": "_tokenId",
          "type": "uint256"
        }
      ],
      "name": "MetadataUpdate",
      "type": "event"
    },
    {
      "anonymous": false,
      "inputs": [
        {
          "indexed": true,
          "internalType": "address",
          "name": "previousOwner",
          "type": "address"
        },
        {
          "indexed": true,
          "internalType": "address",
          "name": "newOwner",
          "type": "address"
        }
      ],
      "name": "OwnershipTransferred",
      "type": "event"
    },
    {
      "anonymous": false,
      "inputs": [
        {
          "indexed": false,
          "internalType": "address[]",
          "name": "owners",
          "type": "address[]"
        }
      ],
      "name": "PerformEvent",
      "type": "event"
    },
    {
      "anonymous": false,
      "inputs": [
        {
          "indexed": true,
          "internalType": "address",
          "name": "from",
          "type": "address"
        },
        {
          "indexed": true,
          "internalType": "address",
          "name": "to",
          "type": "address"
        },
        {
          "indexed": true,
          "internalType": "uint256",
          "name": "tokenId",
          "type": "uint256"
        }
      ],
      "name": "Transfer",
      "type": "event"
    },
    {
      "inputs": [
        {
          "internalType": "address",
          "name": "to",
          "type": "address"
        },
        {
          "internalType": "uint256",
          "name": "tokenId",
          "type": "uint256"
        }
      ],
      "name": "approve",
      "outputs": [],
      "stateMutability": "nonpayable",
      "type": "function"
    },
    {
      "inputs": [
        {
          "internalType": "address",
          "name": "owner",
          "type": "address"
        }
      ],
      "name": "balanceOf",
      "outputs": [
        {
          "internalType": "uint256",
          "name": "",
          "type": "uint256"
        }
      ],
      "stateMutability": "view",
      "type": "function"
    },
    {
      "inputs": [
        {
          "internalType": "address",
          "name": "",
          "type": "address"
        }
      ],
      "name": "benefitOwned",
      "outputs": [
        {
          "internalType": "bool",
          "name": "",
          "type": "bool"
        }
      ],
      "stateMutability": "view",
      "type": "function"
    },
    {
      "inputs": [
        {
          "internalType": "uint256",
          "name": "tokenId",
          "type": "uint256"
        }
      ],
      "name": "burn",
      "outputs": [],
      "stateMutability": "nonpayable",
      "type": "function"
    },
    {
      "inputs": [
        {
          "internalType": "bytes",
          "name": "",
          "type": "bytes"
        }
      ],
      "name": "checkUpkeep",
      "outputs": [
        {
          "internalType": "bool",
          "name": "upkeepNeeded",
          "type": "bool"
        },
        {
          "internalType": "bytes",
          "name": "performData",
          "type": "bytes"
        }
      ],
      "stateMutability": "view",
      "type": "function"
    },
    {
      "inputs": [],
      "name": "couponAddress",
      "outputs": [
        {
          "internalType": "address",
          "name": "",
          "type": "address"
        }
      ],
      "stateMutability": "view",
      "type": "function"
    },
    {
      "inputs": [
        {
          "internalType": "uint256",
          "name": "tokenId",
          "type": "uint256"
        }
      ],
      "name": "getApproved",
      "outputs": [
        {
          "internalType": "address",
          "name": "",
          "type": "address"
        }
      ],
      "stateMutability": "view",
      "type": "function"
    },
    {
      "inputs": [
        {
          "internalType": "address",
          "name": "owner",
          "type": "address"
        },
        {
          "internalType": "address",
          "name": "operator",
          "type": "address"
        }
      ],
      "name": "isApprovedForAll",
      "outputs": [
        {
          "internalType": "bool",
          "name": "",
          "type": "bool"
        }
      ],
      "stateMutability": "view",
      "type": "function"
    },
    {
      "inputs": [],
      "name": "mintNeeded",
      "outputs": [
        {
          "internalType": "uint256",
          "name": "",
          "type": "uint256"
        }
      ],
      "stateMutability": "view",
      "type": "function"
    },
    {
      "inputs": [],
      "name": "name",
      "outputs": [
        {
          "internalType": "string",
          "name": "",
          "type": "string"
        }
      ],
      "stateMutability": "view",
      "type": "function"
    },
    {
      "inputs": [],
      "name": "owner",
      "outputs": [
        {
          "internalType": "address",
          "name": "",
          "type": "address"
        }
      ],
      "stateMutability": "view",
      "type": "function"
    },
    {
      "inputs": [
        {
          "internalType": "uint256",
          "name": "tokenId",
          "type": "uint256"
        }
      ],
      "name": "ownerOf",
      "outputs": [
        {
          "internalType": "address",
          "name": "",
          "type": "address"
        }
      ],
      "stateMutability": "view",
      "type": "function"
    },
    {
      "inputs": [
        {
          "internalType": "bool",
          "name": "_state",
          "type": "bool"
        }
      ],
      "name": "pause",
      "outputs": [],
      "stateMutability": "nonpayable",
      "type": "function"
    },
    {
      "inputs": [],
      "name": "paused",
      "outputs": [
        {
          "internalType": "bool",
          "name": "",
          "type": "bool"
        }
      ],
      "stateMutability": "view",
      "type": "function"
    },
    {
      "inputs": [
        {
          "internalType": "bytes",
          "name": "performData",
          "type": "bytes"
        }
      ],
      "name": "performUpkeep",
      "outputs": [],
      "stateMutability": "nonpayable",
      "type": "function"
    },
    {
      "inputs": [],
      "name": "renounceOwnership",
      "outputs": [],
      "stateMutability": "nonpayable",
      "type": "function"
    },
    {
      "inputs": [],
      "name": "requiredAmount",
      "outputs": [
        {
          "internalType": "uint256",
          "name": "",
          "type": "uint256"
        }
      ],
      "stateMutability": "view",
      "type": "function"
    },
    {
      "inputs": [
        {
          "internalType": "address",
          "name": "from",
          "type": "address"
        },
        {
          "internalType": "address",
          "name": "to",
          "type": "address"
        },
        {
          "internalType": "uint256",
          "name": "tokenId",
          "type": "uint256"
        }
      ],
      "name": "safeTransferFrom",
      "outputs": [],
      "stateMutability": "nonpayable",
      "type": "function"
    },
    {
      "inputs": [
        {
          "internalType": "address",
          "name": "from",
          "type": "address"
        },
        {
          "internalType": "address",
          "name": "to",
          "type": "address"
        },
        {
          "internalType": "uint256",
          "name": "tokenId",
          "type": "uint256"
        },
        {
          "internalType": "bytes",
          "name": "data",
          "type": "bytes"
        }
      ],
      "name": "safeTransferFrom",
      "outputs": [],
      "stateMutability": "nonpayable",
      "type": "function"
    },
    {
      "inputs": [
        {
          "internalType": "address",
          "name": "operator",
          "type": "address"
        },
        {
          "internalType": "bool",
          "name": "approved",
          "type": "bool"
        }
      ],
      "name": "setApprovalForAll",
      "outputs": [],
      "stateMutability": "nonpayable",
      "type": "function"
    },
    {
      "inputs": [
        {
          "internalType": "string",
          "name": "_newBaseURI",
          "type": "string"
        }
      ],
      "name": "setBaseURI",
      "outputs": [],
      "stateMutability": "nonpayable",
      "type": "function"
    },
    {
      "inputs": [
        {
          "internalType": "address",
          "name": "_newAddress",
          "type": "address"
        }
      ],
      "name": "setCouponAddress",
      "outputs": [],
      "stateMutability": "nonpayable",
      "type": "function"
    },
    {
      "inputs": [
        {
          "internalType": "bytes4",
          "name": "interfaceId",
          "type": "bytes4"
        }
      ],
      "name": "supportsInterface",
      "outputs": [
        {
          "internalType": "bool",
          "name": "",
          "type": "bool"
        }
      ],
      "stateMutability": "view",
      "type": "function"
    },
    {
      "inputs": [],
      "name": "symbol",
      "outputs": [
        {
          "internalType": "string",
          "name": "",
          "type": "string"
        }
      ],
      "stateMutability": "view",
      "type": "function"
    },
    {
      "inputs": [
        {
          "internalType": "uint256",
          "name": "index",
          "type": "uint256"
        }
      ],
      "name": "tokenByIndex",
      "outputs": [
        {
          "internalType": "uint256",
          "name": "",
          "type": "uint256"
        }
      ],
      "stateMutability": "view",
      "type": "function"
    },
    {
      "inputs": [
        {
          "internalType": "address",
          "name": "owner",
          "type": "address"
        },
        {
          "internalType": "uint256",
          "name": "index",
          "type": "uint256"
        }
      ],
      "name": "tokenOfOwnerByIndex",
      "outputs": [
        {
          "internalType": "uint256",
          "name": "",
          "type": "uint256"
        }
      ],
      "stateMutability": "view",
      "type": "function"
    },
    {
      "inputs": [
        {
          "internalType": "uint256",
          "name": "_tokenId",
          "type": "uint256"
        }
      ],
      "name": "tokenURI",
      "outputs": [
        {
          "internalType": "string",
          "name": "",
          "type": "string"
        }
      ],
      "stateMutability": "view",
      "type": "function"
    },
    {
      "inputs": [
        {
          "internalType": "address",
          "name": "owner",
          "type": "address"
        }
      ],
      "name": "totalCouponBalance",
      "outputs": [
        {
          "internalType": "uint256",
          "name": "",
          "type": "uint256"
        }
      ],
      "stateMutability": "view",
      "type": "function"
    },
    {
      "inputs": [],
      "name": "totalSupply",
      "outputs": [
        {
          "internalType": "uint256",
          "name": "",
          "type": "uint256"
        }
      ],
      "stateMutability": "view",
      "type": "function"
    },
    {
      "inputs": [
        {
          "internalType": "address",
          "name": "from",
          "type": "address"
        },
        {
          "internalType": "address",
          "name": "to",
          "type": "address"
        },
        {
          "internalType": "uint256",
          "name": "tokenId",
          "type": "uint256"
        }
      ],
      "name": "transferFrom",
      "outputs": [],
      "stateMutability": "nonpayable",
      "type": "function"
    },
    {
      "inputs": [
        {
          "internalType": "address",
          "name": "newOwner",
          "type": "address"
        }
      ],
      "name": "transferOwnership",
      "outputs": [],
      "stateMutability": "nonpayable",
      "type": "function"
    }
  ],
  "bytecode": "0x60806040526002600d556000600e60006101000a81548160ff0219169083151502179055506000600f5560405180604001604052806040518060a0016040528060798152602001620052e06079913981526020016040518060a00160405280607981526020016200535960799139815250601090600262000082929190620004d2565b503480156200009057600080fd5b50604051620053d2380380620053d28339818101604052810190620000b6919062000629565b6040518060400160405280600981526020017f504f4150546f6b656e00000000000000000000000000000000000000000000008152506040518060400160405280600381526020017f50544b00000000000000000000000000000000000000000000000000000000008152508160009081620001339190620008d5565b508060019081620001459190620008d5565b505050620001686200015c6200021a60201b60201c565b6200022260201b60201c565b6200017981620002e860201b60201c565b60005b6200018c6200033c60201b60201c565b8110156200021257600160116000620001ab846200034960201b60201c565b73ffffffffffffffffffffffffffffffffffffffff1673ffffffffffffffffffffffffffffffffffffffff16815260200190815260200160002060006101000a81548160ff02191690831515021790555080806200020990620009eb565b9150506200017c565b505062000b2d565b600033905090565b6000600b60009054906101000a900473ffffffffffffffffffffffffffffffffffffffff16905081600b60006101000a81548173ffffffffffffffffffffffffffffffffffffffff021916908373ffffffffffffffffffffffffffffffffffffffff1602179055508173ffffffffffffffffffffffffffffffffffffffff168173ffffffffffffffffffffffffffffffffffffffff167f8be0079c531659141344cd1fd0a4f28419497f9722a3daafe3b4186f6b6457e060405160405180910390a35050565b620002f8620003da60201b60201c565b80600e60016101000a81548173ffffffffffffffffffffffffffffffffffffffff021916908373ffffffffffffffffffffffffffffffffffffffff16021790555050565b6000600880549050905090565b6000806200035d836200046b60201b60201c565b9050600073ffffffffffffffffffffffffffffffffffffffff168173ffffffffffffffffffffffffffffffffffffffff1603620003d1576040517f08c379a0000000000000000000000000000000000000000000000000000000008152600401620003c89062000a99565b60405180910390fd5b80915050919050565b620003ea6200021a60201b60201c565b73ffffffffffffffffffffffffffffffffffffffff1662000410620004a860201b60201c565b73ffffffffffffffffffffffffffffffffffffffff161462000469576040517f08c379a0000000000000000000000000000000000000000000000000000000008152600401620004609062000b0b565b60405180910390fd5b565b60006002600083815260200190815260200160002060009054906101000a900473ffffffffffffffffffffffffffffffffffffffff169050919050565b6000600b60009054906101000a900473ffffffffffffffffffffffffffffffffffffffff16905090565b8280548282559060005260206000209081019282156200051f579160200282015b828111156200051e5782518290816200050d9190620008d5565b5091602001919060010190620004f3565b5b5090506200052e919062000532565b5090565b5b808211156200055657600081816200054c91906200055a565b5060010162000533565b5090565b5080546200056890620006c4565b6000825580601f106200057c57506200059d565b601f0160209004906000526020600020908101906200059c9190620005a0565b5b50565b5b80821115620005bb576000816000905550600101620005a1565b5090565b600080fd5b600073ffffffffffffffffffffffffffffffffffffffff82169050919050565b6000620005f182620005c4565b9050919050565b6200060381620005e4565b81146200060f57600080fd5b50565b6000815190506200062381620005f8565b92915050565b600060208284031215620006425762000641620005bf565b5b6000620006528482850162000612565b91505092915050565b600081519050919050565b7f4e487b7100000000000000000000000000000000000000000000000000000000600052604160045260246000fd5b7f4e487b7100000000000000000000000000000000000000000000000000000000600052602260045260246000fd5b60006002820490506001821680620006dd57607f821691505b602082108103620006f357620006f262000695565b5b50919050565b60008190508160005260206000209050919050565b60006020601f8301049050919050565b600082821b905092915050565b6000600883026200075d7fffffffffffffffffffffffffffffffffffffffffffffffffffffffffffffffff826200071e565b6200076986836200071e565b95508019841693508086168417925050509392505050565b6000819050919050565b6000819050919050565b6000620007b6620007b0620007aa8462000781565b6200078b565b62000781565b9050919050565b6000819050919050565b620007d28362000795565b620007ea620007e182620007bd565b8484546200072b565b825550505050565b600090565b62000801620007f2565b6200080e818484620007c7565b505050565b5b8181101562000836576200082a600082620007f7565b60018101905062000814565b5050565b601f82111562000885576200084f81620006f9565b6200085a846200070e565b810160208510156200086a578190505b6200088262000879856200070e565b83018262000813565b50505b505050565b600082821c905092915050565b6000620008aa600019846008026200088a565b1980831691505092915050565b6000620008c5838362000897565b9150826002028217905092915050565b620008e0826200065b565b67ffffffffffffffff811115620008fc57620008fb62000666565b5b620009088254620006c4565b620009158282856200083a565b600060209050601f8311600181146200094d576000841562000938578287015190505b620009448582620008b7565b865550620009b4565b601f1984166200095d86620006f9565b60005b82811015620009875784890151825560018201915060208501945060208101905062000960565b86831015620009a75784890151620009a3601f89168262000897565b8355505b6001600288020188555050505b505050505050565b7f4e487b7100000000000000000000000000000000000000000000000000000000600052601160045260246000fd5b6000620009f88262000781565b91507fffffffffffffffffffffffffffffffffffffffffffffffffffffffffffffffff820362000a2d5762000a2c620009bc565b5b600182019050919050565b600082825260208201905092915050565b7f4552433732313a20696e76616c696420746f6b656e2049440000000000000000600082015250565b600062000a8160188362000a38565b915062000a8e8262000a49565b602082019050919050565b6000602082019050818103600083015262000ab48162000a72565b9050919050565b7f4f776e61626c653a2063616c6c6572206973206e6f7420746865206f776e6572600082015250565b600062000af360208362000a38565b915062000b008262000abb565b602082019050919050565b6000602082019050818103600083015262000b268162000ae4565b9050919050565b6147a38062000b3d6000396000f3fe608060405234801561001057600080fd5b50600436106101e55760003560e01c80634f6ccce71161010f5780638da5cb5b116100a2578063b97e0d4411610071578063b97e0d441461058f578063c87b56dd146105ad578063e985e9c5146105dd578063f2fde38b1461060d576101e5565b80638da5cb5b1461051b57806395d89b4114610539578063a22cb46514610557578063b88d4fde14610573576101e5565b80636e04ff0d116100de5780636e04ff0d1461049257806370a08231146104c3578063715018a6146104f35780637a394ee4146104fd576101e5565b80634f6ccce7146103f857806355f804b3146104285780635c975abb146104445780636352211e14610462576101e5565b80632f745c59116101875780634585e33b116101565780634585e33b1461035e57806348b9ef401461037a5780634e4496ce146103985780634f164057146103c8576101e5565b80632f745c59146102da57806340522a3d1461030a57806342842e0e1461032657806342966c6814610342576101e5565b8063081812fc116101c3578063081812fc14610254578063095ea7b31461028457806318160ddd146102a057806323b872dd146102be576101e5565b806301ffc9a7146101ea57806302329a291461021a57806306fdde0314610236575b600080fd5b61020460048036038101906101ff9190612e6b565b610629565b6040516102119190612eb3565b60405180910390f35b610234600480360381019061022f9190612efa565b61063b565b005b61023e610660565b60405161024b9190612fb7565b60405180910390f35b61026e6004803603810190610269919061300f565b6106f2565b60405161027b919061307d565b60405180910390f35b61029e600480360381019061029991906130c4565b610738565b005b6102a861084f565b6040516102b59190613113565b60405180910390f35b6102d860048036038101906102d3919061312e565b61085c565b005b6102f460048036038101906102ef91906130c4565b6108bc565b6040516103019190613113565b60405180910390f35b610324600480360381019061031f9190613181565b610961565b005b610340600480360381019061033b919061312e565b6109ad565b005b61035c6004803603810190610357919061300f565b6109cd565b005b61037860048036038101906103739190613213565b6109d9565b005b610382610d9a565b60405161038f9190613113565b60405180910390f35b6103b260048036038101906103ad9190613181565b610da0565b6040516103bf9190613113565b60405180910390f35b6103e260048036038101906103dd9190613181565b610e50565b6040516103ef9190612eb3565b60405180910390f35b610412600480360381019061040d919061300f565b610e70565b60405161041f9190613113565b60405180910390f35b610442600480360381019061043d9190613390565b610ee1565b005b61044c610efc565b6040516104599190612eb3565b60405180910390f35b61047c6004803603810190610477919061300f565b610f0f565b604051610489919061307d565b60405180910390f35b6104ac60048036038101906104a79190613213565b610f95565b6040516104ba92919061342e565b60405180910390f35b6104dd60048036038101906104d89190613181565b611417565b6040516104ea9190613113565b60405180910390f35b6104fb6114ce565b005b6105056114e2565b604051610512919061307d565b60405180910390f35b610523611508565b604051610530919061307d565b60405180910390f35b610541611532565b60405161054e9190612fb7565b60405180910390f35b610571600480360381019061056c919061345e565b6115c4565b005b61058d6004803603810190610588919061353f565b6115da565b005b61059761163c565b6040516105a49190613113565b60405180910390f35b6105c760048036038101906105c2919061300f565b611642565b6040516105d49190612fb7565b60405180910390f35b6105f760048036038101906105f291906135c2565b61169b565b6040516106049190612eb3565b60405180910390f35b61062760048036038101906106229190613181565b61172f565b005b6000610634826117b2565b9050919050565b610643611813565b80600e60006101000a81548160ff02191690831515021790555050565b60606000805461066f90613631565b80601f016020809104026020016040519081016040528092919081815260200182805461069b90613631565b80156106e85780601f106106bd576101008083540402835291602001916106e8565b820191906000526020600020905b8154815290600101906020018083116106cb57829003601f168201915b5050505050905090565b60006106fd82611891565b6004600083815260200190815260200160002060009054906101000a900473ffffffffffffffffffffffffffffffffffffffff169050919050565b600061074382610f0f565b90508073ffffffffffffffffffffffffffffffffffffffff168373ffffffffffffffffffffffffffffffffffffffff16036107b3576040517f08c379a00000000000000000000000000000000000000000000000000000000081526004016107aa906136d4565b60405180910390fd5b8073ffffffffffffffffffffffffffffffffffffffff166107d26118dc565b73ffffffffffffffffffffffffffffffffffffffff1614806108015750610800816107fb6118dc565b61169b565b5b610840576040517f08c379a000000000000000000000000000000000000000000000000000000000815260040161083790613766565b60405180910390fd5b61084a83836118e4565b505050565b6000600880549050905090565b61086d6108676118dc565b8261199d565b6108ac576040517f08c379a00000000000000000000000000000000000000000000000000000000081526004016108a3906137f8565b60405180910390fd5b6108b7838383611a32565b505050565b60006108c783611417565b8210610908576040517f08c379a00000000000000000000000000000000000000000000000000000000081526004016108ff9061388a565b60405180910390fd5b600660008473ffffffffffffffffffffffffffffffffffffffff1673ffffffffffffffffffffffffffffffffffffffff168152602001908152602001600020600083815260200190815260200160002054905092915050565b610969611813565b80600e60016101000a81548173ffffffffffffffffffffffffffffffffffffffff021916908373ffffffffffffffffffffffffffffffffffffffff16021790555050565b6109c8838383604051806020016040528060008152506115da565b505050565b6109d681611d2b565b50565b6000600e60019054906101000a900473ffffffffffffffffffffffffffffffffffffffff16905060008383810190610a11919061396d565b90508051600f819055507f6ea807b1707c33720090596763e752c7777601c9e2c95d559eb37c123721796081604051610a4a9190613a74565b60405180910390a160005b8151811015610d9357600073ffffffffffffffffffffffffffffffffffffffff16828281518110610a8957610a88613a96565b5b602002602001015173ffffffffffffffffffffffffffffffffffffffff1614610d805760116000838381518110610ac357610ac2613a96565b5b602002602001015173ffffffffffffffffffffffffffffffffffffffff1673ffffffffffffffffffffffffffffffffffffffff16815260200190815260200160002060009054906101000a900460ff16610d7f5760008373ffffffffffffffffffffffffffffffffffffffff166370a08231848481518110610b4857610b47613a96565b5b60200260200101516040518263ffffffff1660e01b8152600401610b6c919061307d565b602060405180830381865afa158015610b89573d6000803e3d6000fd5b505050506040513d601f19601f82011682018060405250810190610bad9190613ada565b9050600d54811015610bf4576040517f08c379a0000000000000000000000000000000000000000000000000000000008152600401610beb90613b53565b60405180910390fd5b6000610bfe61084f565b9050600060106002600184610c139190613ba2565b610c1d9190613c05565b81548110610c2e57610c2d613a96565b5b906000526020600020018054610c4390613631565b80601f0160208091040260200160405190810160405280929190818152602001828054610c6f90613631565b8015610cbc5780601f10610c9157610100808354040283529160200191610cbc565b820191906000526020600020905b815481529060010190602001808311610c9f57829003601f168201915b50505050509050610cf3858581518110610cd957610cd8613a96565b5b6020026020010151600184610cee9190613ba2565b611d37565b610d09600183610d039190613ba2565b82611d55565b600160116000878781518110610d2257610d21613a96565b5b602002602001015173ffffffffffffffffffffffffffffffffffffffff1673ffffffffffffffffffffffffffffffffffffffff16815260200190815260200160002060006101000a81548160ff0219169083151502179055505050505b5b8080610d8b90613c36565b915050610a55565b5050505050565b600d5481565b600080600e60019054906101000a900473ffffffffffffffffffffffffffffffffffffffff16905060008173ffffffffffffffffffffffffffffffffffffffff166370a08231856040518263ffffffff1660e01b8152600401610e03919061307d565b602060405180830381865afa158015610e20573d6000803e3d6000fd5b505050506040513d601f19601f82011682018060405250810190610e449190613ada565b90508092505050919050565b60116020528060005260406000206000915054906101000a900460ff1681565b6000610e7a61084f565b8210610ebb576040517f08c379a0000000000000000000000000000000000000000000000000000000008152600401610eb290613cf0565b60405180910390fd5b60088281548110610ecf57610ece613a96565b5b90600052602060002001549050919050565b610ee9611813565b80600c9081610ef89190613ebc565b5050565b600e60009054906101000a900460ff1681565b600080610f1b83611df9565b9050600073ffffffffffffffffffffffffffffffffffffffff168173ffffffffffffffffffffffffffffffffffffffff1603610f8c576040517f08c379a0000000000000000000000000000000000000000000000000000000008152600401610f8390613fda565b60405180910390fd5b80915050919050565b600060606000600e60019054906101000a900473ffffffffffffffffffffffffffffffffffffffff16905060008173ffffffffffffffffffffffffffffffffffffffff166318160ddd6040518163ffffffff1660e01b8152600401602060405180830381865afa15801561100d573d6000803e3d6000fd5b505050506040513d601f19601f820116820180604052508101906110319190613ada565b905060008167ffffffffffffffff81111561104f5761104e613265565b5b60405190808252806020026020018201604052801561107d5781602001602082028036833780820191505090505b50905060008267ffffffffffffffff81111561109c5761109b613265565b5b6040519080825280602002602001820160405280156110ca5781602001602082028036833780820191505090505b509050600080600090505b8573ffffffffffffffffffffffffffffffffffffffff166318160ddd6040518163ffffffff1660e01b8152600401602060405180830381865afa158015611120573d6000803e3d6000fd5b505050506040513d601f19601f820116820180604052508101906111449190613ada565b811015611231578573ffffffffffffffffffffffffffffffffffffffff16636352211e6001836111749190613ba2565b6040518263ffffffff1660e01b81526004016111909190613113565b602060405180830381865afa1580156111ad573d6000803e3d6000fd5b505050506040513d601f19601f820116820180604052508101906111d1919061400f565b8482815181106111e4576111e3613a96565b5b602002602001019073ffffffffffffffffffffffffffffffffffffffff16908173ffffffffffffffffffffffffffffffffffffffff1681525050808061122990613c36565b9150506110d5565b5060005b83518110156113d35760008673ffffffffffffffffffffffffffffffffffffffff166370a0823186848151811061126f5761126e613a96565b5b60200260200101516040518263ffffffff1660e01b8152600401611293919061307d565b602060405180830381865afa1580156112b0573d6000803e3d6000fd5b505050506040513d601f19601f820116820180604052508101906112d49190613ada565b9050600d5481106113be57601160008684815181106112f6576112f5613a96565b5b602002602001015173ffffffffffffffffffffffffffffffffffffffff1673ffffffffffffffffffffffffffffffffffffffff16815260200190815260200160002060009054906101000a900460ff161561135157506113c0565b84828151811061136457611363613a96565b5b602002602001015184838151811061137f5761137e613a96565b5b602002602001019073ffffffffffffffffffffffffffffffffffffffff16908173ffffffffffffffffffffffffffffffffffffffff1681525050600192505b505b80806113cb90613c36565b915050611235565b50801561140a57816040516020016113eb9190613a74565b6040516020818303038152906040529550600196505050505050611410565b50505050505b9250929050565b60008073ffffffffffffffffffffffffffffffffffffffff168273ffffffffffffffffffffffffffffffffffffffff1603611487576040517f08c379a000000000000000000000000000000000000000000000000000000000815260040161147e906140ae565b60405180910390fd5b600360008373ffffffffffffffffffffffffffffffffffffffff1673ffffffffffffffffffffffffffffffffffffffff168152602001908152602001600020549050919050565b6114d6611813565b6114e06000611e36565b565b600e60019054906101000a900473ffffffffffffffffffffffffffffffffffffffff1681565b6000600b60009054906101000a900473ffffffffffffffffffffffffffffffffffffffff16905090565b60606001805461154190613631565b80601f016020809104026020016040519081016040528092919081815260200182805461156d90613631565b80156115ba5780601f1061158f576101008083540402835291602001916115ba565b820191906000526020600020905b81548152906001019060200180831161159d57829003601f168201915b5050505050905090565b6115d66115cf6118dc565b8383611efc565b5050565b6115eb6115e56118dc565b8361199d565b61162a576040517f08c379a0000000000000000000000000000000000000000000000000000000008152600401611621906137f8565b60405180910390fd5b61163684848484612068565b50505050565b600f5481565b606061164d826120c4565b61168c576040517f08c379a000000000000000000000000000000000000000000000000000000000815260040161168390614140565b60405180910390fd5b611694612105565b9050919050565b6000600560008473ffffffffffffffffffffffffffffffffffffffff1673ffffffffffffffffffffffffffffffffffffffff16815260200190815260200160002060008373ffffffffffffffffffffffffffffffffffffffff1673ffffffffffffffffffffffffffffffffffffffff16815260200190815260200160002060009054906101000a900460ff16905092915050565b611737611813565b600073ffffffffffffffffffffffffffffffffffffffff168173ffffffffffffffffffffffffffffffffffffffff16036117a6576040517f08c379a000000000000000000000000000000000000000000000000000000000815260040161179d906141d2565b60405180910390fd5b6117af81611e36565b50565b6000634906490660e01b7bffffffffffffffffffffffffffffffffffffffffffffffffffffffff1916827bffffffffffffffffffffffffffffffffffffffffffffffffffffffff1916148061180c575061180b82612197565b5b9050919050565b61181b6118dc565b73ffffffffffffffffffffffffffffffffffffffff16611839611508565b73ffffffffffffffffffffffffffffffffffffffff161461188f576040517f08c379a00000000000000000000000000000000000000000000000000000000081526004016118869061423e565b60405180910390fd5b565b61189a816120c4565b6118d9576040517f08c379a00000000000000000000000000000000000000000000000000000000081526004016118d090613fda565b60405180910390fd5b50565b600033905090565b816004600083815260200190815260200160002060006101000a81548173ffffffffffffffffffffffffffffffffffffffff021916908373ffffffffffffffffffffffffffffffffffffffff160217905550808273ffffffffffffffffffffffffffffffffffffffff1661195783610f0f565b73ffffffffffffffffffffffffffffffffffffffff167f8c5be1e5ebec7d5bd14f71427d1e84f3dd0314c0f7b2291e5b200ac8c7c3b92560405160405180910390a45050565b6000806119a983610f0f565b90508073ffffffffffffffffffffffffffffffffffffffff168473ffffffffffffffffffffffffffffffffffffffff1614806119eb57506119ea818561169b565b5b80611a2957508373ffffffffffffffffffffffffffffffffffffffff16611a11846106f2565b73ffffffffffffffffffffffffffffffffffffffff16145b91505092915050565b8273ffffffffffffffffffffffffffffffffffffffff16611a5282610f0f565b73ffffffffffffffffffffffffffffffffffffffff1614611aa8576040517f08c379a0000000000000000000000000000000000000000000000000000000008152600401611a9f906142d0565b60405180910390fd5b600073ffffffffffffffffffffffffffffffffffffffff168273ffffffffffffffffffffffffffffffffffffffff1603611b17576040517f08c379a0000000000000000000000000000000000000000000000000000000008152600401611b0e90614362565b60405180910390fd5b611b248383836001612211565b8273ffffffffffffffffffffffffffffffffffffffff16611b4482610f0f565b73ffffffffffffffffffffffffffffffffffffffff1614611b9a576040517f08c379a0000000000000000000000000000000000000000000000000000000008152600401611b91906142d0565b60405180910390fd5b6004600082815260200190815260200160002060006101000a81549073ffffffffffffffffffffffffffffffffffffffff02191690556001600360008573ffffffffffffffffffffffffffffffffffffffff1673ffffffffffffffffffffffffffffffffffffffff168152602001908152602001600020600082825403925050819055506001600360008473ffffffffffffffffffffffffffffffffffffffff1673ffffffffffffffffffffffffffffffffffffffff16815260200190815260200160002060008282540192505081905550816002600083815260200190815260200160002060006101000a81548173ffffffffffffffffffffffffffffffffffffffff021916908373ffffffffffffffffffffffffffffffffffffffff160217905550808273ffffffffffffffffffffffffffffffffffffffff168473ffffffffffffffffffffffffffffffffffffffff167fddf252ad1be2c89b69c2b068fc378daa952ba7f163c4a11628f55a4df523b3ef60405160405180910390a4611d268383836001612223565b505050565b611d3481612229565b50565b611d5182826040518060200160405280600081525061227c565b5050565b611d5e826120c4565b611d9d576040517f08c379a0000000000000000000000000000000000000000000000000000000008152600401611d94906143f4565b60405180910390fd5b80600a60008481526020019081526020016000209081611dbd9190613ebc565b507ff8e1a15aba9398e019f0b49df1a4fde98ee17ae345cb5f6b5e2c27f5033e8ce782604051611ded9190613113565b60405180910390a15050565b60006002600083815260200190815260200160002060009054906101000a900473ffffffffffffffffffffffffffffffffffffffff169050919050565b6000600b60009054906101000a900473ffffffffffffffffffffffffffffffffffffffff16905081600b60006101000a81548173ffffffffffffffffffffffffffffffffffffffff021916908373ffffffffffffffffffffffffffffffffffffffff1602179055508173ffffffffffffffffffffffffffffffffffffffff168173ffffffffffffffffffffffffffffffffffffffff167f8be0079c531659141344cd1fd0a4f28419497f9722a3daafe3b4186f6b6457e060405160405180910390a35050565b8173ffffffffffffffffffffffffffffffffffffffff168373ffffffffffffffffffffffffffffffffffffffff1603611f6a576040517f08c379a0000000000000000000000000000000000000000000000000000000008152600401611f6190614460565b60405180910390fd5b80600560008573ffffffffffffffffffffffffffffffffffffffff1673ffffffffffffffffffffffffffffffffffffffff16815260200190815260200160002060008473ffffffffffffffffffffffffffffffffffffffff1673ffffffffffffffffffffffffffffffffffffffff16815260200190815260200160002060006101000a81548160ff0219169083151502179055508173ffffffffffffffffffffffffffffffffffffffff168373ffffffffffffffffffffffffffffffffffffffff167f17307eab39ab6107e8899845ad3d59bd9653f200f220920489ca2b5937696c318360405161205b9190612eb3565b60405180910390a3505050565b612073848484611a32565b61207f848484846122d7565b6120be576040517f08c379a00000000000000000000000000000000000000000000000000000000081526004016120b5906144f2565b60405180910390fd5b50505050565b60008073ffffffffffffffffffffffffffffffffffffffff166120e683611df9565b73ffffffffffffffffffffffffffffffffffffffff1614159050919050565b6060600c805461211490613631565b80601f016020809104026020016040519081016040528092919081815260200182805461214090613631565b801561218d5780601f106121625761010080835404028352916020019161218d565b820191906000526020600020905b81548152906001019060200180831161217057829003601f168201915b5050505050905090565b60007f780e9d63000000000000000000000000000000000000000000000000000000007bffffffffffffffffffffffffffffffffffffffffffffffffffffffff1916827bffffffffffffffffffffffffffffffffffffffffffffffffffffffff1916148061220a57506122098261245e565b5b9050919050565b61221d84848484612540565b50505050565b50505050565b6122328161269e565b6000600a6000838152602001908152602001600020805461225290613631565b90501461227957600a600082815260200190815260200160002060006122789190612da2565b5b50565b61228683836127ec565b61229360008484846122d7565b6122d2576040517f08c379a00000000000000000000000000000000000000000000000000000000081526004016122c9906144f2565b60405180910390fd5b505050565b60006122f88473ffffffffffffffffffffffffffffffffffffffff16612a09565b15612451578373ffffffffffffffffffffffffffffffffffffffff1663150b7a026123216118dc565b8786866040518563ffffffff1660e01b81526004016123439493929190614512565b6020604051808303816000875af192505050801561237f57506040513d601f19601f8201168201806040525081019061237c9190614573565b60015b612401573d80600081146123af576040519150601f19603f3d011682016040523d82523d6000602084013e6123b4565b606091505b5060008151036123f9576040517f08c379a00000000000000000000000000000000000000000000000000000000081526004016123f0906144f2565b60405180910390fd5b805181602001fd5b63150b7a0260e01b7bffffffffffffffffffffffffffffffffffffffffffffffffffffffff1916817bffffffffffffffffffffffffffffffffffffffffffffffffffffffff191614915050612456565b600190505b949350505050565b60007f80ac58cd000000000000000000000000000000000000000000000000000000007bffffffffffffffffffffffffffffffffffffffffffffffffffffffff1916827bffffffffffffffffffffffffffffffffffffffffffffffffffffffff1916148061252957507f5b5e139f000000000000000000000000000000000000000000000000000000007bffffffffffffffffffffffffffffffffffffffffffffffffffffffff1916827bffffffffffffffffffffffffffffffffffffffffffffffffffffffff1916145b80612539575061253882612a2c565b5b9050919050565b61254c84848484612a96565b6001811115612590576040517f08c379a000000000000000000000000000000000000000000000000000000000815260040161258790614612565b60405180910390fd5b6000829050600073ffffffffffffffffffffffffffffffffffffffff168573ffffffffffffffffffffffffffffffffffffffff16036125d7576125d281612a9c565b612616565b8373ffffffffffffffffffffffffffffffffffffffff168573ffffffffffffffffffffffffffffffffffffffff1614612615576126148582612ae5565b5b5b600073ffffffffffffffffffffffffffffffffffffffff168473ffffffffffffffffffffffffffffffffffffffff16036126585761265381612c52565b612697565b8473ffffffffffffffffffffffffffffffffffffffff168473ffffffffffffffffffffffffffffffffffffffff1614612696576126958482612d23565b5b5b5050505050565b60006126a982610f0f565b90506126b9816000846001612211565b6126c282610f0f565b90506004600083815260200190815260200160002060006101000a81549073ffffffffffffffffffffffffffffffffffffffff02191690556001600360008373ffffffffffffffffffffffffffffffffffffffff1673ffffffffffffffffffffffffffffffffffffffff168152602001908152602001600020600082825403925050819055506002600083815260200190815260200160002060006101000a81549073ffffffffffffffffffffffffffffffffffffffff021916905581600073ffffffffffffffffffffffffffffffffffffffff168273ffffffffffffffffffffffffffffffffffffffff167fddf252ad1be2c89b69c2b068fc378daa952ba7f163c4a11628f55a4df523b3ef60405160405180910390a46127e8816000846001612223565b5050565b600073ffffffffffffffffffffffffffffffffffffffff168273ffffffffffffffffffffffffffffffffffffffff160361285b576040517f08c379a00000000000000000000000000000000000000000000000000000000081526004016128529061467e565b60405180910390fd5b612864816120c4565b156128a4576040517f08c379a000000000000000000000000000000000000000000000000000000000815260040161289b906146ea565b60405180910390fd5b6128b2600083836001612211565b6128bb816120c4565b156128fb576040517f08c379a00000000000000000000000000000000000000000000000000000000081526004016128f2906146ea565b60405180910390fd5b6001600360008473ffffffffffffffffffffffffffffffffffffffff1673ffffffffffffffffffffffffffffffffffffffff16815260200190815260200160002060008282540192505081905550816002600083815260200190815260200160002060006101000a81548173ffffffffffffffffffffffffffffffffffffffff021916908373ffffffffffffffffffffffffffffffffffffffff160217905550808273ffffffffffffffffffffffffffffffffffffffff16600073ffffffffffffffffffffffffffffffffffffffff167fddf252ad1be2c89b69c2b068fc378daa952ba7f163c4a11628f55a4df523b3ef60405160405180910390a4612a05600083836001612223565b5050565b6000808273ffffffffffffffffffffffffffffffffffffffff163b119050919050565b60007f01ffc9a7000000000000000000000000000000000000000000000000000000007bffffffffffffffffffffffffffffffffffffffffffffffffffffffff1916827bffffffffffffffffffffffffffffffffffffffffffffffffffffffff1916149050919050565b50505050565b6008805490506009600083815260200190815260200160002081905550600881908060018154018082558091505060019003906000526020600020016000909190919091505550565b60006001612af284611417565b612afc919061470a565b9050600060076000848152602001908152602001600020549050818114612be1576000600660008673ffffffffffffffffffffffffffffffffffffffff1673ffffffffffffffffffffffffffffffffffffffff168152602001908152602001600020600084815260200190815260200160002054905080600660008773ffffffffffffffffffffffffffffffffffffffff1673ffffffffffffffffffffffffffffffffffffffff168152602001908152602001600020600084815260200190815260200160002081905550816007600083815260200190815260200160002081905550505b6007600084815260200190815260200160002060009055600660008573ffffffffffffffffffffffffffffffffffffffff1673ffffffffffffffffffffffffffffffffffffffff16815260200190815260200160002060008381526020019081526020016000206000905550505050565b60006001600880549050612c66919061470a565b9050600060096000848152602001908152602001600020549050600060088381548110612c9657612c95613a96565b5b906000526020600020015490508060088381548110612cb857612cb7613a96565b5b906000526020600020018190555081600960008381526020019081526020016000208190555060096000858152602001908152602001600020600090556008805480612d0757612d0661473e565b5b6001900381819060005260206000200160009055905550505050565b6000612d2e83611417565b905081600660008573ffffffffffffffffffffffffffffffffffffffff1673ffffffffffffffffffffffffffffffffffffffff168152602001908152602001600020600083815260200190815260200160002081905550806007600084815260200190815260200160002081905550505050565b508054612dae90613631565b6000825580601f10612dc05750612ddf565b601f016020900490600052602060002090810190612dde9190612de2565b5b50565b5b80821115612dfb576000816000905550600101612de3565b5090565b6000604051905090565b600080fd5b600080fd5b60007fffffffff0000000000000000000000000000000000000000000000000000000082169050919050565b612e4881612e13565b8114612e5357600080fd5b50565b600081359050612e6581612e3f565b92915050565b600060208284031215612e8157612e80612e09565b5b6000612e8f84828501612e56565b91505092915050565b60008115159050919050565b612ead81612e98565b82525050565b6000602082019050612ec86000830184612ea4565b92915050565b612ed781612e98565b8114612ee257600080fd5b50565b600081359050612ef481612ece565b92915050565b600060208284031215612f1057612f0f612e09565b5b6000612f1e84828501612ee5565b91505092915050565b600081519050919050565b600082825260208201905092915050565b60005b83811015612f61578082015181840152602081019050612f46565b60008484015250505050565b6000601f19601f8301169050919050565b6000612f8982612f27565b612f938185612f32565b9350612fa3818560208601612f43565b612fac81612f6d565b840191505092915050565b60006020820190508181036000830152612fd18184612f7e565b905092915050565b6000819050919050565b612fec81612fd9565b8114612ff757600080fd5b50565b60008135905061300981612fe3565b92915050565b60006020828403121561302557613024612e09565b5b600061303384828501612ffa565b91505092915050565b600073ffffffffffffffffffffffffffffffffffffffff82169050919050565b60006130678261303c565b9050919050565b6130778161305c565b82525050565b6000602082019050613092600083018461306e565b92915050565b6130a18161305c565b81146130ac57600080fd5b50565b6000813590506130be81613098565b92915050565b600080604083850312156130db576130da612e09565b5b60006130e9858286016130af565b92505060206130fa85828601612ffa565b9150509250929050565b61310d81612fd9565b82525050565b60006020820190506131286000830184613104565b92915050565b60008060006060848603121561314757613146612e09565b5b6000613155868287016130af565b9350506020613166868287016130af565b925050604061317786828701612ffa565b9150509250925092565b60006020828403121561319757613196612e09565b5b60006131a5848285016130af565b91505092915050565b600080fd5b600080fd5b600080fd5b60008083601f8401126131d3576131d26131ae565b5b8235905067ffffffffffffffff8111156131f0576131ef6131b3565b5b60208301915083600182028301111561320c5761320b6131b8565b5b9250929050565b6000806020838503121561322a57613229612e09565b5b600083013567ffffffffffffffff81111561324857613247612e0e565b5b613254858286016131bd565b92509250509250929050565b600080fd5b7f4e487b7100000000000000000000000000000000000000000000000000000000600052604160045260246000fd5b61329d82612f6d565b810181811067ffffffffffffffff821117156132bc576132bb613265565b5b80604052505050565b60006132cf612dff565b90506132db8282613294565b919050565b600067ffffffffffffffff8211156132fb576132fa613265565b5b61330482612f6d565b9050602081019050919050565b82818337600083830152505050565b600061333361332e846132e0565b6132c5565b90508281526020810184848401111561334f5761334e613260565b5b61335a848285613311565b509392505050565b600082601f830112613377576133766131ae565b5b8135613387848260208601613320565b91505092915050565b6000602082840312156133a6576133a5612e09565b5b600082013567ffffffffffffffff8111156133c4576133c3612e0e565b5b6133d084828501613362565b91505092915050565b600081519050919050565b600082825260208201905092915050565b6000613400826133d9565b61340a81856133e4565b935061341a818560208601612f43565b61342381612f6d565b840191505092915050565b60006040820190506134436000830185612ea4565b818103602083015261345581846133f5565b90509392505050565b6000806040838503121561347557613474612e09565b5b6000613483858286016130af565b925050602061349485828601612ee5565b9150509250929050565b600067ffffffffffffffff8211156134b9576134b8613265565b5b6134c282612f6d565b9050602081019050919050565b60006134e26134dd8461349e565b6132c5565b9050828152602081018484840111156134fe576134fd613260565b5b613509848285613311565b509392505050565b600082601f830112613526576135256131ae565b5b81356135368482602086016134cf565b91505092915050565b6000806000806080858703121561355957613558612e09565b5b6000613567878288016130af565b9450506020613578878288016130af565b935050604061358987828801612ffa565b925050606085013567ffffffffffffffff8111156135aa576135a9612e0e565b5b6135b687828801613511565b91505092959194509250565b600080604083850312156135d9576135d8612e09565b5b60006135e7858286016130af565b92505060206135f8858286016130af565b9150509250929050565b7f4e487b7100000000000000000000000000000000000000000000000000000000600052602260045260246000fd5b6000600282049050600182168061364957607f821691505b60208210810361365c5761365b613602565b5b50919050565b7f4552433732313a20617070726f76616c20746f2063757272656e74206f776e6560008201527f7200000000000000000000000000000000000000000000000000000000000000602082015250565b60006136be602183612f32565b91506136c982613662565b604082019050919050565b600060208201905081810360008301526136ed816136b1565b9050919050565b7f4552433732313a20617070726f76652063616c6c6572206973206e6f7420746f60008201527f6b656e206f776e6572206f7220617070726f76656420666f7220616c6c000000602082015250565b6000613750603d83612f32565b915061375b826136f4565b604082019050919050565b6000602082019050818103600083015261377f81613743565b9050919050565b7f4552433732313a2063616c6c6572206973206e6f7420746f6b656e206f776e6560008201527f72206f7220617070726f76656400000000000000000000000000000000000000602082015250565b60006137e2602d83612f32565b91506137ed82613786565b604082019050919050565b60006020820190508181036000830152613811816137d5565b9050919050565b7f455243373231456e756d657261626c653a206f776e657220696e646578206f7560008201527f74206f6620626f756e6473000000000000000000000000000000000000000000602082015250565b6000613874602b83612f32565b915061387f82613818565b604082019050919050565b600060208201905081810360008301526138a381613867565b9050919050565b600067ffffffffffffffff8211156138c5576138c4613265565b5b602082029050602081019050919050565b60006138e96138e4846138aa565b6132c5565b9050808382526020820190506020840283018581111561390c5761390b6131b8565b5b835b81811015613935578061392188826130af565b84526020840193505060208101905061390e565b5050509392505050565b600082601f830112613954576139536131ae565b5b81356139648482602086016138d6565b91505092915050565b60006020828403121561398357613982612e09565b5b600082013567ffffffffffffffff8111156139a1576139a0612e0e565b5b6139ad8482850161393f565b91505092915050565b600081519050919050565b600082825260208201905092915050565b6000819050602082019050919050565b6139eb8161305c565b82525050565b60006139fd83836139e2565b60208301905092915050565b6000602082019050919050565b6000613a21826139b6565b613a2b81856139c1565b9350613a36836139d2565b8060005b83811015613a67578151613a4e88826139f1565b9750613a5983613a09565b925050600181019050613a3a565b5085935050505092915050565b60006020820190508181036000830152613a8e8184613a16565b905092915050565b7f4e487b7100000000000000000000000000000000000000000000000000000000600052603260045260246000fd5b600081519050613ad481612fe3565b92915050565b600060208284031215613af057613aef612e09565b5b6000613afe84828501613ac5565b91505092915050565b7f596f7520646f6e2774206f776e20656e6f75676820436f75706f6e204e465473600082015250565b6000613b3d602083612f32565b9150613b4882613b07565b602082019050919050565b60006020820190508181036000830152613b6c81613b30565b9050919050565b7f4e487b7100000000000000000000000000000000000000000000000000000000600052601160045260246000fd5b6000613bad82612fd9565b9150613bb883612fd9565b9250828201905080821115613bd057613bcf613b73565b5b92915050565b7f4e487b7100000000000000000000000000000000000000000000000000000000600052601260045260246000fd5b6000613c1082612fd9565b9150613c1b83612fd9565b925082613c2b57613c2a613bd6565b5b828206905092915050565b6000613c4182612fd9565b91507fffffffffffffffffffffffffffffffffffffffffffffffffffffffffffffffff8203613c7357613c72613b73565b5b600182019050919050565b7f455243373231456e756d657261626c653a20676c6f62616c20696e646578206f60008201527f7574206f6620626f756e64730000000000000000000000000000000000000000602082015250565b6000613cda602c83612f32565b9150613ce582613c7e565b604082019050919050565b60006020820190508181036000830152613d0981613ccd565b9050919050565b60008190508160005260206000209050919050565b60006020601f8301049050919050565b600082821b905092915050565b600060088302613d727fffffffffffffffffffffffffffffffffffffffffffffffffffffffffffffffff82613d35565b613d7c8683613d35565b95508019841693508086168417925050509392505050565b6000819050919050565b6000613db9613db4613daf84612fd9565b613d94565b612fd9565b9050919050565b6000819050919050565b613dd383613d9e565b613de7613ddf82613dc0565b848454613d42565b825550505050565b600090565b613dfc613def565b613e07818484613dca565b505050565b5b81811015613e2b57613e20600082613df4565b600181019050613e0d565b5050565b601f821115613e7057613e4181613d10565b613e4a84613d25565b81016020851015613e59578190505b613e6d613e6585613d25565b830182613e0c565b50505b505050565b600082821c905092915050565b6000613e9360001984600802613e75565b1980831691505092915050565b6000613eac8383613e82565b9150826002028217905092915050565b613ec582612f27565b67ffffffffffffffff811115613ede57613edd613265565b5b613ee88254613631565b613ef3828285613e2f565b600060209050601f831160018114613f265760008415613f14578287015190505b613f1e8582613ea0565b865550613f86565b601f198416613f3486613d10565b60005b82811015613f5c57848901518255600182019150602085019450602081019050613f37565b86831015613f795784890151613f75601f891682613e82565b8355505b6001600288020188555050505b505050505050565b7f4552433732313a20696e76616c696420746f6b656e2049440000000000000000600082015250565b6000613fc4601883612f32565b9150613fcf82613f8e565b602082019050919050565b60006020820190508181036000830152613ff381613fb7565b9050919050565b60008151905061400981613098565b92915050565b60006020828403121561402557614024612e09565b5b600061403384828501613ffa565b91505092915050565b7f4552433732313a2061646472657373207a65726f206973206e6f74206120766160008201527f6c6964206f776e65720000000000000000000000000000000000000000000000602082015250565b6000614098602983612f32565b91506140a38261403c565b604082019050919050565b600060208201905081810360008301526140c78161408b565b9050919050565b7f4552433732314d657461646174613a2055524920717565727920666f72206e6f60008201527f6e6578697374656e7420746f6b656e2e00000000000000000000000000000000602082015250565b600061412a603083612f32565b9150614135826140ce565b604082019050919050565b600060208201905081810360008301526141598161411d565b9050919050565b7f4f776e61626c653a206e6577206f776e657220697320746865207a65726f206160008201527f6464726573730000000000000000000000000000000000000000000000000000602082015250565b60006141bc602683612f32565b91506141c782614160565b604082019050919050565b600060208201905081810360008301526141eb816141af565b9050919050565b7f4f776e61626c653a2063616c6c6572206973206e6f7420746865206f776e6572600082015250565b6000614228602083612f32565b9150614233826141f2565b602082019050919050565b600060208201905081810360008301526142578161421b565b9050919050565b7f4552433732313a207472616e736665722066726f6d20696e636f72726563742060008201527f6f776e6572000000000000000000000000000000000000000000000000000000602082015250565b60006142ba602583612f32565b91506142c58261425e565b604082019050919050565b600060208201905081810360008301526142e9816142ad565b9050919050565b7f4552433732313a207472616e7366657220746f20746865207a65726f2061646460008201527f7265737300000000000000000000000000000000000000000000000000000000602082015250565b600061434c602483612f32565b9150614357826142f0565b604082019050919050565b6000602082019050818103600083015261437b8161433f565b9050919050565b7f45524337323155524953746f726167653a2055524920736574206f66206e6f6e60008201527f6578697374656e7420746f6b656e000000000000000000000000000000000000602082015250565b60006143de602e83612f32565b91506143e982614382565b604082019050919050565b6000602082019050818103600083015261440d816143d1565b9050919050565b7f4552433732313a20617070726f766520746f2063616c6c657200000000000000600082015250565b600061444a601983612f32565b915061445582614414565b602082019050919050565b600060208201905081810360008301526144798161443d565b9050919050565b7f4552433732313a207472616e7366657220746f206e6f6e20455243373231526560008201527f63656976657220696d706c656d656e7465720000000000000000000000000000602082015250565b60006144dc603283612f32565b91506144e782614480565b604082019050919050565b6000602082019050818103600083015261450b816144cf565b9050919050565b6000608082019050614527600083018761306e565b614534602083018661306e565b6145416040830185613104565b818103606083015261455381846133f5565b905095945050505050565b60008151905061456d81612e3f565b92915050565b60006020828403121561458957614588612e09565b5b60006145978482850161455e565b91505092915050565b7f455243373231456e756d657261626c653a20636f6e736563757469766520747260008201527f616e7366657273206e6f7420737570706f727465640000000000000000000000602082015250565b60006145fc603583612f32565b9150614607826145a0565b604082019050919050565b6000602082019050818103600083015261462b816145ef565b9050919050565b7f4552433732313a206d696e7420746f20746865207a65726f2061646472657373600082015250565b6000614668602083612f32565b915061467382614632565b602082019050919050565b600060208201905081810360008301526146978161465b565b9050919050565b7f4552433732313a20746f6b656e20616c7265616479206d696e74656400000000600082015250565b60006146d4601c83612f32565b91506146df8261469e565b602082019050919050565b60006020820190508181036000830152614703816146c7565b9050919050565b600061471582612fd9565b915061472083612fd9565b925082820390508181111561473857614737613b73565b5b92915050565b7f4e487b7100000000000000000000000000000000000000000000000000000000600052603160045260246000fdfea26469706673582212207a36cfadcf8ace0390d2684daba43e64666adcce2815ca759095a84975de5cbd64736f6c6343000813003368747470733a2f2f666972656261736573746f726167652e676f6f676c65617069732e636f6d2f76302f622f706c61746661726d6d656d65626572736869702d746573742e61707073706f742e636f6d2f6f2f6e66742532466d65746164617461253246706f61705f302e6a736f6e3f616c743d6d6564696168747470733a2f2f666972656261736573746f726167652e676f6f676c65617069732e636f6d2f76302f622f706c61746661726d6d656d65626572736869702d746573742e61707073706f742e636f6d2f6f2f6e66742532466d65746164617461253246706f61705f312e6a736f6e3f616c743d6d65646961",
  "linkReferences": {},
  "deployedLinkReferences": {}
}