{
  "_format": "hh-sol-artifact-1",
  "contractName": "Bumper",
  "sourceName": "contracts/Bumper.sol",
  "abi": [
    {
      "anonymous": false,
      "inputs": [
        {
          "indexed": true,
          "internalType": "address",
          "name": "addr",
          "type": "address"
        },
        {
          "indexed": true,
          "internalType": "uint256",
          "name": "num",
          "type": "uint256"
        },
        {
          "indexed": false,
          "internalType": "uint256",
          "name": "tokenid",
          "type": "uint256"
        }
      ],
      "name": "Bump",
      "type": "event"
    },
    {
      "inputs": [
        {
          "internalType": "uint256",
          "name": "tokenId",
          "type": "uint256"
        }
      ],
      "name": "bump",
      "outputs": [],
      "stateMutability": "nonpayable",
      "type": "function"
    },
    {
      "inputs": [],
      "name": "number",
      "outputs": [
        {
          "internalType": "uint256",
          "name": "",
          "type": "uint256"
        }
      ],
      "stateMutability": "view",
      "type": "function"
    }
  ],
  "bytecode": "0x608060405234801561001057600080fd5b50610213806100206000396000f3fe608060405234801561001057600080fd5b50600436106100365760003560e01c80638381f58a1461003b578063b20eb4c414610059575b600080fd5b610043610075565b6040516100509190610101565b60405180910390f35b610073600480360381019061006e919061014d565b61007b565b005b60005481565b600160008082825461008d91906101a9565b925050819055506000543373ffffffffffffffffffffffffffffffffffffffff167fb74217c835a527c20a131c1e7cb44bfec71c3aa9d6d60bfc61d156606fdbcf37836040516100dd9190610101565b60405180910390a350565b6000819050919050565b6100fb816100e8565b82525050565b600060208201905061011660008301846100f2565b92915050565b600080fd5b61012a816100e8565b811461013557600080fd5b50565b60008135905061014781610121565b92915050565b6000602082840312156101635761016261011c565b5b600061017184828501610138565b91505092915050565b7f4e487b7100000000000000000000000000000000000000000000000000000000600052601160045260246000fd5b60006101b4826100e8565b91506101bf836100e8565b92508282019050808211156101d7576101d661017a565b5b9291505056fea26469706673582212208702c4b17c6872faf62434e58bbe972b56e62f69fd49919680aec9cbaa003c9164736f6c63430008130033",
  "linkReferences": {},
  "deployedLinkReferences": {}
}