{
  "_format": "hh-sol-artifact-1",
  "contractName": "POAPDEMO",
  "sourceName": "contracts/POAPDemo.sol",
  "abi": [
    {
      "inputs": [
        {
          "internalType": "address",
          "name": "_initCouponAddress",
          "type": "address"
        }
      ],
      "stateMutability": "nonpayable",
      "type": "constructor"
    },
    {
      "inputs": [],
      "name": "OnlySimulatedBackend",
      "type": "error"
    },
    {
      "anonymous": false,
      "inputs": [
        {
          "indexed": true,
          "internalType": "address",
          "name": "owner",
          "type": "address"
        },
        {
          "indexed": true,
          "internalType": "address",
          "name": "approved",
          "type": "address"
        },
        {
          "indexed": true,
          "internalType": "uint256",
          "name": "tokenId",
          "type": "uint256"
        }
      ],
      "name": "Approval",
      "type": "event"
    },
    {
      "anonymous": false,
      "inputs": [
        {
          "indexed": true,
          "internalType": "address",
          "name": "owner",
          "type": "address"
        },
        {
          "indexed": true,
          "internalType": "address",
          "name": "operator",
          "type": "address"
        },
        {
          "indexed": false,
          "internalType": "bool",
          "name": "approved",
          "type": "bool"
        }
      ],
      "name": "ApprovalForAll",
      "type": "event"
    },
    {
      "anonymous": false,
      "inputs": [
        {
          "indexed": false,
          "internalType": "uint256",
          "name": "_fromTokenId",
          "type": "uint256"
        },
        {
          "indexed": false,
          "internalType": "uint256",
          "name": "_toTokenId",
          "type": "uint256"
        }
      ],
      "name": "BatchMetadataUpdate",
      "type": "event"
    },
    {
      "anonymous": false,
      "inputs": [
        {
          "indexed": false,
          "internalType": "uint256",
          "name": "_tokenId",
          "type": "uint256"
        }
      ],
      "name": "MetadataUpdate",
      "type": "event"
    },
    {
      "anonymous": false,
      "inputs": [
        {
          "indexed": true,
          "internalType": "address",
          "name": "previousOwner",
          "type": "address"
        },
        {
          "indexed": true,
          "internalType": "address",
          "name": "newOwner",
          "type": "address"
        }
      ],
      "name": "OwnershipTransferred",
      "type": "event"
    },
    {
      "anonymous": false,
      "inputs": [
        {
          "indexed": false,
          "internalType": "address[]",
          "name": "owners",
          "type": "address[]"
        }
      ],
      "name": "PerformEvent",
      "type": "event"
    },
    {
      "anonymous": false,
      "inputs": [
        {
          "indexed": true,
          "internalType": "address",
          "name": "from",
          "type": "address"
        },
        {
          "indexed": true,
          "internalType": "address",
          "name": "to",
          "type": "address"
        },
        {
          "indexed": true,
          "internalType": "uint256",
          "name": "tokenId",
          "type": "uint256"
        }
      ],
      "name": "Transfer",
      "type": "event"
    },
    {
      "inputs": [
        {
          "internalType": "address",
          "name": "to",
          "type": "address"
        },
        {
          "internalType": "uint256",
          "name": "tokenId",
          "type": "uint256"
        }
      ],
      "name": "approve",
      "outputs": [],
      "stateMutability": "nonpayable",
      "type": "function"
    },
    {
      "inputs": [
        {
          "internalType": "address",
          "name": "owner",
          "type": "address"
        }
      ],
      "name": "balanceOf",
      "outputs": [
        {
          "internalType": "uint256",
          "name": "",
          "type": "uint256"
        }
      ],
      "stateMutability": "view",
      "type": "function"
    },
    {
      "inputs": [
        {
          "internalType": "address",
          "name": "",
          "type": "address"
        }
      ],
      "name": "benefitOwned",
      "outputs": [
        {
          "internalType": "bool",
          "name": "",
          "type": "bool"
        }
      ],
      "stateMutability": "view",
      "type": "function"
    },
    {
      "inputs": [
        {
          "internalType": "uint256",
          "name": "tokenId",
          "type": "uint256"
        }
      ],
      "name": "burn",
      "outputs": [],
      "stateMutability": "nonpayable",
      "type": "function"
    },
    {
      "inputs": [
        {
          "internalType": "bytes",
          "name": "",
          "type": "bytes"
        }
      ],
      "name": "checkUpkeep",
      "outputs": [
        {
          "internalType": "bool",
          "name": "upkeepNeeded",
          "type": "bool"
        },
        {
          "internalType": "bytes",
          "name": "performData",
          "type": "bytes"
        }
      ],
      "stateMutability": "view",
      "type": "function"
    },
    {
      "inputs": [],
      "name": "couponAddress",
      "outputs": [
        {
          "internalType": "address",
          "name": "",
          "type": "address"
        }
      ],
      "stateMutability": "view",
      "type": "function"
    },
    {
      "inputs": [
        {
          "internalType": "uint256",
          "name": "tokenId",
          "type": "uint256"
        }
      ],
      "name": "getApproved",
      "outputs": [
        {
          "internalType": "address",
          "name": "",
          "type": "address"
        }
      ],
      "stateMutability": "view",
      "type": "function"
    },
    {
      "inputs": [
        {
          "internalType": "address",
          "name": "owner",
          "type": "address"
        },
        {
          "internalType": "address",
          "name": "operator",
          "type": "address"
        }
      ],
      "name": "isApprovedForAll",
      "outputs": [
        {
          "internalType": "bool",
          "name": "",
          "type": "bool"
        }
      ],
      "stateMutability": "view",
      "type": "function"
    },
    {
      "inputs": [],
      "name": "mintNeeded",
      "outputs": [
        {
          "internalType": "uint256",
          "name": "",
          "type": "uint256"
        }
      ],
      "stateMutability": "view",
      "type": "function"
    },
    {
      "inputs": [],
      "name": "name",
      "outputs": [
        {
          "internalType": "string",
          "name": "",
          "type": "string"
        }
      ],
      "stateMutability": "view",
      "type": "function"
    },
    {
      "inputs": [],
      "name": "owner",
      "outputs": [
        {
          "internalType": "address",
          "name": "",
          "type": "address"
        }
      ],
      "stateMutability": "view",
      "type": "function"
    },
    {
      "inputs": [
        {
          "internalType": "uint256",
          "name": "tokenId",
          "type": "uint256"
        }
      ],
      "name": "ownerOf",
      "outputs": [
        {
          "internalType": "address",
          "name": "",
          "type": "address"
        }
      ],
      "stateMutability": "view",
      "type": "function"
    },
    {
      "inputs": [
        {
          "internalType": "bool",
          "name": "_state",
          "type": "bool"
        }
      ],
      "name": "pause",
      "outputs": [],
      "stateMutability": "nonpayable",
      "type": "function"
    },
    {
      "inputs": [],
      "name": "paused",
      "outputs": [
        {
          "internalType": "bool",
          "name": "",
          "type": "bool"
        }
      ],
      "stateMutability": "view",
      "type": "function"
    },
    {
      "inputs": [
        {
          "internalType": "bytes",
          "name": "performData",
          "type": "bytes"
        }
      ],
      "name": "performUpkeep",
      "outputs": [],
      "stateMutability": "nonpayable",
      "type": "function"
    },
    {
      "inputs": [],
      "name": "renounceOwnership",
      "outputs": [],
      "stateMutability": "nonpayable",
      "type": "function"
    },
    {
      "inputs": [],
      "name": "requiredAmount",
      "outputs": [
        {
          "internalType": "uint256",
          "name": "",
          "type": "uint256"
        }
      ],
      "stateMutability": "view",
      "type": "function"
    },
    {
      "inputs": [
        {
          "internalType": "address",
          "name": "from",
          "type": "address"
        },
        {
          "internalType": "address",
          "name": "to",
          "type": "address"
        },
        {
          "internalType": "uint256",
          "name": "tokenId",
          "type": "uint256"
        }
      ],
      "name": "safeTransferFrom",
      "outputs": [],
      "stateMutability": "nonpayable",
      "type": "function"
    },
    {
      "inputs": [
        {
          "internalType": "address",
          "name": "from",
          "type": "address"
        },
        {
          "internalType": "address",
          "name": "to",
          "type": "address"
        },
        {
          "internalType": "uint256",
          "name": "tokenId",
          "type": "uint256"
        },
        {
          "internalType": "bytes",
          "name": "data",
          "type": "bytes"
        }
      ],
      "name": "safeTransferFrom",
      "outputs": [],
      "stateMutability": "nonpayable",
      "type": "function"
    },
    {
      "inputs": [
        {
          "internalType": "address",
          "name": "operator",
          "type": "address"
        },
        {
          "internalType": "bool",
          "name": "approved",
          "type": "bool"
        }
      ],
      "name": "setApprovalForAll",
      "outputs": [],
      "stateMutability": "nonpayable",
      "type": "function"
    },
    {
      "inputs": [
        {
          "internalType": "string",
          "name": "_newBaseURI",
          "type": "string"
        }
      ],
      "name": "setBaseURI",
      "outputs": [],
      "stateMutability": "nonpayable",
      "type": "function"
    },
    {
      "inputs": [
        {
          "internalType": "address",
          "name": "_newAddress",
          "type": "address"
        }
      ],
      "name": "setCouponAddress",
      "outputs": [],
      "stateMutability": "nonpayable",
      "type": "function"
    },
    {
      "inputs": [
        {
          "internalType": "bytes4",
          "name": "interfaceId",
          "type": "bytes4"
        }
      ],
      "name": "supportsInterface",
      "outputs": [
        {
          "internalType": "bool",
          "name": "",
          "type": "bool"
        }
      ],
      "stateMutability": "view",
      "type": "function"
    },
    {
      "inputs": [],
      "name": "symbol",
      "outputs": [
        {
          "internalType": "string",
          "name": "",
          "type": "string"
        }
      ],
      "stateMutability": "view",
      "type": "function"
    },
    {
      "inputs": [
        {
          "internalType": "uint256",
          "name": "index",
          "type": "uint256"
        }
      ],
      "name": "tokenByIndex",
      "outputs": [
        {
          "internalType": "uint256",
          "name": "",
          "type": "uint256"
        }
      ],
      "stateMutability": "view",
      "type": "function"
    },
    {
      "inputs": [
        {
          "internalType": "address",
          "name": "owner",
          "type": "address"
        },
        {
          "internalType": "uint256",
          "name": "index",
          "type": "uint256"
        }
      ],
      "name": "tokenOfOwnerByIndex",
      "outputs": [
        {
          "internalType": "uint256",
          "name": "",
          "type": "uint256"
        }
      ],
      "stateMutability": "view",
      "type": "function"
    },
    {
      "inputs": [
        {
          "internalType": "uint256",
          "name": "_tokenId",
          "type": "uint256"
        }
      ],
      "name": "tokenURI",
      "outputs": [
        {
          "internalType": "string",
          "name": "",
          "type": "string"
        }
      ],
      "stateMutability": "view",
      "type": "function"
    },
    {
      "inputs": [
        {
          "internalType": "address",
          "name": "owner",
          "type": "address"
        }
      ],
      "name": "totalCouponBalance",
      "outputs": [
        {
          "internalType": "uint256",
          "name": "",
          "type": "uint256"
        }
      ],
      "stateMutability": "view",
      "type": "function"
    },
    {
      "inputs": [],
      "name": "totalSupply",
      "outputs": [
        {
          "internalType": "uint256",
          "name": "",
          "type": "uint256"
        }
      ],
      "stateMutability": "view",
      "type": "function"
    },
    {
      "inputs": [
        {
          "internalType": "address",
          "name": "from",
          "type": "address"
        },
        {
          "internalType": "address",
          "name": "to",
          "type": "address"
        },
        {
          "internalType": "uint256",
          "name": "tokenId",
          "type": "uint256"
        }
      ],
      "name": "transferFrom",
      "outputs": [],
      "stateMutability": "nonpayable",
      "type": "function"
    },
    {
      "inputs": [
        {
          "internalType": "address",
          "name": "newOwner",
          "type": "address"
        }
      ],
      "name": "transferOwnership",
      "outputs": [],
      "stateMutability": "nonpayable",
      "type": "function"
    }
  ],
  "bytecode": "0x60806040526002600d556000600e60006101000a81548160ff0219169083151502179055506000600f5560405180604001604052806040518060a0016040528060798152602001620043256079913981526020016040518060a00160405280607981526020016200439e60799139815250601090600262000082929190620004d2565b503480156200009057600080fd5b5060405162004417380380620044178339818101604052810190620000b6919062000629565b6040518060400160405280600981526020017f504f4150546f6b656e00000000000000000000000000000000000000000000008152506040518060400160405280600381526020017f50544b00000000000000000000000000000000000000000000000000000000008152508160009081620001339190620008d5565b508060019081620001459190620008d5565b505050620001686200015c6200021a60201b60201c565b6200022260201b60201c565b6200017981620002e860201b60201c565b60005b6200018c6200033c60201b60201c565b8110156200021257600160116000620001ab846200034960201b60201c565b73ffffffffffffffffffffffffffffffffffffffff1673ffffffffffffffffffffffffffffffffffffffff16815260200190815260200160002060006101000a81548160ff02191690831515021790555080806200020990620009eb565b9150506200017c565b505062000b2d565b600033905090565b6000600b60009054906101000a900473ffffffffffffffffffffffffffffffffffffffff16905081600b60006101000a81548173ffffffffffffffffffffffffffffffffffffffff021916908373ffffffffffffffffffffffffffffffffffffffff1602179055508173ffffffffffffffffffffffffffffffffffffffff168173ffffffffffffffffffffffffffffffffffffffff167f8be0079c531659141344cd1fd0a4f28419497f9722a3daafe3b4186f6b6457e060405160405180910390a35050565b620002f8620003da60201b60201c565b80600e60016101000a81548173ffffffffffffffffffffffffffffffffffffffff021916908373ffffffffffffffffffffffffffffffffffffffff16021790555050565b6000600880549050905090565b6000806200035d836200046b60201b60201c565b9050600073ffffffffffffffffffffffffffffffffffffffff168173ffffffffffffffffffffffffffffffffffffffff1603620003d1576040517f08c379a0000000000000000000000000000000000000000000000000000000008152600401620003c89062000a99565b60405180910390fd5b80915050919050565b620003ea6200021a60201b60201c565b73ffffffffffffffffffffffffffffffffffffffff1662000410620004a860201b60201c565b73ffffffffffffffffffffffffffffffffffffffff161462000469576040517f08c379a0000000000000000000000000000000000000000000000000000000008152600401620004609062000b0b565b60405180910390fd5b565b60006002600083815260200190815260200160002060009054906101000a900473ffffffffffffffffffffffffffffffffffffffff169050919050565b6000600b60009054906101000a900473ffffffffffffffffffffffffffffffffffffffff16905090565b8280548282559060005260206000209081019282156200051f579160200282015b828111156200051e5782518290816200050d9190620008d5565b5091602001919060010190620004f3565b5b5090506200052e919062000532565b5090565b5b808211156200055657600081816200054c91906200055a565b5060010162000533565b5090565b5080546200056890620006c4565b6000825580601f106200057c57506200059d565b601f0160209004906000526020600020908101906200059c9190620005a0565b5b50565b5b80821115620005bb576000816000905550600101620005a1565b5090565b600080fd5b600073ffffffffffffffffffffffffffffffffffffffff82169050919050565b6000620005f182620005c4565b9050919050565b6200060381620005e4565b81146200060f57600080fd5b50565b6000815190506200062381620005f8565b92915050565b600060208284031215620006425762000641620005bf565b5b6000620006528482850162000612565b91505092915050565b600081519050919050565b7f4e487b7100000000000000000000000000000000000000000000000000000000600052604160045260246000fd5b7f4e487b7100000000000000000000000000000000000000000000000000000000600052602260045260246000fd5b60006002820490506001821680620006dd57607f821691505b602082108103620006f357620006f262000695565b5b50919050565b60008190508160005260206000209050919050565b60006020601f8301049050919050565b600082821b905092915050565b6000600883026200075d7fffffffffffffffffffffffffffffffffffffffffffffffffffffffffffffffff826200071e565b6200076986836200071e565b95508019841693508086168417925050509392505050565b6000819050919050565b6000819050919050565b6000620007b6620007b0620007aa8462000781565b6200078b565b62000781565b9050919050565b6000819050919050565b620007d28362000795565b620007ea620007e182620007bd565b8484546200072b565b825550505050565b600090565b62000801620007f2565b6200080e818484620007c7565b505050565b5b8181101562000836576200082a600082620007f7565b60018101905062000814565b5050565b601f82111562000885576200084f81620006f9565b6200085a846200070e565b810160208510156200086a578190505b6200088262000879856200070e565b83018262000813565b50505b505050565b600082821c905092915050565b6000620008aa600019846008026200088a565b1980831691505092915050565b6000620008c5838362000897565b9150826002028217905092915050565b620008e0826200065b565b67ffffffffffffffff811115620008fc57620008fb62000666565b5b620009088254620006c4565b620009158282856200083a565b600060209050601f8311600181146200094d576000841562000938578287015190505b620009448582620008b7565b865550620009b4565b601f1984166200095d86620006f9565b60005b82811015620009875784890151825560018201915060208501945060208101905062000960565b86831015620009a75784890151620009a3601f89168262000897565b8355505b6001600288020188555050505b505050505050565b7f4e487b7100000000000000000000000000000000000000000000000000000000600052601160045260246000fd5b6000620009f88262000781565b91507fffffffffffffffffffffffffffffffffffffffffffffffffffffffffffffffff820362000a2d5762000a2c620009bc565b5b600182019050919050565b600082825260208201905092915050565b7f4552433732313a20696e76616c696420746f6b656e2049440000000000000000600082015250565b600062000a8160188362000a38565b915062000a8e8262000a49565b602082019050919050565b6000602082019050818103600083015262000ab48162000a72565b9050919050565b7f4f776e61626c653a2063616c6c6572206973206e6f7420746865206f776e6572600082015250565b600062000af360208362000a38565b915062000b008262000abb565b602082019050919050565b6000602082019050818103600083015262000b268162000ae4565b9050919050565b6137e88062000b3d6000396000f3fe608060405234801561001057600080fd5b50600436106101e55760003560e01c80634f6ccce71161010f5780638da5cb5b116100a2578063b97e0d4411610071578063b97e0d441461058f578063c87b56dd146105ad578063e985e9c5146105dd578063f2fde38b1461060d576101e5565b80638da5cb5b1461051b57806395d89b4114610539578063a22cb46514610557578063b88d4fde14610573576101e5565b80636e04ff0d116100de5780636e04ff0d1461049257806370a08231146104c3578063715018a6146104f35780637a394ee4146104fd576101e5565b80634f6ccce7146103f857806355f804b3146104285780635c975abb146104445780636352211e14610462576101e5565b80632f745c59116101875780634585e33b116101565780634585e33b1461035e57806348b9ef401461037a5780634e4496ce146103985780634f164057146103c8576101e5565b80632f745c59146102da57806340522a3d1461030a57806342842e0e1461032657806342966c6814610342576101e5565b8063081812fc116101c3578063081812fc14610254578063095ea7b31461028457806318160ddd146102a057806323b872dd146102be576101e5565b806301ffc9a7146101ea57806302329a291461021a57806306fdde0314610236575b600080fd5b61020460048036038101906101ff919061235c565b610629565b60405161021191906123a4565b60405180910390f35b610234600480360381019061022f91906123eb565b61063b565b005b61023e610660565b60405161024b91906124a8565b60405180910390f35b61026e60048036038101906102699190612500565b6106f2565b60405161027b919061256e565b60405180910390f35b61029e600480360381019061029991906125b5565b610738565b005b6102a861084f565b6040516102b59190612604565b60405180910390f35b6102d860048036038101906102d3919061261f565b61085c565b005b6102f460048036038101906102ef91906125b5565b6108bc565b6040516103019190612604565b60405180910390f35b610324600480360381019061031f9190612672565b610961565b005b610340600480360381019061033b919061261f565b6109ad565b005b61035c60048036038101906103579190612500565b6109cd565b005b61037860048036038101906103739190612704565b6109d9565b005b610382610a04565b60405161038f9190612604565b60405180910390f35b6103b260048036038101906103ad9190612672565b610a0a565b6040516103bf9190612604565b60405180910390f35b6103e260048036038101906103dd9190612672565b610aba565b6040516103ef91906123a4565b60405180910390f35b610412600480360381019061040d9190612500565b610ada565b60405161041f9190612604565b60405180910390f35b610442600480360381019061043d9190612881565b610b4b565b005b61044c610b66565b60405161045991906123a4565b60405180910390f35b61047c60048036038101906104779190612500565b610b79565b604051610489919061256e565b60405180910390f35b6104ac60048036038101906104a79190612704565b610bff565b6040516104ba92919061291f565b60405180910390f35b6104dd60048036038101906104d89190612672565b610c42565b6040516104ea9190612604565b60405180910390f35b6104fb610cf9565b005b610505610d0d565b604051610512919061256e565b60405180910390f35b610523610d33565b604051610530919061256e565b60405180910390f35b610541610d5d565b60405161054e91906124a8565b60405180910390f35b610571600480360381019061056c919061294f565b610def565b005b61058d60048036038101906105889190612a30565b610e05565b005b610597610e67565b6040516105a49190612604565b60405180910390f35b6105c760048036038101906105c29190612500565b610e6d565b6040516105d491906124a8565b60405180910390f35b6105f760048036038101906105f29190612ab3565b610ec6565b60405161060491906123a4565b60405180910390f35b61062760048036038101906106229190612672565b610f5a565b005b600061063482610fdd565b9050919050565b61064361103e565b80600e60006101000a81548160ff02191690831515021790555050565b60606000805461066f90612b22565b80601f016020809104026020016040519081016040528092919081815260200182805461069b90612b22565b80156106e85780601f106106bd576101008083540402835291602001916106e8565b820191906000526020600020905b8154815290600101906020018083116106cb57829003601f168201915b5050505050905090565b60006106fd826110bc565b6004600083815260200190815260200160002060009054906101000a900473ffffffffffffffffffffffffffffffffffffffff169050919050565b600061074382610b79565b90508073ffffffffffffffffffffffffffffffffffffffff168373ffffffffffffffffffffffffffffffffffffffff16036107b3576040517f08c379a00000000000000000000000000000000000000000000000000000000081526004016107aa90612bc5565b60405180910390fd5b8073ffffffffffffffffffffffffffffffffffffffff166107d2611107565b73ffffffffffffffffffffffffffffffffffffffff1614806108015750610800816107fb611107565b610ec6565b5b610840576040517f08c379a000000000000000000000000000000000000000000000000000000000815260040161083790612c57565b60405180910390fd5b61084a838361110f565b505050565b6000600880549050905090565b61086d610867611107565b826111c8565b6108ac576040517f08c379a00000000000000000000000000000000000000000000000000000000081526004016108a390612ce9565b60405180910390fd5b6108b783838361125d565b505050565b60006108c783610c42565b8210610908576040517f08c379a00000000000000000000000000000000000000000000000000000000081526004016108ff90612d7b565b60405180910390fd5b600660008473ffffffffffffffffffffffffffffffffffffffff1673ffffffffffffffffffffffffffffffffffffffff168152602001908152602001600020600083815260200190815260200160002054905092915050565b61096961103e565b80600e60016101000a81548173ffffffffffffffffffffffffffffffffffffffff021916908373ffffffffffffffffffffffffffffffffffffffff16021790555050565b6109c883838360405180602001604052806000815250610e05565b505050565b6109d681611556565b50565b600082828101906109ea9190612500565b90506063816109f99190612dca565b600f81905550505050565b600d5481565b600080600e60019054906101000a900473ffffffffffffffffffffffffffffffffffffffff16905060008173ffffffffffffffffffffffffffffffffffffffff166370a08231856040518263ffffffff1660e01b8152600401610a6d919061256e565b602060405180830381865afa158015610a8a573d6000803e3d6000fd5b505050506040513d601f19601f82011682018060405250810190610aae9190612e13565b90508092505050919050565b60116020528060005260406000206000915054906101000a900460ff1681565b6000610ae461084f565b8210610b25576040517f08c379a0000000000000000000000000000000000000000000000000000000008152600401610b1c90612eb2565b60405180910390fd5b60088281548110610b3957610b38612ed2565b5b90600052602060002001549050919050565b610b5361103e565b80600c9081610b6291906130ad565b5050565b600e60009054906101000a900460ff1681565b600080610b8583611562565b9050600073ffffffffffffffffffffffffffffffffffffffff168173ffffffffffffffffffffffffffffffffffffffff1603610bf6576040517f08c379a0000000000000000000000000000000000000000000000000000000008152600401610bed906131cb565b60405180910390fd5b80915050919050565b600060606000600f5403610c3a57600f54604051602001610c209190612604565b604051602081830303815290604052905060019150610c3b565b5b9250929050565b60008073ffffffffffffffffffffffffffffffffffffffff168273ffffffffffffffffffffffffffffffffffffffff1603610cb2576040517f08c379a0000000000000000000000000000000000000000000000000000000008152600401610ca99061325d565b60405180910390fd5b600360008373ffffffffffffffffffffffffffffffffffffffff1673ffffffffffffffffffffffffffffffffffffffff168152602001908152602001600020549050919050565b610d0161103e565b610d0b600061159f565b565b600e60019054906101000a900473ffffffffffffffffffffffffffffffffffffffff1681565b6000600b60009054906101000a900473ffffffffffffffffffffffffffffffffffffffff16905090565b606060018054610d6c90612b22565b80601f0160208091040260200160405190810160405280929190818152602001828054610d9890612b22565b8015610de55780601f10610dba57610100808354040283529160200191610de5565b820191906000526020600020905b815481529060010190602001808311610dc857829003601f168201915b5050505050905090565b610e01610dfa611107565b8383611665565b5050565b610e16610e10611107565b836111c8565b610e55576040517f08c379a0000000000000000000000000000000000000000000000000000000008152600401610e4c90612ce9565b60405180910390fd5b610e61848484846117d1565b50505050565b600f5481565b6060610e788261182d565b610eb7576040517f08c379a0000000000000000000000000000000000000000000000000000000008152600401610eae906132ef565b60405180910390fd5b610ebf61186e565b9050919050565b6000600560008473ffffffffffffffffffffffffffffffffffffffff1673ffffffffffffffffffffffffffffffffffffffff16815260200190815260200160002060008373ffffffffffffffffffffffffffffffffffffffff1673ffffffffffffffffffffffffffffffffffffffff16815260200190815260200160002060009054906101000a900460ff16905092915050565b610f6261103e565b600073ffffffffffffffffffffffffffffffffffffffff168173ffffffffffffffffffffffffffffffffffffffff1603610fd1576040517f08c379a0000000000000000000000000000000000000000000000000000000008152600401610fc890613381565b60405180910390fd5b610fda8161159f565b50565b6000634906490660e01b7bffffffffffffffffffffffffffffffffffffffffffffffffffffffff1916827bffffffffffffffffffffffffffffffffffffffffffffffffffffffff19161480611037575061103682611900565b5b9050919050565b611046611107565b73ffffffffffffffffffffffffffffffffffffffff16611064610d33565b73ffffffffffffffffffffffffffffffffffffffff16146110ba576040517f08c379a00000000000000000000000000000000000000000000000000000000081526004016110b1906133ed565b60405180910390fd5b565b6110c58161182d565b611104576040517f08c379a00000000000000000000000000000000000000000000000000000000081526004016110fb906131cb565b60405180910390fd5b50565b600033905090565b816004600083815260200190815260200160002060006101000a81548173ffffffffffffffffffffffffffffffffffffffff021916908373ffffffffffffffffffffffffffffffffffffffff160217905550808273ffffffffffffffffffffffffffffffffffffffff1661118283610b79565b73ffffffffffffffffffffffffffffffffffffffff167f8c5be1e5ebec7d5bd14f71427d1e84f3dd0314c0f7b2291e5b200ac8c7c3b92560405160405180910390a45050565b6000806111d483610b79565b90508073ffffffffffffffffffffffffffffffffffffffff168473ffffffffffffffffffffffffffffffffffffffff16148061121657506112158185610ec6565b5b8061125457508373ffffffffffffffffffffffffffffffffffffffff1661123c846106f2565b73ffffffffffffffffffffffffffffffffffffffff16145b91505092915050565b8273ffffffffffffffffffffffffffffffffffffffff1661127d82610b79565b73ffffffffffffffffffffffffffffffffffffffff16146112d3576040517f08c379a00000000000000000000000000000000000000000000000000000000081526004016112ca9061347f565b60405180910390fd5b600073ffffffffffffffffffffffffffffffffffffffff168273ffffffffffffffffffffffffffffffffffffffff1603611342576040517f08c379a000000000000000000000000000000000000000000000000000000000815260040161133990613511565b60405180910390fd5b61134f838383600161197a565b8273ffffffffffffffffffffffffffffffffffffffff1661136f82610b79565b73ffffffffffffffffffffffffffffffffffffffff16146113c5576040517f08c379a00000000000000000000000000000000000000000000000000000000081526004016113bc9061347f565b60405180910390fd5b6004600082815260200190815260200160002060006101000a81549073ffffffffffffffffffffffffffffffffffffffff02191690556001600360008573ffffffffffffffffffffffffffffffffffffffff1673ffffffffffffffffffffffffffffffffffffffff168152602001908152602001600020600082825403925050819055506001600360008473ffffffffffffffffffffffffffffffffffffffff1673ffffffffffffffffffffffffffffffffffffffff16815260200190815260200160002060008282540192505081905550816002600083815260200190815260200160002060006101000a81548173ffffffffffffffffffffffffffffffffffffffff021916908373ffffffffffffffffffffffffffffffffffffffff160217905550808273ffffffffffffffffffffffffffffffffffffffff168473ffffffffffffffffffffffffffffffffffffffff167fddf252ad1be2c89b69c2b068fc378daa952ba7f163c4a11628f55a4df523b3ef60405160405180910390a4611551838383600161198c565b505050565b61155f81611992565b50565b60006002600083815260200190815260200160002060009054906101000a900473ffffffffffffffffffffffffffffffffffffffff169050919050565b6000600b60009054906101000a900473ffffffffffffffffffffffffffffffffffffffff16905081600b60006101000a81548173ffffffffffffffffffffffffffffffffffffffff021916908373ffffffffffffffffffffffffffffffffffffffff1602179055508173ffffffffffffffffffffffffffffffffffffffff168173ffffffffffffffffffffffffffffffffffffffff167f8be0079c531659141344cd1fd0a4f28419497f9722a3daafe3b4186f6b6457e060405160405180910390a35050565b8173ffffffffffffffffffffffffffffffffffffffff168373ffffffffffffffffffffffffffffffffffffffff16036116d3576040517f08c379a00000000000000000000000000000000000000000000000000000000081526004016116ca9061357d565b60405180910390fd5b80600560008573ffffffffffffffffffffffffffffffffffffffff1673ffffffffffffffffffffffffffffffffffffffff16815260200190815260200160002060008473ffffffffffffffffffffffffffffffffffffffff1673ffffffffffffffffffffffffffffffffffffffff16815260200190815260200160002060006101000a81548160ff0219169083151502179055508173ffffffffffffffffffffffffffffffffffffffff168373ffffffffffffffffffffffffffffffffffffffff167f17307eab39ab6107e8899845ad3d59bd9653f200f220920489ca2b5937696c31836040516117c491906123a4565b60405180910390a3505050565b6117dc84848461125d565b6117e8848484846119e5565b611827576040517f08c379a000000000000000000000000000000000000000000000000000000000815260040161181e9061360f565b60405180910390fd5b50505050565b60008073ffffffffffffffffffffffffffffffffffffffff1661184f83611562565b73ffffffffffffffffffffffffffffffffffffffff1614159050919050565b6060600c805461187d90612b22565b80601f01602080910402602001604051908101604052809291908181526020018280546118a990612b22565b80156118f65780601f106118cb576101008083540402835291602001916118f6565b820191906000526020600020905b8154815290600101906020018083116118d957829003601f168201915b5050505050905090565b60007f780e9d63000000000000000000000000000000000000000000000000000000007bffffffffffffffffffffffffffffffffffffffffffffffffffffffff1916827bffffffffffffffffffffffffffffffffffffffffffffffffffffffff19161480611973575061197282611b6c565b5b9050919050565b61198684848484611c4e565b50505050565b50505050565b61199b81611dac565b6000600a600083815260200190815260200160002080546119bb90612b22565b9050146119e257600a600082815260200190815260200160002060006119e19190612293565b5b50565b6000611a068473ffffffffffffffffffffffffffffffffffffffff16611efa565b15611b5f578373ffffffffffffffffffffffffffffffffffffffff1663150b7a02611a2f611107565b8786866040518563ffffffff1660e01b8152600401611a51949392919061362f565b6020604051808303816000875af1925050508015611a8d57506040513d601f19601f82011682018060405250810190611a8a9190613690565b60015b611b0f573d8060008114611abd576040519150601f19603f3d011682016040523d82523d6000602084013e611ac2565b606091505b506000815103611b07576040517f08c379a0000000000000000000000000000000000000000000000000000000008152600401611afe9061360f565b60405180910390fd5b805181602001fd5b63150b7a0260e01b7bffffffffffffffffffffffffffffffffffffffffffffffffffffffff1916817bffffffffffffffffffffffffffffffffffffffffffffffffffffffff191614915050611b64565b600190505b949350505050565b60007f80ac58cd000000000000000000000000000000000000000000000000000000007bffffffffffffffffffffffffffffffffffffffffffffffffffffffff1916827bffffffffffffffffffffffffffffffffffffffffffffffffffffffff19161480611c3757507f5b5e139f000000000000000000000000000000000000000000000000000000007bffffffffffffffffffffffffffffffffffffffffffffffffffffffff1916827bffffffffffffffffffffffffffffffffffffffffffffffffffffffff1916145b80611c475750611c4682611f1d565b5b9050919050565b611c5a84848484611f87565b6001811115611c9e576040517f08c379a0000000000000000000000000000000000000000000000000000000008152600401611c959061372f565b60405180910390fd5b6000829050600073ffffffffffffffffffffffffffffffffffffffff168573ffffffffffffffffffffffffffffffffffffffff1603611ce557611ce081611f8d565b611d24565b8373ffffffffffffffffffffffffffffffffffffffff168573ffffffffffffffffffffffffffffffffffffffff1614611d2357611d228582611fd6565b5b5b600073ffffffffffffffffffffffffffffffffffffffff168473ffffffffffffffffffffffffffffffffffffffff1603611d6657611d6181612143565b611da5565b8473ffffffffffffffffffffffffffffffffffffffff168473ffffffffffffffffffffffffffffffffffffffff1614611da457611da38482612214565b5b5b5050505050565b6000611db782610b79565b9050611dc781600084600161197a565b611dd082610b79565b90506004600083815260200190815260200160002060006101000a81549073ffffffffffffffffffffffffffffffffffffffff02191690556001600360008373ffffffffffffffffffffffffffffffffffffffff1673ffffffffffffffffffffffffffffffffffffffff168152602001908152602001600020600082825403925050819055506002600083815260200190815260200160002060006101000a81549073ffffffffffffffffffffffffffffffffffffffff021916905581600073ffffffffffffffffffffffffffffffffffffffff168273ffffffffffffffffffffffffffffffffffffffff167fddf252ad1be2c89b69c2b068fc378daa952ba7f163c4a11628f55a4df523b3ef60405160405180910390a4611ef681600084600161198c565b5050565b6000808273ffffffffffffffffffffffffffffffffffffffff163b119050919050565b60007f01ffc9a7000000000000000000000000000000000000000000000000000000007bffffffffffffffffffffffffffffffffffffffffffffffffffffffff1916827bffffffffffffffffffffffffffffffffffffffffffffffffffffffff1916149050919050565b50505050565b6008805490506009600083815260200190815260200160002081905550600881908060018154018082558091505060019003906000526020600020016000909190919091505550565b60006001611fe384610c42565b611fed919061374f565b90506000600760008481526020019081526020016000205490508181146120d2576000600660008673ffffffffffffffffffffffffffffffffffffffff1673ffffffffffffffffffffffffffffffffffffffff168152602001908152602001600020600084815260200190815260200160002054905080600660008773ffffffffffffffffffffffffffffffffffffffff1673ffffffffffffffffffffffffffffffffffffffff168152602001908152602001600020600084815260200190815260200160002081905550816007600083815260200190815260200160002081905550505b6007600084815260200190815260200160002060009055600660008573ffffffffffffffffffffffffffffffffffffffff1673ffffffffffffffffffffffffffffffffffffffff16815260200190815260200160002060008381526020019081526020016000206000905550505050565b60006001600880549050612157919061374f565b905060006009600084815260200190815260200160002054905060006008838154811061218757612186612ed2565b5b9060005260206000200154905080600883815481106121a9576121a8612ed2565b5b9060005260206000200181905550816009600083815260200190815260200160002081905550600960008581526020019081526020016000206000905560088054806121f8576121f7613783565b5b6001900381819060005260206000200160009055905550505050565b600061221f83610c42565b905081600660008573ffffffffffffffffffffffffffffffffffffffff1673ffffffffffffffffffffffffffffffffffffffff168152602001908152602001600020600083815260200190815260200160002081905550806007600084815260200190815260200160002081905550505050565b50805461229f90612b22565b6000825580601f106122b157506122d0565b601f0160209004906000526020600020908101906122cf91906122d3565b5b50565b5b808211156122ec5760008160009055506001016122d4565b5090565b6000604051905090565b600080fd5b600080fd5b60007fffffffff0000000000000000000000000000000000000000000000000000000082169050919050565b61233981612304565b811461234457600080fd5b50565b60008135905061235681612330565b92915050565b600060208284031215612372576123716122fa565b5b600061238084828501612347565b91505092915050565b60008115159050919050565b61239e81612389565b82525050565b60006020820190506123b96000830184612395565b92915050565b6123c881612389565b81146123d357600080fd5b50565b6000813590506123e5816123bf565b92915050565b600060208284031215612401576124006122fa565b5b600061240f848285016123d6565b91505092915050565b600081519050919050565b600082825260208201905092915050565b60005b83811015612452578082015181840152602081019050612437565b60008484015250505050565b6000601f19601f8301169050919050565b600061247a82612418565b6124848185612423565b9350612494818560208601612434565b61249d8161245e565b840191505092915050565b600060208201905081810360008301526124c2818461246f565b905092915050565b6000819050919050565b6124dd816124ca565b81146124e857600080fd5b50565b6000813590506124fa816124d4565b92915050565b600060208284031215612516576125156122fa565b5b6000612524848285016124eb565b91505092915050565b600073ffffffffffffffffffffffffffffffffffffffff82169050919050565b60006125588261252d565b9050919050565b6125688161254d565b82525050565b6000602082019050612583600083018461255f565b92915050565b6125928161254d565b811461259d57600080fd5b50565b6000813590506125af81612589565b92915050565b600080604083850312156125cc576125cb6122fa565b5b60006125da858286016125a0565b92505060206125eb858286016124eb565b9150509250929050565b6125fe816124ca565b82525050565b600060208201905061261960008301846125f5565b92915050565b600080600060608486031215612638576126376122fa565b5b6000612646868287016125a0565b9350506020612657868287016125a0565b9250506040612668868287016124eb565b9150509250925092565b600060208284031215612688576126876122fa565b5b6000612696848285016125a0565b91505092915050565b600080fd5b600080fd5b600080fd5b60008083601f8401126126c4576126c361269f565b5b8235905067ffffffffffffffff8111156126e1576126e06126a4565b5b6020830191508360018202830111156126fd576126fc6126a9565b5b9250929050565b6000806020838503121561271b5761271a6122fa565b5b600083013567ffffffffffffffff811115612739576127386122ff565b5b612745858286016126ae565b92509250509250929050565b600080fd5b7f4e487b7100000000000000000000000000000000000000000000000000000000600052604160045260246000fd5b61278e8261245e565b810181811067ffffffffffffffff821117156127ad576127ac612756565b5b80604052505050565b60006127c06122f0565b90506127cc8282612785565b919050565b600067ffffffffffffffff8211156127ec576127eb612756565b5b6127f58261245e565b9050602081019050919050565b82818337600083830152505050565b600061282461281f846127d1565b6127b6565b9050828152602081018484840111156128405761283f612751565b5b61284b848285612802565b509392505050565b600082601f8301126128685761286761269f565b5b8135612878848260208601612811565b91505092915050565b600060208284031215612897576128966122fa565b5b600082013567ffffffffffffffff8111156128b5576128b46122ff565b5b6128c184828501612853565b91505092915050565b600081519050919050565b600082825260208201905092915050565b60006128f1826128ca565b6128fb81856128d5565b935061290b818560208601612434565b6129148161245e565b840191505092915050565b60006040820190506129346000830185612395565b818103602083015261294681846128e6565b90509392505050565b60008060408385031215612966576129656122fa565b5b6000612974858286016125a0565b9250506020612985858286016123d6565b9150509250929050565b600067ffffffffffffffff8211156129aa576129a9612756565b5b6129b38261245e565b9050602081019050919050565b60006129d36129ce8461298f565b6127b6565b9050828152602081018484840111156129ef576129ee612751565b5b6129fa848285612802565b509392505050565b600082601f830112612a1757612a1661269f565b5b8135612a278482602086016129c0565b91505092915050565b60008060008060808587031215612a4a57612a496122fa565b5b6000612a58878288016125a0565b9450506020612a69878288016125a0565b9350506040612a7a878288016124eb565b925050606085013567ffffffffffffffff811115612a9b57612a9a6122ff565b5b612aa787828801612a02565b91505092959194509250565b60008060408385031215612aca57612ac96122fa565b5b6000612ad8858286016125a0565b9250506020612ae9858286016125a0565b9150509250929050565b7f4e487b7100000000000000000000000000000000000000000000000000000000600052602260045260246000fd5b60006002820490506001821680612b3a57607f821691505b602082108103612b4d57612b4c612af3565b5b50919050565b7f4552433732313a20617070726f76616c20746f2063757272656e74206f776e6560008201527f7200000000000000000000000000000000000000000000000000000000000000602082015250565b6000612baf602183612423565b9150612bba82612b53565b604082019050919050565b60006020820190508181036000830152612bde81612ba2565b9050919050565b7f4552433732313a20617070726f76652063616c6c6572206973206e6f7420746f60008201527f6b656e206f776e6572206f7220617070726f76656420666f7220616c6c000000602082015250565b6000612c41603d83612423565b9150612c4c82612be5565b604082019050919050565b60006020820190508181036000830152612c7081612c34565b9050919050565b7f4552433732313a2063616c6c6572206973206e6f7420746f6b656e206f776e6560008201527f72206f7220617070726f76656400000000000000000000000000000000000000602082015250565b6000612cd3602d83612423565b9150612cde82612c77565b604082019050919050565b60006020820190508181036000830152612d0281612cc6565b9050919050565b7f455243373231456e756d657261626c653a206f776e657220696e646578206f7560008201527f74206f6620626f756e6473000000000000000000000000000000000000000000602082015250565b6000612d65602b83612423565b9150612d7082612d09565b604082019050919050565b60006020820190508181036000830152612d9481612d58565b9050919050565b7f4e487b7100000000000000000000000000000000000000000000000000000000600052601160045260246000fd5b6000612dd5826124ca565b9150612de0836124ca565b9250828201905080821115612df857612df7612d9b565b5b92915050565b600081519050612e0d816124d4565b92915050565b600060208284031215612e2957612e286122fa565b5b6000612e3784828501612dfe565b91505092915050565b7f455243373231456e756d657261626c653a20676c6f62616c20696e646578206f60008201527f7574206f6620626f756e64730000000000000000000000000000000000000000602082015250565b6000612e9c602c83612423565b9150612ea782612e40565b604082019050919050565b60006020820190508181036000830152612ecb81612e8f565b9050919050565b7f4e487b7100000000000000000000000000000000000000000000000000000000600052603260045260246000fd5b60008190508160005260206000209050919050565b60006020601f8301049050919050565b600082821b905092915050565b600060088302612f637fffffffffffffffffffffffffffffffffffffffffffffffffffffffffffffffff82612f26565b612f6d8683612f26565b95508019841693508086168417925050509392505050565b6000819050919050565b6000612faa612fa5612fa0846124ca565b612f85565b6124ca565b9050919050565b6000819050919050565b612fc483612f8f565b612fd8612fd082612fb1565b848454612f33565b825550505050565b600090565b612fed612fe0565b612ff8818484612fbb565b505050565b5b8181101561301c57613011600082612fe5565b600181019050612ffe565b5050565b601f8211156130615761303281612f01565b61303b84612f16565b8101602085101561304a578190505b61305e61305685612f16565b830182612ffd565b50505b505050565b600082821c905092915050565b600061308460001984600802613066565b1980831691505092915050565b600061309d8383613073565b9150826002028217905092915050565b6130b682612418565b67ffffffffffffffff8111156130cf576130ce612756565b5b6130d98254612b22565b6130e4828285613020565b600060209050601f8311600181146131175760008415613105578287015190505b61310f8582613091565b865550613177565b601f19841661312586612f01565b60005b8281101561314d57848901518255600182019150602085019450602081019050613128565b8683101561316a5784890151613166601f891682613073565b8355505b6001600288020188555050505b505050505050565b7f4552433732313a20696e76616c696420746f6b656e2049440000000000000000600082015250565b60006131b5601883612423565b91506131c08261317f565b602082019050919050565b600060208201905081810360008301526131e4816131a8565b9050919050565b7f4552433732313a2061646472657373207a65726f206973206e6f74206120766160008201527f6c6964206f776e65720000000000000000000000000000000000000000000000602082015250565b6000613247602983612423565b9150613252826131eb565b604082019050919050565b600060208201905081810360008301526132768161323a565b9050919050565b7f4552433732314d657461646174613a2055524920717565727920666f72206e6f60008201527f6e6578697374656e7420746f6b656e2e00000000000000000000000000000000602082015250565b60006132d9603083612423565b91506132e48261327d565b604082019050919050565b60006020820190508181036000830152613308816132cc565b9050919050565b7f4f776e61626c653a206e6577206f776e657220697320746865207a65726f206160008201527f6464726573730000000000000000000000000000000000000000000000000000602082015250565b600061336b602683612423565b91506133768261330f565b604082019050919050565b6000602082019050818103600083015261339a8161335e565b9050919050565b7f4f776e61626c653a2063616c6c6572206973206e6f7420746865206f776e6572600082015250565b60006133d7602083612423565b91506133e2826133a1565b602082019050919050565b60006020820190508181036000830152613406816133ca565b9050919050565b7f4552433732313a207472616e736665722066726f6d20696e636f72726563742060008201527f6f776e6572000000000000000000000000000000000000000000000000000000602082015250565b6000613469602583612423565b91506134748261340d565b604082019050919050565b600060208201905081810360008301526134988161345c565b9050919050565b7f4552433732313a207472616e7366657220746f20746865207a65726f2061646460008201527f7265737300000000000000000000000000000000000000000000000000000000602082015250565b60006134fb602483612423565b91506135068261349f565b604082019050919050565b6000602082019050818103600083015261352a816134ee565b9050919050565b7f4552433732313a20617070726f766520746f2063616c6c657200000000000000600082015250565b6000613567601983612423565b915061357282613531565b602082019050919050565b600060208201905081810360008301526135968161355a565b9050919050565b7f4552433732313a207472616e7366657220746f206e6f6e20455243373231526560008201527f63656976657220696d706c656d656e7465720000000000000000000000000000602082015250565b60006135f9603283612423565b91506136048261359d565b604082019050919050565b60006020820190508181036000830152613628816135ec565b9050919050565b6000608082019050613644600083018761255f565b613651602083018661255f565b61365e60408301856125f5565b818103606083015261367081846128e6565b905095945050505050565b60008151905061368a81612330565b92915050565b6000602082840312156136a6576136a56122fa565b5b60006136b48482850161367b565b91505092915050565b7f455243373231456e756d657261626c653a20636f6e736563757469766520747260008201527f616e7366657273206e6f7420737570706f727465640000000000000000000000602082015250565b6000613719603583612423565b9150613724826136bd565b604082019050919050565b600060208201905081810360008301526137488161370c565b9050919050565b600061375a826124ca565b9150613765836124ca565b925082820390508181111561377d5761377c612d9b565b5b92915050565b7f4e487b7100000000000000000000000000000000000000000000000000000000600052603160045260246000fdfea2646970667358221220116fb2f370136d2060412e5092bf5e986e008dcca7ad4a40b1e07033fb97ae5864736f6c6343000813003368747470733a2f2f666972656261736573746f726167652e676f6f676c65617069732e636f6d2f76302f622f706c61746661726d6d656d65626572736869702d746573742e61707073706f742e636f6d2f6f2f6e66742532466d65746164617461253246706f61705f302e6a736f6e3f616c743d6d6564696168747470733a2f2f666972656261736573746f726167652e676f6f676c65617069732e636f6d2f76302f622f706c61746661726d6d656d65626572736869702d746573742e61707073706f742e636f6d2f6f2f6e66742532466d65746164617461253246706f61705f312e6a736f6e3f616c743d6d65646961",
  "linkReferences": {},
  "deployedLinkReferences": {}
}