{
  "_format": "hh-sol-artifact-1",
  "contractName": "Benefit",
  "sourceName": "contracts/Benefit.sol",
  "abi": [
    {
      "inputs": [
        {
          "internalType": "string",
          "name": "_initBaseURI",
          "type": "string"
        },
        {
          "internalType": "address",
          "name": "_initCouponAddress",
          "type": "address"
        }
      ],
      "stateMutability": "nonpayable",
      "type": "constructor"
    },
    {
      "inputs": [],
      "name": "OnlySimulatedBackend",
      "type": "error"
    },
    {
      "anonymous": false,
      "inputs": [
        {
          "indexed": true,
          "internalType": "address",
          "name": "owner",
          "type": "address"
        },
        {
          "indexed": true,
          "internalType": "address",
          "name": "approved",
          "type": "address"
        },
        {
          "indexed": true,
          "internalType": "uint256",
          "name": "tokenId",
          "type": "uint256"
        }
      ],
      "name": "Approval",
      "type": "event"
    },
    {
      "anonymous": false,
      "inputs": [
        {
          "indexed": true,
          "internalType": "address",
          "name": "owner",
          "type": "address"
        },
        {
          "indexed": true,
          "internalType": "address",
          "name": "operator",
          "type": "address"
        },
        {
          "indexed": false,
          "internalType": "bool",
          "name": "approved",
          "type": "bool"
        }
      ],
      "name": "ApprovalForAll",
      "type": "event"
    },
    {
      "anonymous": false,
      "inputs": [
        {
          "indexed": true,
          "internalType": "address",
          "name": "previousOwner",
          "type": "address"
        },
        {
          "indexed": true,
          "internalType": "address",
          "name": "newOwner",
          "type": "address"
        }
      ],
      "name": "OwnershipTransferred",
      "type": "event"
    },
    {
      "anonymous": false,
      "inputs": [
        {
          "indexed": true,
          "internalType": "address",
          "name": "from",
          "type": "address"
        },
        {
          "indexed": true,
          "internalType": "address",
          "name": "to",
          "type": "address"
        },
        {
          "indexed": true,
          "internalType": "uint256",
          "name": "tokenId",
          "type": "uint256"
        }
      ],
      "name": "Transfer",
      "type": "event"
    },
    {
      "inputs": [
        {
          "internalType": "address",
          "name": "to",
          "type": "address"
        },
        {
          "internalType": "uint256",
          "name": "tokenId",
          "type": "uint256"
        }
      ],
      "name": "approve",
      "outputs": [],
      "stateMutability": "nonpayable",
      "type": "function"
    },
    {
      "inputs": [
        {
          "internalType": "address",
          "name": "owner",
          "type": "address"
        }
      ],
      "name": "balanceOf",
      "outputs": [
        {
          "internalType": "uint256",
          "name": "",
          "type": "uint256"
        }
      ],
      "stateMutability": "view",
      "type": "function"
    },
    {
      "inputs": [
        {
          "internalType": "bytes",
          "name": "checkData",
          "type": "bytes"
        }
      ],
      "name": "checkUpkeep",
      "outputs": [
        {
          "internalType": "bool",
          "name": "upkeepNeeded",
          "type": "bool"
        },
        {
          "internalType": "bytes",
          "name": "performData",
          "type": "bytes"
        }
      ],
      "stateMutability": "view",
      "type": "function"
    },
    {
      "inputs": [],
      "name": "claim",
      "outputs": [],
      "stateMutability": "nonpayable",
      "type": "function"
    },
    {
      "inputs": [],
      "name": "couponAddress",
      "outputs": [
        {
          "internalType": "address",
          "name": "",
          "type": "address"
        }
      ],
      "stateMutability": "view",
      "type": "function"
    },
    {
      "inputs": [],
      "name": "currentSender",
      "outputs": [
        {
          "internalType": "address",
          "name": "",
          "type": "address"
        }
      ],
      "stateMutability": "view",
      "type": "function"
    },
    {
      "inputs": [
        {
          "internalType": "uint256",
          "name": "tokenId",
          "type": "uint256"
        }
      ],
      "name": "getApproved",
      "outputs": [
        {
          "internalType": "address",
          "name": "",
          "type": "address"
        }
      ],
      "stateMutability": "view",
      "type": "function"
    },
    {
      "inputs": [
        {
          "internalType": "address",
          "name": "owner",
          "type": "address"
        },
        {
          "internalType": "address",
          "name": "operator",
          "type": "address"
        }
      ],
      "name": "isApprovedForAll",
      "outputs": [
        {
          "internalType": "bool",
          "name": "",
          "type": "bool"
        }
      ],
      "stateMutability": "view",
      "type": "function"
    },
    {
      "inputs": [],
      "name": "name",
      "outputs": [
        {
          "internalType": "string",
          "name": "",
          "type": "string"
        }
      ],
      "stateMutability": "view",
      "type": "function"
    },
    {
      "inputs": [],
      "name": "owner",
      "outputs": [
        {
          "internalType": "address",
          "name": "",
          "type": "address"
        }
      ],
      "stateMutability": "view",
      "type": "function"
    },
    {
      "inputs": [
        {
          "internalType": "uint256",
          "name": "tokenId",
          "type": "uint256"
        }
      ],
      "name": "ownerOf",
      "outputs": [
        {
          "internalType": "address",
          "name": "",
          "type": "address"
        }
      ],
      "stateMutability": "view",
      "type": "function"
    },
    {
      "inputs": [
        {
          "internalType": "bool",
          "name": "_state",
          "type": "bool"
        }
      ],
      "name": "pause",
      "outputs": [],
      "stateMutability": "nonpayable",
      "type": "function"
    },
    {
      "inputs": [],
      "name": "paused",
      "outputs": [
        {
          "internalType": "bool",
          "name": "",
          "type": "bool"
        }
      ],
      "stateMutability": "view",
      "type": "function"
    },
    {
      "inputs": [
        {
          "internalType": "bytes",
          "name": "performData",
          "type": "bytes"
        }
      ],
      "name": "performUpkeep",
      "outputs": [],
      "stateMutability": "nonpayable",
      "type": "function"
    },
    {
      "inputs": [],
      "name": "renounceOwnership",
      "outputs": [],
      "stateMutability": "nonpayable",
      "type": "function"
    },
    {
      "inputs": [],
      "name": "requiredAmount",
      "outputs": [
        {
          "internalType": "uint256",
          "name": "",
          "type": "uint256"
        }
      ],
      "stateMutability": "view",
      "type": "function"
    },
    {
      "inputs": [
        {
          "internalType": "address",
          "name": "from",
          "type": "address"
        },
        {
          "internalType": "address",
          "name": "to",
          "type": "address"
        },
        {
          "internalType": "uint256",
          "name": "tokenId",
          "type": "uint256"
        }
      ],
      "name": "safeTransferFrom",
      "outputs": [],
      "stateMutability": "nonpayable",
      "type": "function"
    },
    {
      "inputs": [
        {
          "internalType": "address",
          "name": "from",
          "type": "address"
        },
        {
          "internalType": "address",
          "name": "to",
          "type": "address"
        },
        {
          "internalType": "uint256",
          "name": "tokenId",
          "type": "uint256"
        },
        {
          "internalType": "bytes",
          "name": "data",
          "type": "bytes"
        }
      ],
      "name": "safeTransferFrom",
      "outputs": [],
      "stateMutability": "nonpayable",
      "type": "function"
    },
    {
      "inputs": [
        {
          "internalType": "address",
          "name": "operator",
          "type": "address"
        },
        {
          "internalType": "bool",
          "name": "approved",
          "type": "bool"
        }
      ],
      "name": "setApprovalForAll",
      "outputs": [],
      "stateMutability": "nonpayable",
      "type": "function"
    },
    {
      "inputs": [
        {
          "internalType": "string",
          "name": "_newBaseURI",
          "type": "string"
        }
      ],
      "name": "setBaseURI",
      "outputs": [],
      "stateMutability": "nonpayable",
      "type": "function"
    },
    {
      "inputs": [
        {
          "internalType": "address",
          "name": "_newAddress",
          "type": "address"
        }
      ],
      "name": "setCouponAddress",
      "outputs": [],
      "stateMutability": "nonpayable",
      "type": "function"
    },
    {
      "inputs": [
        {
          "internalType": "bytes4",
          "name": "interfaceId",
          "type": "bytes4"
        }
      ],
      "name": "supportsInterface",
      "outputs": [
        {
          "internalType": "bool",
          "name": "",
          "type": "bool"
        }
      ],
      "stateMutability": "view",
      "type": "function"
    },
    {
      "inputs": [],
      "name": "symbol",
      "outputs": [
        {
          "internalType": "string",
          "name": "",
          "type": "string"
        }
      ],
      "stateMutability": "view",
      "type": "function"
    },
    {
      "inputs": [
        {
          "internalType": "uint256",
          "name": "index",
          "type": "uint256"
        }
      ],
      "name": "tokenByIndex",
      "outputs": [
        {
          "internalType": "uint256",
          "name": "",
          "type": "uint256"
        }
      ],
      "stateMutability": "view",
      "type": "function"
    },
    {
      "inputs": [
        {
          "internalType": "address",
          "name": "owner",
          "type": "address"
        },
        {
          "internalType": "uint256",
          "name": "index",
          "type": "uint256"
        }
      ],
      "name": "tokenOfOwnerByIndex",
      "outputs": [
        {
          "internalType": "uint256",
          "name": "",
          "type": "uint256"
        }
      ],
      "stateMutability": "view",
      "type": "function"
    },
    {
      "inputs": [
        {
          "internalType": "uint256",
          "name": "_tokenId",
          "type": "uint256"
        }
      ],
      "name": "tokenURI",
      "outputs": [
        {
          "internalType": "string",
          "name": "",
          "type": "string"
        }
      ],
      "stateMutability": "view",
      "type": "function"
    },
    {
      "inputs": [
        {
          "internalType": "address",
          "name": "owner",
          "type": "address"
        }
      ],
      "name": "totalCouponBalance",
      "outputs": [
        {
          "internalType": "uint256",
          "name": "",
          "type": "uint256"
        }
      ],
      "stateMutability": "view",
      "type": "function"
    },
    {
      "inputs": [],
      "name": "totalCouponBalanceOfSender",
      "outputs": [
        {
          "internalType": "uint256",
          "name": "",
          "type": "uint256"
        }
      ],
      "stateMutability": "view",
      "type": "function"
    },
    {
      "inputs": [],
      "name": "totalSupply",
      "outputs": [
        {
          "internalType": "uint256",
          "name": "",
          "type": "uint256"
        }
      ],
      "stateMutability": "view",
      "type": "function"
    },
    {
      "inputs": [
        {
          "internalType": "address",
          "name": "from",
          "type": "address"
        },
        {
          "internalType": "address",
          "name": "to",
          "type": "address"
        },
        {
          "internalType": "uint256",
          "name": "tokenId",
          "type": "uint256"
        }
      ],
      "name": "transferFrom",
      "outputs": [],
      "stateMutability": "nonpayable",
      "type": "function"
    },
    {
      "inputs": [
        {
          "internalType": "address",
          "name": "newOwner",
          "type": "address"
        }
      ],
      "name": "transferOwnership",
      "outputs": [],
      "stateMutability": "nonpayable",
      "type": "function"
    }
  ],
  "bytecode": "0x60806040526002600c556000600d60006101000a81548160ff02191690831515021790555033600e60006101000a81548173ffffffffffffffffffffffffffffffffffffffff021916908373ffffffffffffffffffffffffffffffffffffffff1602179055503480156200007257600080fd5b50604051620046983803806200469883398181016040528101906200009891906200056e565b6040518060400160405280600681526020017f42546f6b656e00000000000000000000000000000000000000000000000000008152506040518060400160405280600381526020017f42544b000000000000000000000000000000000000000000000000000000000081525081600090816200011591906200081f565b5080600190816200012791906200081f565b5050506200014a6200013e6200017460201b60201c565b6200017c60201b60201c565b6200015b826200024260201b60201c565b6200016c816200026760201b60201c565b505062000989565b600033905090565b6000600a60009054906101000a900473ffffffffffffffffffffffffffffffffffffffff16905081600a60006101000a81548173ffffffffffffffffffffffffffffffffffffffff021916908373ffffffffffffffffffffffffffffffffffffffff1602179055508173ffffffffffffffffffffffffffffffffffffffff168173ffffffffffffffffffffffffffffffffffffffff167f8be0079c531659141344cd1fd0a4f28419497f9722a3daafe3b4186f6b6457e060405160405180910390a35050565b62000252620002bb60201b60201c565b80600b90816200026391906200081f565b5050565b62000277620002bb60201b60201c565b80600d60016101000a81548173ffffffffffffffffffffffffffffffffffffffff021916908373ffffffffffffffffffffffffffffffffffffffff16021790555050565b620002cb6200017460201b60201c565b73ffffffffffffffffffffffffffffffffffffffff16620002f16200034c60201b60201c565b73ffffffffffffffffffffffffffffffffffffffff16146200034a576040517f08c379a0000000000000000000000000000000000000000000000000000000008152600401620003419062000967565b60405180910390fd5b565b6000600a60009054906101000a900473ffffffffffffffffffffffffffffffffffffffff16905090565b6000604051905090565b600080fd5b600080fd5b600080fd5b600080fd5b6000601f19601f8301169050919050565b7f4e487b7100000000000000000000000000000000000000000000000000000000600052604160045260246000fd5b620003df8262000394565b810181811067ffffffffffffffff82111715620004015762000400620003a5565b5b80604052505050565b60006200041662000376565b9050620004248282620003d4565b919050565b600067ffffffffffffffff821115620004475762000446620003a5565b5b620004528262000394565b9050602081019050919050565b60005b838110156200047f57808201518184015260208101905062000462565b60008484015250505050565b6000620004a26200049c8462000429565b6200040a565b905082815260208101848484011115620004c157620004c06200038f565b5b620004ce8482856200045f565b509392505050565b600082601f830112620004ee57620004ed6200038a565b5b8151620005008482602086016200048b565b91505092915050565b600073ffffffffffffffffffffffffffffffffffffffff82169050919050565b6000620005368262000509565b9050919050565b620005488162000529565b81146200055457600080fd5b50565b60008151905062000568816200053d565b92915050565b6000806040838503121562000588576200058762000380565b5b600083015167ffffffffffffffff811115620005a957620005a862000385565b5b620005b785828601620004d6565b9250506020620005ca8582860162000557565b9150509250929050565b600081519050919050565b7f4e487b7100000000000000000000000000000000000000000000000000000000600052602260045260246000fd5b600060028204905060018216806200062757607f821691505b6020821081036200063d576200063c620005df565b5b50919050565b60008190508160005260206000209050919050565b60006020601f8301049050919050565b600082821b905092915050565b600060088302620006a77fffffffffffffffffffffffffffffffffffffffffffffffffffffffffffffffff8262000668565b620006b3868362000668565b95508019841693508086168417925050509392505050565b6000819050919050565b6000819050919050565b600062000700620006fa620006f484620006cb565b620006d5565b620006cb565b9050919050565b6000819050919050565b6200071c83620006df565b620007346200072b8262000707565b84845462000675565b825550505050565b600090565b6200074b6200073c565b6200075881848462000711565b505050565b5b8181101562000780576200077460008262000741565b6001810190506200075e565b5050565b601f821115620007cf57620007998162000643565b620007a48462000658565b81016020851015620007b4578190505b620007cc620007c38562000658565b8301826200075d565b50505b505050565b600082821c905092915050565b6000620007f460001984600802620007d4565b1980831691505092915050565b60006200080f8383620007e1565b9150826002028217905092915050565b6200082a82620005d4565b67ffffffffffffffff811115620008465762000845620003a5565b5b6200085282546200060e565b6200085f82828562000784565b600060209050601f83116001811462000897576000841562000882578287015190505b6200088e858262000801565b865550620008fe565b601f198416620008a78662000643565b60005b82811015620008d157848901518255600182019150602085019450602081019050620008aa565b86831015620008f15784890151620008ed601f891682620007e1565b8355505b6001600288020188555050505b505050505050565b600082825260208201905092915050565b7f4f776e61626c653a2063616c6c6572206973206e6f7420746865206f776e6572600082015250565b60006200094f60208362000906565b91506200095c8262000917565b602082019050919050565b60006020820190508181036000830152620009828162000940565b9050919050565b613cff80620009996000396000f3fe608060405234801561001057600080fd5b50600436106101e55760003560e01c80634f6ccce71161010f5780637a394ee4116100a2578063b88d4fde11610071578063b88d4fde1461056d578063c87b56dd14610589578063e985e9c5146105b9578063f2fde38b146105e9576101e5565b80637a394ee4146104f75780638da5cb5b1461051557806395d89b4114610533578063a22cb46514610551576101e5565b80636e04ff0d116100de5780636e04ff0d1461046e57806370348f3e1461049f57806370a08231146104bd578063715018a6146104ed576101e5565b80634f6ccce7146103d457806355f804b3146104045780635c975abb146104205780636352211e1461043e576101e5565b80632f745c591161018757806348b9ef401161015657806348b9ef401461035e5780634b6eb2361461037c5780634e4496ce1461039a5780634e71d92d146103ca576101e5565b80632f745c59146102da57806340522a3d1461030a57806342842e0e146103265780634585e33b14610342576101e5565b8063081812fc116101c3578063081812fc14610254578063095ea7b31461028457806318160ddd146102a057806323b872dd146102be576101e5565b806301ffc9a7146101ea57806302329a291461021a57806306fdde0314610236575b600080fd5b61020460048036038101906101ff91906126c3565b610605565b604051610211919061270b565b60405180910390f35b610234600480360381019061022f9190612752565b61067f565b005b61023e6106a4565b60405161024b919061280f565b60405180910390f35b61026e60048036038101906102699190612867565b610736565b60405161027b91906128d5565b60405180910390f35b61029e6004803603810190610299919061291c565b61077c565b005b6102a8610893565b6040516102b5919061296b565b60405180910390f35b6102d860048036038101906102d39190612986565b6108a0565b005b6102f460048036038101906102ef919061291c565b610900565b604051610301919061296b565b60405180910390f35b610324600480360381019061031f91906129d9565b6109a5565b005b610340600480360381019061033b9190612986565b6109f1565b005b61035c60048036038101906103579190612a6b565b610a11565b005b610366610b24565b604051610373919061296b565b60405180910390f35b610384610b2a565b604051610391919061296b565b60405180910390f35b6103b460048036038101906103af91906129d9565b610bfa565b6040516103c1919061296b565b60405180910390f35b6103d2610caa565b005b6103ee60048036038101906103e99190612867565b610e0b565b6040516103fb919061296b565b60405180910390f35b61041e60048036038101906104199190612be8565b610e7c565b005b610428610e97565b604051610435919061270b565b60405180910390f35b61045860048036038101906104539190612867565b610eaa565b60405161046591906128d5565b60405180910390f35b61048860048036038101906104839190612a6b565b610f30565b604051610496929190612c86565b60405180910390f35b6104a7610fea565b6040516104b491906128d5565b60405180910390f35b6104d760048036038101906104d291906129d9565b611010565b6040516104e4919061296b565b60405180910390f35b6104f56110c7565b005b6104ff6110db565b60405161050c91906128d5565b60405180910390f35b61051d611101565b60405161052a91906128d5565b60405180910390f35b61053b61112b565b604051610548919061280f565b60405180910390f35b61056b60048036038101906105669190612cb6565b6111bd565b005b61058760048036038101906105829190612d97565b6111d3565b005b6105a3600480360381019061059e9190612867565b611235565b6040516105b0919061280f565b60405180910390f35b6105d360048036038101906105ce9190612e1a565b61128e565b6040516105e0919061270b565b60405180910390f35b61060360048036038101906105fe91906129d9565b611322565b005b60007f780e9d63000000000000000000000000000000000000000000000000000000007bffffffffffffffffffffffffffffffffffffffffffffffffffffffff1916827bffffffffffffffffffffffffffffffffffffffffffffffffffffffff191614806106785750610677826113a5565b5b9050919050565b610687611487565b80600d60006101000a81548160ff02191690831515021790555050565b6060600080546106b390612e89565b80601f01602080910402602001604051908101604052809291908181526020018280546106df90612e89565b801561072c5780601f106107015761010080835404028352916020019161072c565b820191906000526020600020905b81548152906001019060200180831161070f57829003601f168201915b5050505050905090565b600061074182611505565b6004600083815260200190815260200160002060009054906101000a900473ffffffffffffffffffffffffffffffffffffffff169050919050565b600061078782610eaa565b90508073ffffffffffffffffffffffffffffffffffffffff168373ffffffffffffffffffffffffffffffffffffffff16036107f7576040517f08c379a00000000000000000000000000000000000000000000000000000000081526004016107ee90612f2c565b60405180910390fd5b8073ffffffffffffffffffffffffffffffffffffffff16610816611550565b73ffffffffffffffffffffffffffffffffffffffff16148061084557506108448161083f611550565b61128e565b5b610884576040517f08c379a000000000000000000000000000000000000000000000000000000000815260040161087b90612fbe565b60405180910390fd5b61088e8383611558565b505050565b6000600880549050905090565b6108b16108ab611550565b82611611565b6108f0576040517f08c379a00000000000000000000000000000000000000000000000000000000081526004016108e790613050565b60405180910390fd5b6108fb8383836116a6565b505050565b600061090b83611010565b821061094c576040517f08c379a0000000000000000000000000000000000000000000000000000000008152600401610943906130e2565b60405180910390fd5b600660008473ffffffffffffffffffffffffffffffffffffffff1673ffffffffffffffffffffffffffffffffffffffff168152602001908152602001600020600083815260200190815260200160002054905092915050565b6109ad611487565b80600d60016101000a81548173ffffffffffffffffffffffffffffffffffffffff021916908373ffffffffffffffffffffffffffffffffffffffff16021790555050565b610a0c838383604051806020016040528060008152506111d3565b505050565b6000600d60019054906101000a900473ffffffffffffffffffffffffffffffffffffffff16905060008173ffffffffffffffffffffffffffffffffffffffff166370a08231336040518263ffffffff1660e01b8152600401610a7391906128d5565b602060405180830381865afa158015610a90573d6000803e3d6000fd5b505050506040513d601f19601f82011682018060405250810190610ab49190613117565b9050600c54811015610afb576040517f08c379a0000000000000000000000000000000000000000000000000000000008152600401610af290613190565b60405180910390fd5b6000610b05610893565b9050610b1d33600183610b1891906131df565b61199f565b5050505050565b600c5481565b600080600d60019054906101000a900473ffffffffffffffffffffffffffffffffffffffff16905060008173ffffffffffffffffffffffffffffffffffffffff166370a08231600e60009054906101000a900473ffffffffffffffffffffffffffffffffffffffff166040518263ffffffff1660e01b8152600401610baf91906128d5565b602060405180830381865afa158015610bcc573d6000803e3d6000fd5b505050506040513d601f19601f82011682018060405250810190610bf09190613117565b9050809250505090565b600080600d60019054906101000a900473ffffffffffffffffffffffffffffffffffffffff16905060008173ffffffffffffffffffffffffffffffffffffffff166370a08231856040518263ffffffff1660e01b8152600401610c5d91906128d5565b602060405180830381865afa158015610c7a573d6000803e3d6000fd5b505050506040513d601f19601f82011682018060405250810190610c9e9190613117565b90508092505050919050565b600d60009054906101000a900460ff1615610cfa576040517f08c379a0000000000000000000000000000000000000000000000000000000008152600401610cf19061325f565b60405180910390fd5b6000600d60019054906101000a900473ffffffffffffffffffffffffffffffffffffffff16905060008173ffffffffffffffffffffffffffffffffffffffff166370a08231336040518263ffffffff1660e01b8152600401610d5c91906128d5565b602060405180830381865afa158015610d79573d6000803e3d6000fd5b505050506040513d601f19601f82011682018060405250810190610d9d9190613117565b9050600c54811015610de4576040517f08c379a0000000000000000000000000000000000000000000000000000000008152600401610ddb90613190565b60405180910390fd5b6000610dee610893565b9050610e0633600183610e0191906131df565b61199f565b505050565b6000610e15610893565b8210610e56576040517f08c379a0000000000000000000000000000000000000000000000000000000008152600401610e4d906132f1565b60405180910390fd5b60088281548110610e6a57610e69613311565b5b90600052602060002001549050919050565b610e84611487565b80600b9081610e9391906134ec565b5050565b600d60009054906101000a900460ff1681565b600080610eb6836119bd565b9050600073ffffffffffffffffffffffffffffffffffffffff168173ffffffffffffffffffffffffffffffffffffffff1603610f27576040517f08c379a0000000000000000000000000000000000000000000000000000000008152600401610f1e9061360a565b60405180910390fd5b80915050919050565b600060606000600d60019054906101000a900473ffffffffffffffffffffffffffffffffffffffff16905060008173ffffffffffffffffffffffffffffffffffffffff166370a08231336040518263ffffffff1660e01b8152600401610f9691906128d5565b602060405180830381865afa158015610fb3573d6000803e3d6000fd5b505050506040513d601f19601f82011682018060405250810190610fd79190613117565b9050600c54811015935050509250929050565b600e60009054906101000a900473ffffffffffffffffffffffffffffffffffffffff1681565b60008073ffffffffffffffffffffffffffffffffffffffff168273ffffffffffffffffffffffffffffffffffffffff1603611080576040517f08c379a00000000000000000000000000000000000000000000000000000000081526004016110779061369c565b60405180910390fd5b600360008373ffffffffffffffffffffffffffffffffffffffff1673ffffffffffffffffffffffffffffffffffffffff168152602001908152602001600020549050919050565b6110cf611487565b6110d960006119fa565b565b600d60019054906101000a900473ffffffffffffffffffffffffffffffffffffffff1681565b6000600a60009054906101000a900473ffffffffffffffffffffffffffffffffffffffff16905090565b60606001805461113a90612e89565b80601f016020809104026020016040519081016040528092919081815260200182805461116690612e89565b80156111b35780601f10611188576101008083540402835291602001916111b3565b820191906000526020600020905b81548152906001019060200180831161119657829003601f168201915b5050505050905090565b6111cf6111c8611550565b8383611ac0565b5050565b6111e46111de611550565b83611611565b611223576040517f08c379a000000000000000000000000000000000000000000000000000000000815260040161121a90613050565b60405180910390fd5b61122f84848484611c2c565b50505050565b606061124082611c88565b61127f576040517f08c379a00000000000000000000000000000000000000000000000000000000081526004016112769061372e565b60405180910390fd5b611287611cc9565b9050919050565b6000600560008473ffffffffffffffffffffffffffffffffffffffff1673ffffffffffffffffffffffffffffffffffffffff16815260200190815260200160002060008373ffffffffffffffffffffffffffffffffffffffff1673ffffffffffffffffffffffffffffffffffffffff16815260200190815260200160002060009054906101000a900460ff16905092915050565b61132a611487565b600073ffffffffffffffffffffffffffffffffffffffff168173ffffffffffffffffffffffffffffffffffffffff1603611399576040517f08c379a0000000000000000000000000000000000000000000000000000000008152600401611390906137c0565b60405180910390fd5b6113a2816119fa565b50565b60007f80ac58cd000000000000000000000000000000000000000000000000000000007bffffffffffffffffffffffffffffffffffffffffffffffffffffffff1916827bffffffffffffffffffffffffffffffffffffffffffffffffffffffff1916148061147057507f5b5e139f000000000000000000000000000000000000000000000000000000007bffffffffffffffffffffffffffffffffffffffffffffffffffffffff1916827bffffffffffffffffffffffffffffffffffffffffffffffffffffffff1916145b80611480575061147f82611d5b565b5b9050919050565b61148f611550565b73ffffffffffffffffffffffffffffffffffffffff166114ad611101565b73ffffffffffffffffffffffffffffffffffffffff1614611503576040517f08c379a00000000000000000000000000000000000000000000000000000000081526004016114fa9061382c565b60405180910390fd5b565b61150e81611c88565b61154d576040517f08c379a00000000000000000000000000000000000000000000000000000000081526004016115449061360a565b60405180910390fd5b50565b600033905090565b816004600083815260200190815260200160002060006101000a81548173ffffffffffffffffffffffffffffffffffffffff021916908373ffffffffffffffffffffffffffffffffffffffff160217905550808273ffffffffffffffffffffffffffffffffffffffff166115cb83610eaa565b73ffffffffffffffffffffffffffffffffffffffff167f8c5be1e5ebec7d5bd14f71427d1e84f3dd0314c0f7b2291e5b200ac8c7c3b92560405160405180910390a45050565b60008061161d83610eaa565b90508073ffffffffffffffffffffffffffffffffffffffff168473ffffffffffffffffffffffffffffffffffffffff16148061165f575061165e818561128e565b5b8061169d57508373ffffffffffffffffffffffffffffffffffffffff1661168584610736565b73ffffffffffffffffffffffffffffffffffffffff16145b91505092915050565b8273ffffffffffffffffffffffffffffffffffffffff166116c682610eaa565b73ffffffffffffffffffffffffffffffffffffffff161461171c576040517f08c379a0000000000000000000000000000000000000000000000000000000008152600401611713906138be565b60405180910390fd5b600073ffffffffffffffffffffffffffffffffffffffff168273ffffffffffffffffffffffffffffffffffffffff160361178b576040517f08c379a000000000000000000000000000000000000000000000000000000000815260040161178290613950565b60405180910390fd5b6117988383836001611dc5565b8273ffffffffffffffffffffffffffffffffffffffff166117b882610eaa565b73ffffffffffffffffffffffffffffffffffffffff161461180e576040517f08c379a0000000000000000000000000000000000000000000000000000000008152600401611805906138be565b60405180910390fd5b6004600082815260200190815260200160002060006101000a81549073ffffffffffffffffffffffffffffffffffffffff02191690556001600360008573ffffffffffffffffffffffffffffffffffffffff1673ffffffffffffffffffffffffffffffffffffffff168152602001908152602001600020600082825403925050819055506001600360008473ffffffffffffffffffffffffffffffffffffffff1673ffffffffffffffffffffffffffffffffffffffff16815260200190815260200160002060008282540192505081905550816002600083815260200190815260200160002060006101000a81548173ffffffffffffffffffffffffffffffffffffffff021916908373ffffffffffffffffffffffffffffffffffffffff160217905550808273ffffffffffffffffffffffffffffffffffffffff168473ffffffffffffffffffffffffffffffffffffffff167fddf252ad1be2c89b69c2b068fc378daa952ba7f163c4a11628f55a4df523b3ef60405160405180910390a461199a8383836001611f23565b505050565b6119b9828260405180602001604052806000815250611f29565b5050565b60006002600083815260200190815260200160002060009054906101000a900473ffffffffffffffffffffffffffffffffffffffff169050919050565b6000600a60009054906101000a900473ffffffffffffffffffffffffffffffffffffffff16905081600a60006101000a81548173ffffffffffffffffffffffffffffffffffffffff021916908373ffffffffffffffffffffffffffffffffffffffff1602179055508173ffffffffffffffffffffffffffffffffffffffff168173ffffffffffffffffffffffffffffffffffffffff167f8be0079c531659141344cd1fd0a4f28419497f9722a3daafe3b4186f6b6457e060405160405180910390a35050565b8173ffffffffffffffffffffffffffffffffffffffff168373ffffffffffffffffffffffffffffffffffffffff1603611b2e576040517f08c379a0000000000000000000000000000000000000000000000000000000008152600401611b25906139bc565b60405180910390fd5b80600560008573ffffffffffffffffffffffffffffffffffffffff1673ffffffffffffffffffffffffffffffffffffffff16815260200190815260200160002060008473ffffffffffffffffffffffffffffffffffffffff1673ffffffffffffffffffffffffffffffffffffffff16815260200190815260200160002060006101000a81548160ff0219169083151502179055508173ffffffffffffffffffffffffffffffffffffffff168373ffffffffffffffffffffffffffffffffffffffff167f17307eab39ab6107e8899845ad3d59bd9653f200f220920489ca2b5937696c3183604051611c1f919061270b565b60405180910390a3505050565b611c378484846116a6565b611c4384848484611f84565b611c82576040517f08c379a0000000000000000000000000000000000000000000000000000000008152600401611c7990613a4e565b60405180910390fd5b50505050565b60008073ffffffffffffffffffffffffffffffffffffffff16611caa836119bd565b73ffffffffffffffffffffffffffffffffffffffff1614159050919050565b6060600b8054611cd890612e89565b80601f0160208091040260200160405190810160405280929190818152602001828054611d0490612e89565b8015611d515780601f10611d2657610100808354040283529160200191611d51565b820191906000526020600020905b815481529060010190602001808311611d3457829003601f168201915b5050505050905090565b60007f01ffc9a7000000000000000000000000000000000000000000000000000000007bffffffffffffffffffffffffffffffffffffffffffffffffffffffff1916827bffffffffffffffffffffffffffffffffffffffffffffffffffffffff1916149050919050565b611dd18484848461210b565b6001811115611e15576040517f08c379a0000000000000000000000000000000000000000000000000000000008152600401611e0c90613ae0565b60405180910390fd5b6000829050600073ffffffffffffffffffffffffffffffffffffffff168573ffffffffffffffffffffffffffffffffffffffff1603611e5c57611e5781612111565b611e9b565b8373ffffffffffffffffffffffffffffffffffffffff168573ffffffffffffffffffffffffffffffffffffffff1614611e9a57611e99858261215a565b5b5b600073ffffffffffffffffffffffffffffffffffffffff168473ffffffffffffffffffffffffffffffffffffffff1603611edd57611ed8816122c7565b611f1c565b8473ffffffffffffffffffffffffffffffffffffffff168473ffffffffffffffffffffffffffffffffffffffff1614611f1b57611f1a8482612398565b5b5b5050505050565b50505050565b611f338383612417565b611f406000848484611f84565b611f7f576040517f08c379a0000000000000000000000000000000000000000000000000000000008152600401611f7690613a4e565b60405180910390fd5b505050565b6000611fa58473ffffffffffffffffffffffffffffffffffffffff16612634565b156120fe578373ffffffffffffffffffffffffffffffffffffffff1663150b7a02611fce611550565b8786866040518563ffffffff1660e01b8152600401611ff09493929190613b00565b6020604051808303816000875af192505050801561202c57506040513d601f19601f820116820180604052508101906120299190613b61565b60015b6120ae573d806000811461205c576040519150601f19603f3d011682016040523d82523d6000602084013e612061565b606091505b5060008151036120a6576040517f08c379a000000000000000000000000000000000000000000000000000000000815260040161209d90613a4e565b60405180910390fd5b805181602001fd5b63150b7a0260e01b7bffffffffffffffffffffffffffffffffffffffffffffffffffffffff1916817bffffffffffffffffffffffffffffffffffffffffffffffffffffffff191614915050612103565b600190505b949350505050565b50505050565b6008805490506009600083815260200190815260200160002081905550600881908060018154018082558091505060019003906000526020600020016000909190919091505550565b6000600161216784611010565b6121719190613b8e565b9050600060076000848152602001908152602001600020549050818114612256576000600660008673ffffffffffffffffffffffffffffffffffffffff1673ffffffffffffffffffffffffffffffffffffffff168152602001908152602001600020600084815260200190815260200160002054905080600660008773ffffffffffffffffffffffffffffffffffffffff1673ffffffffffffffffffffffffffffffffffffffff168152602001908152602001600020600084815260200190815260200160002081905550816007600083815260200190815260200160002081905550505b6007600084815260200190815260200160002060009055600660008573ffffffffffffffffffffffffffffffffffffffff1673ffffffffffffffffffffffffffffffffffffffff16815260200190815260200160002060008381526020019081526020016000206000905550505050565b600060016008805490506122db9190613b8e565b905060006009600084815260200190815260200160002054905060006008838154811061230b5761230a613311565b5b90600052602060002001549050806008838154811061232d5761232c613311565b5b90600052602060002001819055508160096000838152602001908152602001600020819055506009600085815260200190815260200160002060009055600880548061237c5761237b613bc2565b5b6001900381819060005260206000200160009055905550505050565b60006123a383611010565b905081600660008573ffffffffffffffffffffffffffffffffffffffff1673ffffffffffffffffffffffffffffffffffffffff168152602001908152602001600020600083815260200190815260200160002081905550806007600084815260200190815260200160002081905550505050565b600073ffffffffffffffffffffffffffffffffffffffff168273ffffffffffffffffffffffffffffffffffffffff1603612486576040517f08c379a000000000000000000000000000000000000000000000000000000000815260040161247d90613c3d565b60405180910390fd5b61248f81611c88565b156124cf576040517f08c379a00000000000000000000000000000000000000000000000000000000081526004016124c690613ca9565b60405180910390fd5b6124dd600083836001611dc5565b6124e681611c88565b15612526576040517f08c379a000000000000000000000000000000000000000000000000000000000815260040161251d90613ca9565b60405180910390fd5b6001600360008473ffffffffffffffffffffffffffffffffffffffff1673ffffffffffffffffffffffffffffffffffffffff16815260200190815260200160002060008282540192505081905550816002600083815260200190815260200160002060006101000a81548173ffffffffffffffffffffffffffffffffffffffff021916908373ffffffffffffffffffffffffffffffffffffffff160217905550808273ffffffffffffffffffffffffffffffffffffffff16600073ffffffffffffffffffffffffffffffffffffffff167fddf252ad1be2c89b69c2b068fc378daa952ba7f163c4a11628f55a4df523b3ef60405160405180910390a4612630600083836001611f23565b5050565b6000808273ffffffffffffffffffffffffffffffffffffffff163b119050919050565b6000604051905090565b600080fd5b600080fd5b60007fffffffff0000000000000000000000000000000000000000000000000000000082169050919050565b6126a08161266b565b81146126ab57600080fd5b50565b6000813590506126bd81612697565b92915050565b6000602082840312156126d9576126d8612661565b5b60006126e7848285016126ae565b91505092915050565b60008115159050919050565b612705816126f0565b82525050565b600060208201905061272060008301846126fc565b92915050565b61272f816126f0565b811461273a57600080fd5b50565b60008135905061274c81612726565b92915050565b60006020828403121561276857612767612661565b5b60006127768482850161273d565b91505092915050565b600081519050919050565b600082825260208201905092915050565b60005b838110156127b957808201518184015260208101905061279e565b60008484015250505050565b6000601f19601f8301169050919050565b60006127e18261277f565b6127eb818561278a565b93506127fb81856020860161279b565b612804816127c5565b840191505092915050565b6000602082019050818103600083015261282981846127d6565b905092915050565b6000819050919050565b61284481612831565b811461284f57600080fd5b50565b6000813590506128618161283b565b92915050565b60006020828403121561287d5761287c612661565b5b600061288b84828501612852565b91505092915050565b600073ffffffffffffffffffffffffffffffffffffffff82169050919050565b60006128bf82612894565b9050919050565b6128cf816128b4565b82525050565b60006020820190506128ea60008301846128c6565b92915050565b6128f9816128b4565b811461290457600080fd5b50565b600081359050612916816128f0565b92915050565b6000806040838503121561293357612932612661565b5b600061294185828601612907565b925050602061295285828601612852565b9150509250929050565b61296581612831565b82525050565b6000602082019050612980600083018461295c565b92915050565b60008060006060848603121561299f5761299e612661565b5b60006129ad86828701612907565b93505060206129be86828701612907565b92505060406129cf86828701612852565b9150509250925092565b6000602082840312156129ef576129ee612661565b5b60006129fd84828501612907565b91505092915050565b600080fd5b600080fd5b600080fd5b60008083601f840112612a2b57612a2a612a06565b5b8235905067ffffffffffffffff811115612a4857612a47612a0b565b5b602083019150836001820283011115612a6457612a63612a10565b5b9250929050565b60008060208385031215612a8257612a81612661565b5b600083013567ffffffffffffffff811115612aa057612a9f612666565b5b612aac85828601612a15565b92509250509250929050565b600080fd5b7f4e487b7100000000000000000000000000000000000000000000000000000000600052604160045260246000fd5b612af5826127c5565b810181811067ffffffffffffffff82111715612b1457612b13612abd565b5b80604052505050565b6000612b27612657565b9050612b338282612aec565b919050565b600067ffffffffffffffff821115612b5357612b52612abd565b5b612b5c826127c5565b9050602081019050919050565b82818337600083830152505050565b6000612b8b612b8684612b38565b612b1d565b905082815260208101848484011115612ba757612ba6612ab8565b5b612bb2848285612b69565b509392505050565b600082601f830112612bcf57612bce612a06565b5b8135612bdf848260208601612b78565b91505092915050565b600060208284031215612bfe57612bfd612661565b5b600082013567ffffffffffffffff811115612c1c57612c1b612666565b5b612c2884828501612bba565b91505092915050565b600081519050919050565b600082825260208201905092915050565b6000612c5882612c31565b612c628185612c3c565b9350612c7281856020860161279b565b612c7b816127c5565b840191505092915050565b6000604082019050612c9b60008301856126fc565b8181036020830152612cad8184612c4d565b90509392505050565b60008060408385031215612ccd57612ccc612661565b5b6000612cdb85828601612907565b9250506020612cec8582860161273d565b9150509250929050565b600067ffffffffffffffff821115612d1157612d10612abd565b5b612d1a826127c5565b9050602081019050919050565b6000612d3a612d3584612cf6565b612b1d565b905082815260208101848484011115612d5657612d55612ab8565b5b612d61848285612b69565b509392505050565b600082601f830112612d7e57612d7d612a06565b5b8135612d8e848260208601612d27565b91505092915050565b60008060008060808587031215612db157612db0612661565b5b6000612dbf87828801612907565b9450506020612dd087828801612907565b9350506040612de187828801612852565b925050606085013567ffffffffffffffff811115612e0257612e01612666565b5b612e0e87828801612d69565b91505092959194509250565b60008060408385031215612e3157612e30612661565b5b6000612e3f85828601612907565b9250506020612e5085828601612907565b9150509250929050565b7f4e487b7100000000000000000000000000000000000000000000000000000000600052602260045260246000fd5b60006002820490506001821680612ea157607f821691505b602082108103612eb457612eb3612e5a565b5b50919050565b7f4552433732313a20617070726f76616c20746f2063757272656e74206f776e6560008201527f7200000000000000000000000000000000000000000000000000000000000000602082015250565b6000612f1660218361278a565b9150612f2182612eba565b604082019050919050565b60006020820190508181036000830152612f4581612f09565b9050919050565b7f4552433732313a20617070726f76652063616c6c6572206973206e6f7420746f60008201527f6b656e206f776e6572206f7220617070726f76656420666f7220616c6c000000602082015250565b6000612fa8603d8361278a565b9150612fb382612f4c565b604082019050919050565b60006020820190508181036000830152612fd781612f9b565b9050919050565b7f4552433732313a2063616c6c6572206973206e6f7420746f6b656e206f776e6560008201527f72206f7220617070726f76656400000000000000000000000000000000000000602082015250565b600061303a602d8361278a565b915061304582612fde565b604082019050919050565b600060208201905081810360008301526130698161302d565b9050919050565b7f455243373231456e756d657261626c653a206f776e657220696e646578206f7560008201527f74206f6620626f756e6473000000000000000000000000000000000000000000602082015250565b60006130cc602b8361278a565b91506130d782613070565b604082019050919050565b600060208201905081810360008301526130fb816130bf565b9050919050565b6000815190506131118161283b565b92915050565b60006020828403121561312d5761312c612661565b5b600061313b84828501613102565b91505092915050565b7f596f7520646f6e2774206f776e20656e6f75676820436f75706f6e204e465473600082015250565b600061317a60208361278a565b915061318582613144565b602082019050919050565b600060208201905081810360008301526131a98161316d565b9050919050565b7f4e487b7100000000000000000000000000000000000000000000000000000000600052601160045260246000fd5b60006131ea82612831565b91506131f583612831565b925082820190508082111561320d5761320c6131b0565b5b92915050565b7f436f6e7472616374206973207061757365640000000000000000000000000000600082015250565b600061324960128361278a565b915061325482613213565b602082019050919050565b600060208201905081810360008301526132788161323c565b9050919050565b7f455243373231456e756d657261626c653a20676c6f62616c20696e646578206f60008201527f7574206f6620626f756e64730000000000000000000000000000000000000000602082015250565b60006132db602c8361278a565b91506132e68261327f565b604082019050919050565b6000602082019050818103600083015261330a816132ce565b9050919050565b7f4e487b7100000000000000000000000000000000000000000000000000000000600052603260045260246000fd5b60008190508160005260206000209050919050565b60006020601f8301049050919050565b600082821b905092915050565b6000600883026133a27fffffffffffffffffffffffffffffffffffffffffffffffffffffffffffffffff82613365565b6133ac8683613365565b95508019841693508086168417925050509392505050565b6000819050919050565b60006133e96133e46133df84612831565b6133c4565b612831565b9050919050565b6000819050919050565b613403836133ce565b61341761340f826133f0565b848454613372565b825550505050565b600090565b61342c61341f565b6134378184846133fa565b505050565b5b8181101561345b57613450600082613424565b60018101905061343d565b5050565b601f8211156134a05761347181613340565b61347a84613355565b81016020851015613489578190505b61349d61349585613355565b83018261343c565b50505b505050565b600082821c905092915050565b60006134c3600019846008026134a5565b1980831691505092915050565b60006134dc83836134b2565b9150826002028217905092915050565b6134f58261277f565b67ffffffffffffffff81111561350e5761350d612abd565b5b6135188254612e89565b61352382828561345f565b600060209050601f8311600181146135565760008415613544578287015190505b61354e85826134d0565b8655506135b6565b601f19841661356486613340565b60005b8281101561358c57848901518255600182019150602085019450602081019050613567565b868310156135a957848901516135a5601f8916826134b2565b8355505b6001600288020188555050505b505050505050565b7f4552433732313a20696e76616c696420746f6b656e2049440000000000000000600082015250565b60006135f460188361278a565b91506135ff826135be565b602082019050919050565b60006020820190508181036000830152613623816135e7565b9050919050565b7f4552433732313a2061646472657373207a65726f206973206e6f74206120766160008201527f6c6964206f776e65720000000000000000000000000000000000000000000000602082015250565b600061368660298361278a565b91506136918261362a565b604082019050919050565b600060208201905081810360008301526136b581613679565b9050919050565b7f4552433732314d657461646174613a2055524920717565727920666f72206e6f60008201527f6e6578697374656e7420746f6b656e2e00000000000000000000000000000000602082015250565b600061371860308361278a565b9150613723826136bc565b604082019050919050565b600060208201905081810360008301526137478161370b565b9050919050565b7f4f776e61626c653a206e6577206f776e657220697320746865207a65726f206160008201527f6464726573730000000000000000000000000000000000000000000000000000602082015250565b60006137aa60268361278a565b91506137b58261374e565b604082019050919050565b600060208201905081810360008301526137d98161379d565b9050919050565b7f4f776e61626c653a2063616c6c6572206973206e6f7420746865206f776e6572600082015250565b600061381660208361278a565b9150613821826137e0565b602082019050919050565b6000602082019050818103600083015261384581613809565b9050919050565b7f4552433732313a207472616e736665722066726f6d20696e636f72726563742060008201527f6f776e6572000000000000000000000000000000000000000000000000000000602082015250565b60006138a860258361278a565b91506138b38261384c565b604082019050919050565b600060208201905081810360008301526138d78161389b565b9050919050565b7f4552433732313a207472616e7366657220746f20746865207a65726f2061646460008201527f7265737300000000000000000000000000000000000000000000000000000000602082015250565b600061393a60248361278a565b9150613945826138de565b604082019050919050565b600060208201905081810360008301526139698161392d565b9050919050565b7f4552433732313a20617070726f766520746f2063616c6c657200000000000000600082015250565b60006139a660198361278a565b91506139b182613970565b602082019050919050565b600060208201905081810360008301526139d581613999565b9050919050565b7f4552433732313a207472616e7366657220746f206e6f6e20455243373231526560008201527f63656976657220696d706c656d656e7465720000000000000000000000000000602082015250565b6000613a3860328361278a565b9150613a43826139dc565b604082019050919050565b60006020820190508181036000830152613a6781613a2b565b9050919050565b7f455243373231456e756d657261626c653a20636f6e736563757469766520747260008201527f616e7366657273206e6f7420737570706f727465640000000000000000000000602082015250565b6000613aca60358361278a565b9150613ad582613a6e565b604082019050919050565b60006020820190508181036000830152613af981613abd565b9050919050565b6000608082019050613b1560008301876128c6565b613b2260208301866128c6565b613b2f604083018561295c565b8181036060830152613b418184612c4d565b905095945050505050565b600081519050613b5b81612697565b92915050565b600060208284031215613b7757613b76612661565b5b6000613b8584828501613b4c565b91505092915050565b6000613b9982612831565b9150613ba483612831565b9250828203905081811115613bbc57613bbb6131b0565b5b92915050565b7f4e487b7100000000000000000000000000000000000000000000000000000000600052603160045260246000fd5b7f4552433732313a206d696e7420746f20746865207a65726f2061646472657373600082015250565b6000613c2760208361278a565b9150613c3282613bf1565b602082019050919050565b60006020820190508181036000830152613c5681613c1a565b9050919050565b7f4552433732313a20746f6b656e20616c7265616479206d696e74656400000000600082015250565b6000613c93601c8361278a565b9150613c9e82613c5d565b602082019050919050565b60006020820190508181036000830152613cc281613c86565b905091905056fea2646970667358221220eef7c93c208bb8589fe1bd67873cc81f005b0486eb81c3adc97fd3e806c486d764736f6c63430008130033",
  "linkReferences": {},
  "deployedLinkReferences": {}
}