{
  "_format": "hh-sol-artifact-1",
  "contractName": "BumpUpkeep",
  "sourceName": "contracts/DNFTDemo.sol",
  "abi": [
    {
      "anonymous": false,
      "inputs": [
        {
          "indexed": true,
          "internalType": "address",
          "name": "logSender",
          "type": "address"
        },
        {
          "indexed": true,
          "internalType": "address",
          "name": "upkeepSender",
          "type": "address"
        },
        {
          "indexed": true,
          "internalType": "uint256",
          "name": "passedNumber",
          "type": "uint256"
        },
        {
          "indexed": false,
          "internalType": "uint256",
          "name": "blockNum",
          "type": "uint256"
        },
        {
          "indexed": false,
          "internalType": "uint256",
          "name": "counter",
          "type": "uint256"
        },
        {
          "indexed": false,
          "internalType": "bytes32",
          "name": "txnHash",
          "type": "bytes32"
        }
      ],
      "name": "Bumped",
      "type": "event"
    },
    {
      "inputs": [
        {
          "internalType": "bytes32",
          "name": "_address",
          "type": "bytes32"
        }
      ],
      "name": "bytes32ToAddress",
      "outputs": [
        {
          "internalType": "address",
          "name": "",
          "type": "address"
        }
      ],
      "stateMutability": "pure",
      "type": "function"
    },
    {
      "inputs": [
        {
          "internalType": "bytes32",
          "name": "_uint",
          "type": "bytes32"
        }
      ],
      "name": "bytes32ToUint",
      "outputs": [
        {
          "internalType": "uint256",
          "name": "",
          "type": "uint256"
        }
      ],
      "stateMutability": "pure",
      "type": "function"
    },
    {
      "inputs": [
        {
          "components": [
            {
              "internalType": "uint256",
              "name": "index",
              "type": "uint256"
            },
            {
              "internalType": "uint256",
              "name": "txIndex",
              "type": "uint256"
            },
            {
              "internalType": "bytes32",
              "name": "txHash",
              "type": "bytes32"
            },
            {
              "internalType": "uint256",
              "name": "blockNumber",
              "type": "uint256"
            },
            {
              "internalType": "bytes32",
              "name": "blockHash",
              "type": "bytes32"
            },
            {
              "internalType": "address",
              "name": "source",
              "type": "address"
            },
            {
              "internalType": "bytes32[]",
              "name": "topics",
              "type": "bytes32[]"
            },
            {
              "internalType": "bytes",
              "name": "data",
              "type": "bytes"
            }
          ],
          "internalType": "struct Log",
          "name": "log",
          "type": "tuple"
        },
        {
          "internalType": "bytes",
          "name": "",
          "type": "bytes"
        }
      ],
      "name": "checkLog",
      "outputs": [
        {
          "internalType": "bool",
          "name": "upkeepNeeded",
          "type": "bool"
        },
        {
          "internalType": "bytes",
          "name": "performData",
          "type": "bytes"
        }
      ],
      "stateMutability": "nonpayable",
      "type": "function"
    },
    {
      "inputs": [],
      "name": "counter",
      "outputs": [
        {
          "internalType": "uint256",
          "name": "",
          "type": "uint256"
        }
      ],
      "stateMutability": "view",
      "type": "function"
    },
    {
      "inputs": [
        {
          "internalType": "bytes",
          "name": "performData",
          "type": "bytes"
        }
      ],
      "name": "performUpkeep",
      "outputs": [],
      "stateMutability": "nonpayable",
      "type": "function"
    },
    {
      "inputs": [],
      "name": "selectedTokenId",
      "outputs": [
        {
          "internalType": "uint256",
          "name": "",
          "type": "uint256"
        }
      ],
      "stateMutability": "view",
      "type": "function"
    },
    {
      "inputs": [],
      "name": "upgrade",
      "outputs": [],
      "stateMutability": "nonpayable",
      "type": "function"
    },
    {
      "inputs": [],
      "name": "upgradeCounter",
      "outputs": [
        {
          "internalType": "uint256",
          "name": "",
          "type": "uint256"
        }
      ],
      "stateMutability": "view",
      "type": "function"
    }
  ],
  "bytecode": "0x608060405234801561001057600080fd5b50610ce8806100206000396000f3fe608060405234801561001057600080fd5b50600436106100885760003560e01c806361bc221a1161005b57806361bc221a14610128578063b61c935514610146578063d55ec69714610164578063e60b14241461016e57610088565b806340691db41461008d5780634585e33b146100be57806358af28ae146100da5780635ced058e146100f8575b600080fd5b6100a760048036038101906100a291906106ae565b61019e565b6040516100b59291906107c0565b60405180910390f35b6100d860048036038101906100d39190610850565b6102bb565b005b6100e26103f8565b6040516100ef91906108b6565b60405180910390f35b610112600480360381019061010d9190610907565b6103fe565b60405161011f9190610975565b60405180910390f35b61013061040b565b60405161013d91906108b6565b60405180910390f35b61014e610411565b60405161015b91906108b6565b60405180910390f35b61016c610417565b005b61018860048036038101906101839190610907565b610433565b60405161019591906108b6565b60405180910390f35b6000606060006101d5858060c001906101b7919061099f565b60008181106101c9576101c8610a02565b5b905060200201356103fe565b9050600061020a868060c001906101ec919061099f565b60018181106101fe576101fd610a02565b5b90506020020135610433565b9050600061023f878060c00190610221919061099f565b600281811061023357610232610a02565b5b90506020020135610433565b90506102816040518060400160405280600e81526020017f546f6b656e49643a2025732025640000000000000000000000000000000000008152508283610440565b828288604001358360405160200161029c9493929190610a40565b6040516020818303038152906040529350600194505050509250929050565b60008060008085858101906102d09190610aef565b935093509350935060016000808282546102ea9190610b85565b92505081905550806001819055506103386040518060400160405280601a81526020017f546f6b656e49642066726f6d2075706b6565703a2025732025640000000000008152508283610440565b61037c6040518060400160405280601781526020017f53656c656374656420546f6b656e49643a202573202564000000000000000000815250600154600154610440565b823373ffffffffffffffffffffffffffffffffffffffff168573ffffffffffffffffffffffffffffffffffffffff167f7eca56ba971603b2d43796e44066e998a4f138b55b225f07d4aa16e30a46a31b43600054876040516103e093929190610bb9565b60405180910390a46103f0610417565b505050505050565b60015481565b60008160001c9050919050565b60005481565b60025481565b60016002600082825461042a9190610b85565b92505081905550565b60008160001c9050919050565b6104da83838360405160240161045893929190610c45565b6040516020818303038152906040527fca47c4eb000000000000000000000000000000000000000000000000000000007bffffffffffffffffffffffffffffffffffffffffffffffffffffffff19166020820180517bffffffffffffffffffffffffffffffffffffffffffffffffffffffff83818316178352505050506104df565b505050565b6104f6816104ee6104f961051a565b63ffffffff16565b50565b60006a636f6e736f6c652e6c6f679050600080835160208501845afa505050565b610525819050919050565b61052d610c83565b565b6000604051905090565b600080fd5b600080fd5b600080fd5b6000610100828403121561055f5761055e610543565b5b81905092915050565b600080fd5b600080fd5b6000601f19601f8301169050919050565b7f4e487b7100000000000000000000000000000000000000000000000000000000600052604160045260246000fd5b6105bb82610572565b810181811067ffffffffffffffff821117156105da576105d9610583565b5b80604052505050565b60006105ed61052f565b90506105f982826105b2565b919050565b600067ffffffffffffffff82111561061957610618610583565b5b61062282610572565b9050602081019050919050565b82818337600083830152505050565b600061065161064c846105fe565b6105e3565b90508281526020810184848401111561066d5761066c61056d565b5b61067884828561062f565b509392505050565b600082601f83011261069557610694610568565b5b81356106a584826020860161063e565b91505092915050565b600080604083850312156106c5576106c4610539565b5b600083013567ffffffffffffffff8111156106e3576106e261053e565b5b6106ef85828601610548565b925050602083013567ffffffffffffffff8111156107105761070f61053e565b5b61071c85828601610680565b9150509250929050565b60008115159050919050565b61073b81610726565b82525050565b600081519050919050565b600082825260208201905092915050565b60005b8381101561077b578082015181840152602081019050610760565b60008484015250505050565b600061079282610741565b61079c818561074c565b93506107ac81856020860161075d565b6107b581610572565b840191505092915050565b60006040820190506107d56000830185610732565b81810360208301526107e78184610787565b90509392505050565b600080fd5b600080fd5b60008083601f8401126108105761080f610568565b5b8235905067ffffffffffffffff81111561082d5761082c6107f0565b5b602083019150836001820283011115610849576108486107f5565b5b9250929050565b6000806020838503121561086757610866610539565b5b600083013567ffffffffffffffff8111156108855761088461053e565b5b610891858286016107fa565b92509250509250929050565b6000819050919050565b6108b08161089d565b82525050565b60006020820190506108cb60008301846108a7565b92915050565b6000819050919050565b6108e4816108d1565b81146108ef57600080fd5b50565b600081359050610901816108db565b92915050565b60006020828403121561091d5761091c610539565b5b600061092b848285016108f2565b91505092915050565b600073ffffffffffffffffffffffffffffffffffffffff82169050919050565b600061095f82610934565b9050919050565b61096f81610954565b82525050565b600060208201905061098a6000830184610966565b92915050565b600080fd5b600080fd5b600080fd5b600080833560016020038436030381126109bc576109bb610990565b5b80840192508235915067ffffffffffffffff8211156109de576109dd610995565b5b6020830192506020820236038313156109fa576109f961099a565b5b509250929050565b7f4e487b7100000000000000000000000000000000000000000000000000000000600052603260045260246000fd5b610a3a816108d1565b82525050565b6000608082019050610a556000830187610966565b610a6260208301866108a7565b610a6f6040830185610a31565b610a7c60608301846108a7565b95945050505050565b6000610a9082610934565b9050919050565b610aa081610a85565b8114610aab57600080fd5b50565b600081359050610abd81610a97565b92915050565b610acc8161089d565b8114610ad757600080fd5b50565b600081359050610ae981610ac3565b92915050565b60008060008060808587031215610b0957610b08610539565b5b6000610b1787828801610aae565b9450506020610b2887828801610ada565b9350506040610b39878288016108f2565b9250506060610b4a87828801610ada565b91505092959194509250565b7f4e487b7100000000000000000000000000000000000000000000000000000000600052601160045260246000fd5b6000610b908261089d565b9150610b9b8361089d565b9250828201905080821115610bb357610bb2610b56565b5b92915050565b6000606082019050610bce60008301866108a7565b610bdb60208301856108a7565b610be86040830184610a31565b949350505050565b600081519050919050565b600082825260208201905092915050565b6000610c1782610bf0565b610c218185610bfb565b9350610c3181856020860161075d565b610c3a81610572565b840191505092915050565b60006060820190508181036000830152610c5f8186610c0c565b9050610c6e60208301856108a7565b610c7b60408301846108a7565b949350505050565b7f4e487b7100000000000000000000000000000000000000000000000000000000600052605160045260246000fdfea26469706673582212200dd9701a8c7debd3a0b7c7ff9341da02df889740f4d559ebade507782ad66b3764736f6c63430008130033",
  "linkReferences": {},
  "deployedLinkReferences": {}
}