{
  "_format": "hh-sol-artifact-1",
  "contractName": "Timer",
  "sourceName": "contracts/Timer.sol",
  "abi": [
    {
      "inputs": [],
      "stateMutability": "nonpayable",
      "type": "constructor"
    },
    {
      "inputs": [],
      "name": "OnlySimulatedBackend",
      "type": "error"
    },
    {
      "anonymous": false,
      "inputs": [
        {
          "indexed": true,
          "internalType": "address",
          "name": "owner",
          "type": "address"
        },
        {
          "indexed": true,
          "internalType": "address",
          "name": "approved",
          "type": "address"
        },
        {
          "indexed": true,
          "internalType": "uint256",
          "name": "tokenId",
          "type": "uint256"
        }
      ],
      "name": "Approval",
      "type": "event"
    },
    {
      "anonymous": false,
      "inputs": [
        {
          "indexed": true,
          "internalType": "address",
          "name": "owner",
          "type": "address"
        },
        {
          "indexed": true,
          "internalType": "address",
          "name": "operator",
          "type": "address"
        },
        {
          "indexed": false,
          "internalType": "bool",
          "name": "approved",
          "type": "bool"
        }
      ],
      "name": "ApprovalForAll",
      "type": "event"
    },
    {
      "anonymous": false,
      "inputs": [
        {
          "indexed": false,
          "internalType": "uint256",
          "name": "_fromTokenId",
          "type": "uint256"
        },
        {
          "indexed": false,
          "internalType": "uint256",
          "name": "_toTokenId",
          "type": "uint256"
        }
      ],
      "name": "BatchMetadataUpdate",
      "type": "event"
    },
    {
      "anonymous": false,
      "inputs": [
        {
          "indexed": false,
          "internalType": "uint256",
          "name": "_tokenId",
          "type": "uint256"
        }
      ],
      "name": "MetadataUpdate",
      "type": "event"
    },
    {
      "anonymous": false,
      "inputs": [
        {
          "indexed": true,
          "internalType": "address",
          "name": "previousOwner",
          "type": "address"
        },
        {
          "indexed": true,
          "internalType": "address",
          "name": "newOwner",
          "type": "address"
        }
      ],
      "name": "OwnershipTransferred",
      "type": "event"
    },
    {
      "anonymous": false,
      "inputs": [
        {
          "indexed": false,
          "internalType": "uint256",
          "name": "time",
          "type": "uint256"
        },
        {
          "indexed": false,
          "internalType": "uint256",
          "name": "difference",
          "type": "uint256"
        }
      ],
      "name": "PerformEvent",
      "type": "event"
    },
    {
      "anonymous": false,
      "inputs": [
        {
          "indexed": true,
          "internalType": "address",
          "name": "from",
          "type": "address"
        },
        {
          "indexed": true,
          "internalType": "address",
          "name": "to",
          "type": "address"
        },
        {
          "indexed": true,
          "internalType": "uint256",
          "name": "tokenId",
          "type": "uint256"
        }
      ],
      "name": "Transfer",
      "type": "event"
    },
    {
      "inputs": [
        {
          "internalType": "address",
          "name": "to",
          "type": "address"
        },
        {
          "internalType": "uint256",
          "name": "tokenId",
          "type": "uint256"
        }
      ],
      "name": "approve",
      "outputs": [],
      "stateMutability": "nonpayable",
      "type": "function"
    },
    {
      "inputs": [
        {
          "internalType": "address",
          "name": "owner",
          "type": "address"
        }
      ],
      "name": "balanceOf",
      "outputs": [
        {
          "internalType": "uint256",
          "name": "",
          "type": "uint256"
        }
      ],
      "stateMutability": "view",
      "type": "function"
    },
    {
      "inputs": [
        {
          "internalType": "uint256",
          "name": "tokenId",
          "type": "uint256"
        }
      ],
      "name": "burn",
      "outputs": [],
      "stateMutability": "nonpayable",
      "type": "function"
    },
    {
      "inputs": [
        {
          "internalType": "bytes",
          "name": "",
          "type": "bytes"
        }
      ],
      "name": "checkUpkeep",
      "outputs": [
        {
          "internalType": "bool",
          "name": "upkeepNeeded",
          "type": "bool"
        },
        {
          "internalType": "bytes",
          "name": "performData",
          "type": "bytes"
        }
      ],
      "stateMutability": "view",
      "type": "function"
    },
    {
      "inputs": [],
      "name": "count",
      "outputs": [
        {
          "internalType": "uint256",
          "name": "",
          "type": "uint256"
        }
      ],
      "stateMutability": "view",
      "type": "function"
    },
    {
      "inputs": [
        {
          "internalType": "uint256",
          "name": "tokenId",
          "type": "uint256"
        }
      ],
      "name": "getApproved",
      "outputs": [
        {
          "internalType": "address",
          "name": "",
          "type": "address"
        }
      ],
      "stateMutability": "view",
      "type": "function"
    },
    {
      "inputs": [
        {
          "internalType": "address",
          "name": "owner",
          "type": "address"
        },
        {
          "internalType": "address",
          "name": "operator",
          "type": "address"
        }
      ],
      "name": "isApprovedForAll",
      "outputs": [
        {
          "internalType": "bool",
          "name": "",
          "type": "bool"
        }
      ],
      "stateMutability": "view",
      "type": "function"
    },
    {
      "inputs": [],
      "name": "lastBlockTime",
      "outputs": [
        {
          "internalType": "uint256",
          "name": "",
          "type": "uint256"
        }
      ],
      "stateMutability": "view",
      "type": "function"
    },
    {
      "inputs": [],
      "name": "name",
      "outputs": [
        {
          "internalType": "string",
          "name": "",
          "type": "string"
        }
      ],
      "stateMutability": "view",
      "type": "function"
    },
    {
      "inputs": [],
      "name": "owner",
      "outputs": [
        {
          "internalType": "address",
          "name": "",
          "type": "address"
        }
      ],
      "stateMutability": "view",
      "type": "function"
    },
    {
      "inputs": [
        {
          "internalType": "uint256",
          "name": "tokenId",
          "type": "uint256"
        }
      ],
      "name": "ownerOf",
      "outputs": [
        {
          "internalType": "address",
          "name": "",
          "type": "address"
        }
      ],
      "stateMutability": "view",
      "type": "function"
    },
    {
      "inputs": [
        {
          "internalType": "bytes",
          "name": "performData",
          "type": "bytes"
        }
      ],
      "name": "performUpkeep",
      "outputs": [],
      "stateMutability": "nonpayable",
      "type": "function"
    },
    {
      "inputs": [],
      "name": "renounceOwnership",
      "outputs": [],
      "stateMutability": "nonpayable",
      "type": "function"
    },
    {
      "inputs": [
        {
          "internalType": "address",
          "name": "from",
          "type": "address"
        },
        {
          "internalType": "address",
          "name": "to",
          "type": "address"
        },
        {
          "internalType": "uint256",
          "name": "tokenId",
          "type": "uint256"
        }
      ],
      "name": "safeTransferFrom",
      "outputs": [],
      "stateMutability": "nonpayable",
      "type": "function"
    },
    {
      "inputs": [
        {
          "internalType": "address",
          "name": "from",
          "type": "address"
        },
        {
          "internalType": "address",
          "name": "to",
          "type": "address"
        },
        {
          "internalType": "uint256",
          "name": "tokenId",
          "type": "uint256"
        },
        {
          "internalType": "bytes",
          "name": "data",
          "type": "bytes"
        }
      ],
      "name": "safeTransferFrom",
      "outputs": [],
      "stateMutability": "nonpayable",
      "type": "function"
    },
    {
      "inputs": [
        {
          "internalType": "address",
          "name": "operator",
          "type": "address"
        },
        {
          "internalType": "bool",
          "name": "approved",
          "type": "bool"
        }
      ],
      "name": "setApprovalForAll",
      "outputs": [],
      "stateMutability": "nonpayable",
      "type": "function"
    },
    {
      "inputs": [
        {
          "internalType": "bytes4",
          "name": "interfaceId",
          "type": "bytes4"
        }
      ],
      "name": "supportsInterface",
      "outputs": [
        {
          "internalType": "bool",
          "name": "",
          "type": "bool"
        }
      ],
      "stateMutability": "view",
      "type": "function"
    },
    {
      "inputs": [],
      "name": "symbol",
      "outputs": [
        {
          "internalType": "string",
          "name": "",
          "type": "string"
        }
      ],
      "stateMutability": "view",
      "type": "function"
    },
    {
      "inputs": [],
      "name": "timeDifference",
      "outputs": [
        {
          "internalType": "uint256",
          "name": "",
          "type": "uint256"
        }
      ],
      "stateMutability": "view",
      "type": "function"
    },
    {
      "inputs": [
        {
          "internalType": "uint256",
          "name": "index",
          "type": "uint256"
        }
      ],
      "name": "tokenByIndex",
      "outputs": [
        {
          "internalType": "uint256",
          "name": "",
          "type": "uint256"
        }
      ],
      "stateMutability": "view",
      "type": "function"
    },
    {
      "inputs": [
        {
          "internalType": "address",
          "name": "owner",
          "type": "address"
        },
        {
          "internalType": "uint256",
          "name": "index",
          "type": "uint256"
        }
      ],
      "name": "tokenOfOwnerByIndex",
      "outputs": [
        {
          "internalType": "uint256",
          "name": "",
          "type": "uint256"
        }
      ],
      "stateMutability": "view",
      "type": "function"
    },
    {
      "inputs": [
        {
          "internalType": "uint256",
          "name": "_tokenId",
          "type": "uint256"
        }
      ],
      "name": "tokenURI",
      "outputs": [
        {
          "internalType": "string",
          "name": "",
          "type": "string"
        }
      ],
      "stateMutability": "view",
      "type": "function"
    },
    {
      "inputs": [],
      "name": "totalSupply",
      "outputs": [
        {
          "internalType": "uint256",
          "name": "",
          "type": "uint256"
        }
      ],
      "stateMutability": "view",
      "type": "function"
    },
    {
      "inputs": [
        {
          "internalType": "address",
          "name": "from",
          "type": "address"
        },
        {
          "internalType": "address",
          "name": "to",
          "type": "address"
        },
        {
          "internalType": "uint256",
          "name": "tokenId",
          "type": "uint256"
        }
      ],
      "name": "transferFrom",
      "outputs": [],
      "stateMutability": "nonpayable",
      "type": "function"
    },
    {
      "inputs": [
        {
          "internalType": "address",
          "name": "newOwner",
          "type": "address"
        }
      ],
      "name": "transferOwnership",
      "outputs": [],
      "stateMutability": "nonpayable",
      "type": "function"
    }
  ],
  "bytecode": "0x608060405242600c556014600e553480156200001a57600080fd5b506040518060400160405280600a81526020017f54696d6572546f6b656e000000000000000000000000000000000000000000008152506040518060400160405280600381526020017f54544b000000000000000000000000000000000000000000000000000000000081525081600090816200009891906200041b565b508060019081620000aa91906200041b565b505050620000cd620000c1620000d360201b60201c565b620000db60201b60201c565b62000502565b600033905090565b6000600b60009054906101000a900473ffffffffffffffffffffffffffffffffffffffff16905081600b60006101000a81548173ffffffffffffffffffffffffffffffffffffffff021916908373ffffffffffffffffffffffffffffffffffffffff1602179055508173ffffffffffffffffffffffffffffffffffffffff168173ffffffffffffffffffffffffffffffffffffffff167f8be0079c531659141344cd1fd0a4f28419497f9722a3daafe3b4186f6b6457e060405160405180910390a35050565b600081519050919050565b7f4e487b7100000000000000000000000000000000000000000000000000000000600052604160045260246000fd5b7f4e487b7100000000000000000000000000000000000000000000000000000000600052602260045260246000fd5b600060028204905060018216806200022357607f821691505b602082108103620002395762000238620001db565b5b50919050565b60008190508160005260206000209050919050565b60006020601f8301049050919050565b600082821b905092915050565b600060088302620002a37fffffffffffffffffffffffffffffffffffffffffffffffffffffffffffffffff8262000264565b620002af868362000264565b95508019841693508086168417925050509392505050565b6000819050919050565b6000819050919050565b6000620002fc620002f6620002f084620002c7565b620002d1565b620002c7565b9050919050565b6000819050919050565b6200031883620002db565b62000330620003278262000303565b84845462000271565b825550505050565b600090565b6200034762000338565b620003548184846200030d565b505050565b5b818110156200037c57620003706000826200033d565b6001810190506200035a565b5050565b601f821115620003cb5762000395816200023f565b620003a08462000254565b81016020851015620003b0578190505b620003c8620003bf8562000254565b83018262000359565b50505b505050565b600082821c905092915050565b6000620003f060001984600802620003d0565b1980831691505092915050565b60006200040b8383620003dd565b9150826002028217905092915050565b6200042682620001a1565b67ffffffffffffffff811115620004425762000441620001ac565b5b6200044e82546200020a565b6200045b82828562000380565b600060209050601f8311600181146200049357600084156200047e578287015190505b6200048a8582620003fd565b865550620004fa565b601f198416620004a3866200023f565b60005b82811015620004cd57848901518255600182019150602085019450602081019050620004a6565b86831015620004ed5784890151620004e9601f891682620003dd565b8355505b6001600288020188555050505b505050505050565b61311680620005126000396000f3fe608060405234801561001057600080fd5b50600436106101735760003560e01c80634f6ccce7116100de57806395d89b4111610097578063c85ea4ec11610071578063c85ea4ec1461044b578063c87b56dd14610469578063e985e9c514610499578063f2fde38b146104c957610173565b806395d89b41146103f5578063a22cb46514610413578063b88d4fde1461042f57610173565b80634f6ccce71461030c5780636352211e1461033c5780636e04ff0d1461036c57806370a082311461039d578063715018a6146103cd5780638da5cb5b146103d757610173565b80631ea9a7bb116101305780631ea9a7bb1461024e57806323b872dd1461026c5780632f745c591461028857806342842e0e146102b857806342966c68146102d45780634585e33b146102f057610173565b806301ffc9a71461017857806306661abd146101a857806306fdde03146101c6578063081812fc146101e4578063095ea7b31461021457806318160ddd14610230575b600080fd5b610192600480360381019061018d919061206c565b6104e5565b60405161019f91906120b4565b60405180910390f35b6101b06104f7565b6040516101bd91906120e8565b60405180910390f35b6101ce6104fd565b6040516101db9190612193565b60405180910390f35b6101fe60048036038101906101f991906121e1565b61058f565b60405161020b919061224f565b60405180910390f35b61022e60048036038101906102299190612296565b6105d5565b005b6102386106ec565b60405161024591906120e8565b60405180910390f35b6102566106f9565b60405161026391906120e8565b60405180910390f35b610286600480360381019061028191906122d6565b6106ff565b005b6102a2600480360381019061029d9190612296565b61075f565b6040516102af91906120e8565b60405180910390f35b6102d260048036038101906102cd91906122d6565b610804565b005b6102ee60048036038101906102e991906121e1565b610824565b005b61030a6004803603810190610305919061238e565b610830565b005b610326600480360381019061032191906121e1565b6108ba565b60405161033391906120e8565b60405180910390f35b610356600480360381019061035191906121e1565b61092b565b604051610363919061224f565b60405180910390f35b6103866004803603810190610381919061238e565b6109b1565b604051610394929190612430565b60405180910390f35b6103b760048036038101906103b29190612460565b6109f3565b6040516103c491906120e8565b60405180910390f35b6103d5610aaa565b005b6103df610abe565b6040516103ec919061224f565b60405180910390f35b6103fd610ae8565b60405161040a9190612193565b60405180910390f35b61042d600480360381019061042891906124b9565b610b7a565b005b61044960048036038101906104449190612629565b610b90565b005b610453610bf2565b60405161046091906120e8565b60405180910390f35b610483600480360381019061047e91906121e1565b610bf8565b6040516104909190612193565b60405180910390f35b6104b360048036038101906104ae91906126ac565b610c51565b6040516104c091906120b4565b60405180910390f35b6104e360048036038101906104de9190612460565b610ce5565b005b60006104f082610d68565b9050919050565b600e5481565b60606000805461050c9061271b565b80601f01602080910402602001604051908101604052809291908181526020018280546105389061271b565b80156105855780601f1061055a57610100808354040283529160200191610585565b820191906000526020600020905b81548152906001019060200180831161056857829003601f168201915b5050505050905090565b600061059a82610dc9565b6004600083815260200190815260200160002060009054906101000a900473ffffffffffffffffffffffffffffffffffffffff169050919050565b60006105e08261092b565b90508073ffffffffffffffffffffffffffffffffffffffff168373ffffffffffffffffffffffffffffffffffffffff1603610650576040517f08c379a0000000000000000000000000000000000000000000000000000000008152600401610647906127be565b60405180910390fd5b8073ffffffffffffffffffffffffffffffffffffffff1661066f610e14565b73ffffffffffffffffffffffffffffffffffffffff16148061069e575061069d81610698610e14565b610c51565b5b6106dd576040517f08c379a00000000000000000000000000000000000000000000000000000000081526004016106d490612850565b60405180910390fd5b6106e78383610e1c565b505050565b6000600880549050905090565b600d5481565b61071061070a610e14565b82610ed5565b61074f576040517f08c379a0000000000000000000000000000000000000000000000000000000008152600401610746906128e2565b60405180910390fd5b61075a838383610f6a565b505050565b600061076a836109f3565b82106107ab576040517f08c379a00000000000000000000000000000000000000000000000000000000081526004016107a290612974565b60405180910390fd5b600660008473ffffffffffffffffffffffffffffffffffffffff1673ffffffffffffffffffffffffffffffffffffffff168152602001908152602001600020600083815260200190815260200160002054905092915050565b61081f83838360405180602001604052806000815250610b90565b505050565b61082d81611263565b50565b6001600e600082825461084391906129c3565b925050819055506000828281019061085b91906121e1565b9050600c548161086b91906129c3565b600d819055507f0a7f5bbb540d5ec893e10fb99b16dd0021c2cc3d15bf9113b83f142b49068ce5600c54600d546040516108a69291906129f7565b60405180910390a180600c81905550505050565b60006108c46106ec565b8210610905576040517f08c379a00000000000000000000000000000000000000000000000000000000081526004016108fc90612a92565b60405180910390fd5b6008828154811061091957610918612ab2565b5b90600052602060002001549050919050565b6000806109378361126f565b9050600073ffffffffffffffffffffffffffffffffffffffff168173ffffffffffffffffffffffffffffffffffffffff16036109a8576040517f08c379a000000000000000000000000000000000000000000000000000000000815260040161099f90612b2d565b60405180910390fd5b80915050919050565b600060606000600e5411156109eb576001426040516020016109d391906120e8565b604051602081830303815290604052915091506109ec565b5b9250929050565b60008073ffffffffffffffffffffffffffffffffffffffff168273ffffffffffffffffffffffffffffffffffffffff1603610a63576040517f08c379a0000000000000000000000000000000000000000000000000000000008152600401610a5a90612bbf565b60405180910390fd5b600360008373ffffffffffffffffffffffffffffffffffffffff1673ffffffffffffffffffffffffffffffffffffffff168152602001908152602001600020549050919050565b610ab26112ac565b610abc600061132a565b565b6000600b60009054906101000a900473ffffffffffffffffffffffffffffffffffffffff16905090565b606060018054610af79061271b565b80601f0160208091040260200160405190810160405280929190818152602001828054610b239061271b565b8015610b705780601f10610b4557610100808354040283529160200191610b70565b820191906000526020600020905b815481529060010190602001808311610b5357829003601f168201915b5050505050905090565b610b8c610b85610e14565b83836113f0565b5050565b610ba1610b9b610e14565b83610ed5565b610be0576040517f08c379a0000000000000000000000000000000000000000000000000000000008152600401610bd7906128e2565b60405180910390fd5b610bec8484848461155c565b50505050565b600c5481565b6060610c03826115b8565b610c42576040517f08c379a0000000000000000000000000000000000000000000000000000000008152600401610c3990612c51565b60405180910390fd5b610c4a6115f9565b9050919050565b6000600560008473ffffffffffffffffffffffffffffffffffffffff1673ffffffffffffffffffffffffffffffffffffffff16815260200190815260200160002060008373ffffffffffffffffffffffffffffffffffffffff1673ffffffffffffffffffffffffffffffffffffffff16815260200190815260200160002060009054906101000a900460ff16905092915050565b610ced6112ac565b600073ffffffffffffffffffffffffffffffffffffffff168173ffffffffffffffffffffffffffffffffffffffff1603610d5c576040517f08c379a0000000000000000000000000000000000000000000000000000000008152600401610d5390612ce3565b60405180910390fd5b610d658161132a565b50565b6000634906490660e01b7bffffffffffffffffffffffffffffffffffffffffffffffffffffffff1916827bffffffffffffffffffffffffffffffffffffffffffffffffffffffff19161480610dc25750610dc182611610565b5b9050919050565b610dd2816115b8565b610e11576040517f08c379a0000000000000000000000000000000000000000000000000000000008152600401610e0890612b2d565b60405180910390fd5b50565b600033905090565b816004600083815260200190815260200160002060006101000a81548173ffffffffffffffffffffffffffffffffffffffff021916908373ffffffffffffffffffffffffffffffffffffffff160217905550808273ffffffffffffffffffffffffffffffffffffffff16610e8f8361092b565b73ffffffffffffffffffffffffffffffffffffffff167f8c5be1e5ebec7d5bd14f71427d1e84f3dd0314c0f7b2291e5b200ac8c7c3b92560405160405180910390a45050565b600080610ee18361092b565b90508073ffffffffffffffffffffffffffffffffffffffff168473ffffffffffffffffffffffffffffffffffffffff161480610f235750610f228185610c51565b5b80610f6157508373ffffffffffffffffffffffffffffffffffffffff16610f498461058f565b73ffffffffffffffffffffffffffffffffffffffff16145b91505092915050565b8273ffffffffffffffffffffffffffffffffffffffff16610f8a8261092b565b73ffffffffffffffffffffffffffffffffffffffff1614610fe0576040517f08c379a0000000000000000000000000000000000000000000000000000000008152600401610fd790612d75565b60405180910390fd5b600073ffffffffffffffffffffffffffffffffffffffff168273ffffffffffffffffffffffffffffffffffffffff160361104f576040517f08c379a000000000000000000000000000000000000000000000000000000000815260040161104690612e07565b60405180910390fd5b61105c838383600161168a565b8273ffffffffffffffffffffffffffffffffffffffff1661107c8261092b565b73ffffffffffffffffffffffffffffffffffffffff16146110d2576040517f08c379a00000000000000000000000000000000000000000000000000000000081526004016110c990612d75565b60405180910390fd5b6004600082815260200190815260200160002060006101000a81549073ffffffffffffffffffffffffffffffffffffffff02191690556001600360008573ffffffffffffffffffffffffffffffffffffffff1673ffffffffffffffffffffffffffffffffffffffff168152602001908152602001600020600082825403925050819055506001600360008473ffffffffffffffffffffffffffffffffffffffff1673ffffffffffffffffffffffffffffffffffffffff16815260200190815260200160002060008282540192505081905550816002600083815260200190815260200160002060006101000a81548173ffffffffffffffffffffffffffffffffffffffff021916908373ffffffffffffffffffffffffffffffffffffffff160217905550808273ffffffffffffffffffffffffffffffffffffffff168473ffffffffffffffffffffffffffffffffffffffff167fddf252ad1be2c89b69c2b068fc378daa952ba7f163c4a11628f55a4df523b3ef60405160405180910390a461125e838383600161169c565b505050565b61126c816116a2565b50565b60006002600083815260200190815260200160002060009054906101000a900473ffffffffffffffffffffffffffffffffffffffff169050919050565b6112b4610e14565b73ffffffffffffffffffffffffffffffffffffffff166112d2610abe565b73ffffffffffffffffffffffffffffffffffffffff1614611328576040517f08c379a000000000000000000000000000000000000000000000000000000000815260040161131f90612e73565b60405180910390fd5b565b6000600b60009054906101000a900473ffffffffffffffffffffffffffffffffffffffff16905081600b60006101000a81548173ffffffffffffffffffffffffffffffffffffffff021916908373ffffffffffffffffffffffffffffffffffffffff1602179055508173ffffffffffffffffffffffffffffffffffffffff168173ffffffffffffffffffffffffffffffffffffffff167f8be0079c531659141344cd1fd0a4f28419497f9722a3daafe3b4186f6b6457e060405160405180910390a35050565b8173ffffffffffffffffffffffffffffffffffffffff168373ffffffffffffffffffffffffffffffffffffffff160361145e576040517f08c379a000000000000000000000000000000000000000000000000000000000815260040161145590612edf565b60405180910390fd5b80600560008573ffffffffffffffffffffffffffffffffffffffff1673ffffffffffffffffffffffffffffffffffffffff16815260200190815260200160002060008473ffffffffffffffffffffffffffffffffffffffff1673ffffffffffffffffffffffffffffffffffffffff16815260200190815260200160002060006101000a81548160ff0219169083151502179055508173ffffffffffffffffffffffffffffffffffffffff168373ffffffffffffffffffffffffffffffffffffffff167f17307eab39ab6107e8899845ad3d59bd9653f200f220920489ca2b5937696c318360405161154f91906120b4565b60405180910390a3505050565b611567848484610f6a565b611573848484846116f5565b6115b2576040517f08c379a00000000000000000000000000000000000000000000000000000000081526004016115a990612f71565b60405180910390fd5b50505050565b60008073ffffffffffffffffffffffffffffffffffffffff166115da8361126f565b73ffffffffffffffffffffffffffffffffffffffff1614159050919050565b606060405180602001604052806000815250905090565b60007f780e9d63000000000000000000000000000000000000000000000000000000007bffffffffffffffffffffffffffffffffffffffffffffffffffffffff1916827bffffffffffffffffffffffffffffffffffffffffffffffffffffffff1916148061168357506116828261187c565b5b9050919050565b6116968484848461195e565b50505050565b50505050565b6116ab81611abc565b6000600a600083815260200190815260200160002080546116cb9061271b565b9050146116f257600a600082815260200190815260200160002060006116f19190611fa3565b5b50565b60006117168473ffffffffffffffffffffffffffffffffffffffff16611c0a565b1561186f578373ffffffffffffffffffffffffffffffffffffffff1663150b7a0261173f610e14565b8786866040518563ffffffff1660e01b81526004016117619493929190612f91565b6020604051808303816000875af192505050801561179d57506040513d601f19601f8201168201806040525081019061179a9190612ff2565b60015b61181f573d80600081146117cd576040519150601f19603f3d011682016040523d82523d6000602084013e6117d2565b606091505b506000815103611817576040517f08c379a000000000000000000000000000000000000000000000000000000000815260040161180e90612f71565b60405180910390fd5b805181602001fd5b63150b7a0260e01b7bffffffffffffffffffffffffffffffffffffffffffffffffffffffff1916817bffffffffffffffffffffffffffffffffffffffffffffffffffffffff191614915050611874565b600190505b949350505050565b60007f80ac58cd000000000000000000000000000000000000000000000000000000007bffffffffffffffffffffffffffffffffffffffffffffffffffffffff1916827bffffffffffffffffffffffffffffffffffffffffffffffffffffffff1916148061194757507f5b5e139f000000000000000000000000000000000000000000000000000000007bffffffffffffffffffffffffffffffffffffffffffffffffffffffff1916827bffffffffffffffffffffffffffffffffffffffffffffffffffffffff1916145b80611957575061195682611c2d565b5b9050919050565b61196a84848484611c97565b60018111156119ae576040517f08c379a00000000000000000000000000000000000000000000000000000000081526004016119a590613091565b60405180910390fd5b6000829050600073ffffffffffffffffffffffffffffffffffffffff168573ffffffffffffffffffffffffffffffffffffffff16036119f5576119f081611c9d565b611a34565b8373ffffffffffffffffffffffffffffffffffffffff168573ffffffffffffffffffffffffffffffffffffffff1614611a3357611a328582611ce6565b5b5b600073ffffffffffffffffffffffffffffffffffffffff168473ffffffffffffffffffffffffffffffffffffffff1603611a7657611a7181611e53565b611ab5565b8473ffffffffffffffffffffffffffffffffffffffff168473ffffffffffffffffffffffffffffffffffffffff1614611ab457611ab38482611f24565b5b5b5050505050565b6000611ac78261092b565b9050611ad781600084600161168a565b611ae08261092b565b90506004600083815260200190815260200160002060006101000a81549073ffffffffffffffffffffffffffffffffffffffff02191690556001600360008373ffffffffffffffffffffffffffffffffffffffff1673ffffffffffffffffffffffffffffffffffffffff168152602001908152602001600020600082825403925050819055506002600083815260200190815260200160002060006101000a81549073ffffffffffffffffffffffffffffffffffffffff021916905581600073ffffffffffffffffffffffffffffffffffffffff168273ffffffffffffffffffffffffffffffffffffffff167fddf252ad1be2c89b69c2b068fc378daa952ba7f163c4a11628f55a4df523b3ef60405160405180910390a4611c0681600084600161169c565b5050565b6000808273ffffffffffffffffffffffffffffffffffffffff163b119050919050565b60007f01ffc9a7000000000000000000000000000000000000000000000000000000007bffffffffffffffffffffffffffffffffffffffffffffffffffffffff1916827bffffffffffffffffffffffffffffffffffffffffffffffffffffffff1916149050919050565b50505050565b6008805490506009600083815260200190815260200160002081905550600881908060018154018082558091505060019003906000526020600020016000909190919091505550565b60006001611cf3846109f3565b611cfd91906129c3565b9050600060076000848152602001908152602001600020549050818114611de2576000600660008673ffffffffffffffffffffffffffffffffffffffff1673ffffffffffffffffffffffffffffffffffffffff168152602001908152602001600020600084815260200190815260200160002054905080600660008773ffffffffffffffffffffffffffffffffffffffff1673ffffffffffffffffffffffffffffffffffffffff168152602001908152602001600020600084815260200190815260200160002081905550816007600083815260200190815260200160002081905550505b6007600084815260200190815260200160002060009055600660008573ffffffffffffffffffffffffffffffffffffffff1673ffffffffffffffffffffffffffffffffffffffff16815260200190815260200160002060008381526020019081526020016000206000905550505050565b60006001600880549050611e6791906129c3565b9050600060096000848152602001908152602001600020549050600060088381548110611e9757611e96612ab2565b5b906000526020600020015490508060088381548110611eb957611eb8612ab2565b5b906000526020600020018190555081600960008381526020019081526020016000208190555060096000858152602001908152602001600020600090556008805480611f0857611f076130b1565b5b6001900381819060005260206000200160009055905550505050565b6000611f2f836109f3565b905081600660008573ffffffffffffffffffffffffffffffffffffffff1673ffffffffffffffffffffffffffffffffffffffff168152602001908152602001600020600083815260200190815260200160002081905550806007600084815260200190815260200160002081905550505050565b508054611faf9061271b565b6000825580601f10611fc15750611fe0565b601f016020900490600052602060002090810190611fdf9190611fe3565b5b50565b5b80821115611ffc576000816000905550600101611fe4565b5090565b6000604051905090565b600080fd5b600080fd5b60007fffffffff0000000000000000000000000000000000000000000000000000000082169050919050565b61204981612014565b811461205457600080fd5b50565b60008135905061206681612040565b92915050565b6000602082840312156120825761208161200a565b5b600061209084828501612057565b91505092915050565b60008115159050919050565b6120ae81612099565b82525050565b60006020820190506120c960008301846120a5565b92915050565b6000819050919050565b6120e2816120cf565b82525050565b60006020820190506120fd60008301846120d9565b92915050565b600081519050919050565b600082825260208201905092915050565b60005b8381101561213d578082015181840152602081019050612122565b60008484015250505050565b6000601f19601f8301169050919050565b600061216582612103565b61216f818561210e565b935061217f81856020860161211f565b61218881612149565b840191505092915050565b600060208201905081810360008301526121ad818461215a565b905092915050565b6121be816120cf565b81146121c957600080fd5b50565b6000813590506121db816121b5565b92915050565b6000602082840312156121f7576121f661200a565b5b6000612205848285016121cc565b91505092915050565b600073ffffffffffffffffffffffffffffffffffffffff82169050919050565b60006122398261220e565b9050919050565b6122498161222e565b82525050565b60006020820190506122646000830184612240565b92915050565b6122738161222e565b811461227e57600080fd5b50565b6000813590506122908161226a565b92915050565b600080604083850312156122ad576122ac61200a565b5b60006122bb85828601612281565b92505060206122cc858286016121cc565b9150509250929050565b6000806000606084860312156122ef576122ee61200a565b5b60006122fd86828701612281565b935050602061230e86828701612281565b925050604061231f868287016121cc565b9150509250925092565b600080fd5b600080fd5b600080fd5b60008083601f84011261234e5761234d612329565b5b8235905067ffffffffffffffff81111561236b5761236a61232e565b5b60208301915083600182028301111561238757612386612333565b5b9250929050565b600080602083850312156123a5576123a461200a565b5b600083013567ffffffffffffffff8111156123c3576123c261200f565b5b6123cf85828601612338565b92509250509250929050565b600081519050919050565b600082825260208201905092915050565b6000612402826123db565b61240c81856123e6565b935061241c81856020860161211f565b61242581612149565b840191505092915050565b600060408201905061244560008301856120a5565b818103602083015261245781846123f7565b90509392505050565b6000602082840312156124765761247561200a565b5b600061248484828501612281565b91505092915050565b61249681612099565b81146124a157600080fd5b50565b6000813590506124b38161248d565b92915050565b600080604083850312156124d0576124cf61200a565b5b60006124de85828601612281565b92505060206124ef858286016124a4565b9150509250929050565b600080fd5b7f4e487b7100000000000000000000000000000000000000000000000000000000600052604160045260246000fd5b61253682612149565b810181811067ffffffffffffffff82111715612555576125546124fe565b5b80604052505050565b6000612568612000565b9050612574828261252d565b919050565b600067ffffffffffffffff821115612594576125936124fe565b5b61259d82612149565b9050602081019050919050565b82818337600083830152505050565b60006125cc6125c784612579565b61255e565b9050828152602081018484840111156125e8576125e76124f9565b5b6125f38482856125aa565b509392505050565b600082601f8301126126105761260f612329565b5b81356126208482602086016125b9565b91505092915050565b600080600080608085870312156126435761264261200a565b5b600061265187828801612281565b945050602061266287828801612281565b9350506040612673878288016121cc565b925050606085013567ffffffffffffffff8111156126945761269361200f565b5b6126a0878288016125fb565b91505092959194509250565b600080604083850312156126c3576126c261200a565b5b60006126d185828601612281565b92505060206126e285828601612281565b9150509250929050565b7f4e487b7100000000000000000000000000000000000000000000000000000000600052602260045260246000fd5b6000600282049050600182168061273357607f821691505b602082108103612746576127456126ec565b5b50919050565b7f4552433732313a20617070726f76616c20746f2063757272656e74206f776e6560008201527f7200000000000000000000000000000000000000000000000000000000000000602082015250565b60006127a860218361210e565b91506127b38261274c565b604082019050919050565b600060208201905081810360008301526127d78161279b565b9050919050565b7f4552433732313a20617070726f76652063616c6c6572206973206e6f7420746f60008201527f6b656e206f776e6572206f7220617070726f76656420666f7220616c6c000000602082015250565b600061283a603d8361210e565b9150612845826127de565b604082019050919050565b600060208201905081810360008301526128698161282d565b9050919050565b7f4552433732313a2063616c6c6572206973206e6f7420746f6b656e206f776e6560008201527f72206f7220617070726f76656400000000000000000000000000000000000000602082015250565b60006128cc602d8361210e565b91506128d782612870565b604082019050919050565b600060208201905081810360008301526128fb816128bf565b9050919050565b7f455243373231456e756d657261626c653a206f776e657220696e646578206f7560008201527f74206f6620626f756e6473000000000000000000000000000000000000000000602082015250565b600061295e602b8361210e565b915061296982612902565b604082019050919050565b6000602082019050818103600083015261298d81612951565b9050919050565b7f4e487b7100000000000000000000000000000000000000000000000000000000600052601160045260246000fd5b60006129ce826120cf565b91506129d9836120cf565b92508282039050818111156129f1576129f0612994565b5b92915050565b6000604082019050612a0c60008301856120d9565b612a1960208301846120d9565b9392505050565b7f455243373231456e756d657261626c653a20676c6f62616c20696e646578206f60008201527f7574206f6620626f756e64730000000000000000000000000000000000000000602082015250565b6000612a7c602c8361210e565b9150612a8782612a20565b604082019050919050565b60006020820190508181036000830152612aab81612a6f565b9050919050565b7f4e487b7100000000000000000000000000000000000000000000000000000000600052603260045260246000fd5b7f4552433732313a20696e76616c696420746f6b656e2049440000000000000000600082015250565b6000612b1760188361210e565b9150612b2282612ae1565b602082019050919050565b60006020820190508181036000830152612b4681612b0a565b9050919050565b7f4552433732313a2061646472657373207a65726f206973206e6f74206120766160008201527f6c6964206f776e65720000000000000000000000000000000000000000000000602082015250565b6000612ba960298361210e565b9150612bb482612b4d565b604082019050919050565b60006020820190508181036000830152612bd881612b9c565b9050919050565b7f4552433732314d657461646174613a2055524920717565727920666f72206e6f60008201527f6e6578697374656e7420746f6b656e2e00000000000000000000000000000000602082015250565b6000612c3b60308361210e565b9150612c4682612bdf565b604082019050919050565b60006020820190508181036000830152612c6a81612c2e565b9050919050565b7f4f776e61626c653a206e6577206f776e657220697320746865207a65726f206160008201527f6464726573730000000000000000000000000000000000000000000000000000602082015250565b6000612ccd60268361210e565b9150612cd882612c71565b604082019050919050565b60006020820190508181036000830152612cfc81612cc0565b9050919050565b7f4552433732313a207472616e736665722066726f6d20696e636f72726563742060008201527f6f776e6572000000000000000000000000000000000000000000000000000000602082015250565b6000612d5f60258361210e565b9150612d6a82612d03565b604082019050919050565b60006020820190508181036000830152612d8e81612d52565b9050919050565b7f4552433732313a207472616e7366657220746f20746865207a65726f2061646460008201527f7265737300000000000000000000000000000000000000000000000000000000602082015250565b6000612df160248361210e565b9150612dfc82612d95565b604082019050919050565b60006020820190508181036000830152612e2081612de4565b9050919050565b7f4f776e61626c653a2063616c6c6572206973206e6f7420746865206f776e6572600082015250565b6000612e5d60208361210e565b9150612e6882612e27565b602082019050919050565b60006020820190508181036000830152612e8c81612e50565b9050919050565b7f4552433732313a20617070726f766520746f2063616c6c657200000000000000600082015250565b6000612ec960198361210e565b9150612ed482612e93565b602082019050919050565b60006020820190508181036000830152612ef881612ebc565b9050919050565b7f4552433732313a207472616e7366657220746f206e6f6e20455243373231526560008201527f63656976657220696d706c656d656e7465720000000000000000000000000000602082015250565b6000612f5b60328361210e565b9150612f6682612eff565b604082019050919050565b60006020820190508181036000830152612f8a81612f4e565b9050919050565b6000608082019050612fa66000830187612240565b612fb36020830186612240565b612fc060408301856120d9565b8181036060830152612fd281846123f7565b905095945050505050565b600081519050612fec81612040565b92915050565b6000602082840312156130085761300761200a565b5b600061301684828501612fdd565b91505092915050565b7f455243373231456e756d657261626c653a20636f6e736563757469766520747260008201527f616e7366657273206e6f7420737570706f727465640000000000000000000000602082015250565b600061307b60358361210e565b91506130868261301f565b604082019050919050565b600060208201905081810360008301526130aa8161306e565b9050919050565b7f4e487b7100000000000000000000000000000000000000000000000000000000600052603160045260246000fdfea2646970667358221220d051ca1003fdec844ba530b3f7d50a323afbdfba0aa6134f9d9c153356b3d91f64736f6c63430008130033",
  "linkReferences": {},
  "deployedLinkReferences": {}
}